:400000000080002011000000B9180000B918000080B500AF024A034B1B68136001F056FCBC760040FA46004010B5054C237833B9044B13B10448AFF300800123237010BD22
:400040008081FF1F0000000050220000084B10B51BB108480849AFF300800848036803B910BD074B002BFBD0BDE81040184700BF00000000502200008481FF1F0881FF1F6D
:400080000000000080B582B000AF01F067FE0020002101F073FE284801F0A6FE00BF02F043F80346012BFAD0012001F0DFFE0020002101F063FE214801F096FE00F04AF85F
:4000C0000346FB71012001F0D1FEFB79012B07D10020002101F052FE194801F085FE2AE00020002101F04AFE164801F07DFE164B1B78184601F0FCFF01F060FA0346BB714F
:400100000120002101F03AFE104801F06DFEBB79184601F0EDFFBB7903F02003002B0AD000F0EAFB03467B71094801F05DFE7B79184601F0DDFFFEE7542200006822000037
:400140007C2200008C220000AA81FF1F9C220000A422000080B500AF3E4B00221A703D4B1B780133DAB23B4B1A7000F055FD0346002B01D100236AE0364B1B780133DAB299
:40018000344B1A7000F0F0FD0346002B01D100235DE0304B1B780133DAB22E4B1A7000F063FE0346002B01D1002350E0294B1B780133DAB2274B1A7000F0E8FE0346002BEB
:4001C00001D1002343E0234B1B780133DAB2214B1A7000F0F3FE0346002B01D1002336E01C4B1B780133DAB21A4B1A7000F074FF0346002B01D1002329E0164B1B7801332A
:40020000DAB2144B1A7000F0FFFF0346002B01D100231CE00F4B1B780133DAB20D4B1A7001F082F80346002B01D100230FE0094B1B780133DAB2074B1A7001F081F903466D
:40024000002B01D1002302E001F0C4F90123184680BD00BFAA81FF1F80B400AF084B084A1278D2B2D2B222F00E02D2B242F00C02D2B2D2B21A70BD465DF8047B704700BF28
:400280000950004080B400AF084B084A1278D2B2D2B222F00E02D2B242F00202D2B2D2B21A70BD465DF8047B704700BF0950004080B400AF084B084A1278D2B2D2B222F00B
:4002C0000E02D2B242F00C02D2B2D2B21A70BD465DF8047B704700BF0850004080B400AF084B084A1278D2B2D2B222F00E02D2B242F00202D2B2D2B21A70BD465DF8047B54
:40030000704700BF0850004080B400AF084B084A1278D2B2D2B222F00E02D2B242F00C02D2B2D2B21A70BD465DF8047B704700BF0250004080B400AF084B084A1278D2B2A8
:40034000D2B222F00E02D2B242F00202D2B2D2B21A70BD465DF8047B704700BF0250004080B400AF054A054B1B78DBB243F00203DBB21370BD465DF8047B70471051004093
:4003800080B400AF054A054B1B78DBB223F00203DBB21370BD465DF8047B70471051004080B400AF054A054B1B78DBB243F00103DBB21370BD465DF8047B7047105100402C
:4003C00080B400AF054A054B1B78DBB223F00103DBB21370BD465DF8047B70471051004080B400AF054A054B1B78DBB243F00403DBB21370BD465DF8047B704700510040FA
:4004000080B400AF054A054B1B78DBB223F00403DBB21370BD465DF8047B70470051004080B400AF054B1B78DBB203F00103DBB21846BD465DF8047B704700BF11510040AD
:4004400080B584B000AF0346FB710023FB730023FB7317E0FB7903F00103002B06D0FFF78FFFFFF79DFFFFF77BFF05E0FFF788FFFFF7A6FFFFF774FFFB795B08FB71FB7B85
:400480000133FB73FB7B072BE4D91037BD4680BD80B582B000AF0023FB7100237B710023BB710023FB7125E0164A164B1B78DBB223F00203DBB21370FFF7B2FF03467B7132
:4004C000104A104B1B78DBB243F00203DBB21370BB795B08BB717B79002B04D0BB7963F07F03BB7103E0BB7903F07F03BB71FB790133FB71FB79072BD6D9BB791846083702
:40050000BD4680BD1051004080B500AFFFF7E6FEFFF736FFFFF724FF80BD00BF80B500AFFFF7C6FEFFF72CFFFFF71AFF80BD00BF80B582B000AF0023FB7100237B7100233B
:40054000BB710023BB7113E0FFF71AFFFFF768FF03467B71FFF704FF7A79BB7902FA03F3DAB2FB791343DBB2FB71BB790133BB71BB79022BE8D9FB7918460837BD4680BD04
:4005800080B582B000AF0346FB71FFF7F9FEFB79002B02D0FFF704FF01E0FFF711FFFFF7DFFE0837BD4680BD80B582B000AFFFF7E7FEFFF735FF0346FB71FFF7D1FEFB79D7
:4005C00018460837BD4680BD80B582B000AFFFF7F7FE0023FB7106E0FFF7D2FEFFF7C0FEFB790133FB71FB79022BF5D90837BD4680BD00BF80B485B000AF0346FB7100237D
:40060000FB730023BB730DE0FB7903F00103002B02D0FB7B0133FB73FB795B08FB71BB7B0133BB73BB7B072BEED9FB7B18461437BD465DF8047B704780B582B000AF00239E
:40064000FB710023BB710DE0BB790C4AD35C1846FFF7D0FF03461A46FB791344FB71BB790133BB71BB79032BEED9FB7903F00103DBB218460837BD4680BD00BFAC81FF1F7A
:4006800090B583B000AF0023FB71224B1B781846FFF7D6FEFFF738FFFFF74AFF03461A461D4B1A700023BB7109E0BC79FFF7F0FE03461A46194B1A55BB790133BB71BB79C0
:4006C000032BF2D9FFF770FF03467B71FFF726FFFFF77AFFFB790133FB710F4B1B78022B02D1FB79042BD0D90B4B1B78012B0DD1FFF7A2FF03461A467B79934206D0064B6D
:400700001B7843F00803DAB2034B1A700C37BD4690BD00BFB181FF1FB081FF1FAC81FF1F80B582B000AF0023FB71FFF785FF03467B71184B1B781846FFF782FEFFF7E4FE52
:40074000FFF7F6FE03461A46134B1A70FFF7E6FE0023BB7108E0BB79104AD35C1846FFF76FFEBB790133BB71BB79032BF3D97B791846FFF705FFFFF727FFFB790133FB7131
:40078000054B1B78022B02D1FB79042BD1D90837BD4680BDB181FF1FB081FF1FAC81FF1F80B483B000AF1F4A1E4B1B78DBB243F00103DBB213700023FB7112E0194A194B09
:4007C0001B78DBB223F00203DBB21370154A154B1B78DBB243F00203DBB21370FB790133FB71FB79322BE9D90E4A0E4B1B78DBB223F00203DBB213700A4A0A4B1B78DBB221
:4008000023F00103DBB21370064A064B1B78DBB243F00203DBB213700C37BD465DF8047B704700BF1051004080B582B000AF00237B602048204900F031FF1F4B1B6803F072
:4008400010431D4A13607B6801337B601A4B1B68002B04D07B6842F6B0029342E9D97B6842F6B00293420CD9144B1B7843F02003DAB2124B1A7012480F4900F00FFF0023F9
:4008800014E00F480C4900F009FF0B4B1B6803F07043B3F1204F08D0084B1B7843F02003DAB2064B1A70002300E0012318460837BD4680BD04001040A081FF1FB081FF1FAD
:4008C0000800104080B582B000AF00237B604EF6B6037B600548796800F00EFF0448054900F00AFF0837BD4680BD00BF08001040040010401500008080B400AF034B1B68C3
:40090000DBB21846BD465DF8047B7047A081FF1F80B582B000AF00237B6000233B604DF2B6337B601A48796800F0E6FE194B1B78012B01D0002327E017484FF0004100F026
:40094000DBFE144B1B78012B01D000231CE0FFF76BFF03461A46114B1A70104B1B78012B01D0002310E03B460B48194600F096FE084B1B78012B01D0002305E03B681B0B38
:40098000DAB2074B1A70012318460837BD4680BD08001040B081FF1F04001040A481FF1FA581FF1F80B582B000AFFB1D184600F01DFF224B03221A70214B1B78012B0ED08F
:4009C000022B17D0002B23D1FB79012B03D11B4B01221A7020E0194B03221A701CE0FB79002B03D1154B03221A7015E0134B00221A7011E0FB79012B02D0FB79022B03D1D5
:400A00000E4B02221A7007E00C4B03221A7003E00A4B03221A7000BF084B1B78032B08D1084B1B7863F07F03DAB2064B1A70002300E0012318460837BD4680BDB281FF1FB8
:400A4000A581FF1FB081FF1F80B586B000AF03463960FB711346BB8000233B610023FB600023FB82FB791B0603F55743B6333B61BB88013BFB603648396900F03DFE354BB9
:400A80001B78012B01D000235DE03348F96800F033FE304B1B78012B01D0002353E00023FB822CE0FB8A3A6813441B781946FB8A01333A6813441B781B02CA18FB8A0233CE
:400AC00039680B441B781B041A44FB8A033339680B441B781B0613443B61FB8A03F1005303F584731846396900F006FE194B1B78012B01D0002326E0FB8A0433FB82FB8A1A
:400B00007F2BCFD91548124900F0F6FD114B1B78012B01D0002316E01148124900F0ECFD0C4B1B78012B01D000230CE0FFF77CFE03461A460C4B1A700B4B1B78012B01D060
:400B4000002300E0012318461837BD4680BD00BF00010020B081FF1F04010020080010400400104004000080A481FF1F80B584B000AF03463960FB800023FB600023BB6069
:400B8000FB88DBB21A04FB8803F47F431B04134403F55E43B633FB601A48F96800F0ACFD194B1B78012B01D0002327E01748184900F0A2FD144B1B78012B01D000231DE0A0
:400BC000FFF732FE03461A46124B1A70114B1B78012B01D0002311E007F108030948194600F05CFD084B1B78012B01D0002305E0BB6823F070423B681A600123184610378A
:400C0000BD4680BD08001040B081FF1F040010400B000080A481FF1F80B584B000AF0023BB600023FB8100237B60FFF76DFBFFF7D7FBFFF711FBFFF7A3FBFFF739FBFFF7DC
:400C4000BFFBFFF7DDFB00F07BFDFFF7C9FBFFF7A7FD07F10803A520194600F0CFFCFB890133FB813C4B1B78012B02D0FB89132BEDD9FB89142B08D1374B1B7843F0100383
:400C8000DAB2354B1A70002361E0BB68334A934208D0314B1B7843F04003DAB22E4B1A70002354E0A9204FF0A84100F0D1FC2A4B1B78012B01D0002349E0B120002100F0A1
:400CC000C7FC254B1B78012B01D000233FE0A320022100F0BDFC204B1B78012B01D0002335E01F484FF0004100F006FD1A4B1B78012B01D000232AE03B1D1948194600F029
:400D0000CDFC154B1B78012B01D000231FE07B68002B01DB00231AE0FFF786FD03461A46104B1A700F4B1B78012B01D000230EE0FFF7C8FDFFF778FD03461A46094B1A7022
:400D4000084B1B78012B01D0002300E0012318461037BD4680BD00BFB081FF1F7714B10B14000340A481FF1F80B586B000AF0023BB6000233B6100237B6000233B6007F1CA
:400D80000803184600F0EEFC4DF2B6333B613248396900F0B1FC314B1B78012B01D0002355E02F484FF0004100F0A6FC2B4B1B78012B01D000234AE0FFF736FD03461A4661
:400DC000284B1A70274B1B78012B01D000233EE03B1D2148194600F061FC204B1B78012B01D0002333E03B461D48194600F056FC1A4B1B78012B01D0002328E03B681A06AB
:400E00007B6803F47F031A447B681B029BB21A447B681B0ADBB21344FB600023FB7512E0BA68FB68534023F47F03002B08D00B4B1B7843F04003DAB2084B1A70002306E0FC
:400E4000FB7D0133FB75FB7D032BE9D9012318461837BD4680BD00BF08001040B081FF1F04001040A481FF1F80B582B000AF00237B60FFF74DFDFFF795FD03461A463A4BD6
:400E80001A70394B1B78012B01D0002368E0374B1B78002B03D0354B1B78012B2DD14DF6B6537B603248796800F026FC314B1B78012B01D0002353E02F482D4900F01CFCEE
:400EC0002C4B1B78012B01D0002349E02B482C4900F012FC274B1B78012B01D000233FE0FFF7A2FC03461A461F4B1A701E4B1B78012B01D0002333E031E01C4B1B78022BDD
:400F00002DD1204B7B601C48796800F0F5FB194B1B78012B01D0002322E018481A4900F0EBFB144B1B78012B01D0002318E0FFF77BFC03461A460C4B1A700B4B1B78012B80
:400F400001D000230CE0FFF767FE03461A46064B1A70054B1B78012B01D0002300E0012318460837BD4680BDA481FF1FB281FF1F00010020B081FF1F08001040040010401E
:400F80000A000080B6E001000D00008080B500AF4FF400400749FFF7E9FD03461A46064B1A70054B1B78012B01D0002300E00123184680BD9C81FF1FA481FF1F80B5A4B0C3
:400FC00000AF002387F88D300023A7F88A300023A7F88E300023C7F8843000F063FC0346A7F88A300023A7F88E305DE0B7F88E203B1D1046194600F0D7FBB7F88E305B0AA5
:401000009BB287F88D3097F88D203B1D104619468022FFF719FD03461A46294B1A70284B1B78012B01D0002345E0B7F88E30DBB21A04B7F88E3003F47F431B04134403F592
:401040005943B633C7F884301E48D7F8841000F053FB1D4B1B78012B01D000232BE01B48184900F049FB184B1B78012B01D0002321E01748174900F03FFB134B1B78012B36
:4010800001D0002317E0FFF7CFFB03461A460C4B1A700B4B1B78012B01D000230BE0B7F88E300133A7F88E30B7F88E20B7F88A309A429BD3012318469037BD4680BD00BFB1
:4010C000A481FF1F00010020B081FF1F08001040040010400600008080B5C4B000AF0023C7F800310023A7F80A310023C7F8043100F0D8FB0346A7F80A310023A7F80E31A5
:4011000074E0B7F80E31DB01C7F80431B7F80E2107F180031046194600F046FB0023A7F80C3137E0B7F80C21D7F804311A4407F580731046194600F0B1FA324B1B78012B8F
:4011400001D0002359E0B7F80C31D7F80021D1B23A46D154B7F80C310133D7F80021120AD1B23A46D154B7F80C310233D7F80021120CD1B23A46D154B7F80C310333D7F8A2
:401180000021120ED1B23A46D154B7F80C310433A7F80C31B7F80C317F2BC3D90023A7F80C311AE0B7F80C313A46D25CB7F80C3107F588710B4413F8903C9A4208D0114BEB
:4011C0001B7843F04003DAB20E4B1A70002314E0B7F80C310133A7F80C31B7F80C317F2BE0D9B7F80E310133A7F80E31B7F80E21B7F80A319A4284D30123184607F588779D
:40120000BD4680BDB081FF1F80B594B000AF002387F84F30002387F84E30002387F84D300023A7F84A3000237B6400F03BFB0346A7F84A30B7F84A305B0A9BB287F84E30F9
:40124000B7F84A2097F84E30DB0092FBF3F387F84D30FB1C184600F0C9FA002387F84F304DE097F84D103A1D97F84F30084611461A4600F0CBFA97F84D309BB297F84F1036
:401280003A1D084611461A46FFF7DEFB03461A46204B1A701F4B1B78012B01D0002335E0FB781A0497F84F301B06134403F56043B6337B641848796C00F01EFA174B1B7877
:4012C000012B01D0002321E01548164900F014FA124B1B78012B01D0002317E0FFF7A4FA03461A460B4B1A700A4B1B78012B01D000230BE097F84F30013387F84F3097F82D
:401300004F2097F84E309A42ABD3012318465037BD4680BDA481FF1F08001040B081FF1F040010400D00008080B5A6B000AF0023C7F888300023C7F894300023A7F89030C7
:40134000002387F88730002387F88F30002387F89230002387F88E3000F0A4FA0346A7F89030B7F890305B0A9BB287F88E30B7F8902097F88E30DB0092FBF3F387F88F3023
:401380006B4BC7F89430002387F892308BE097F88F1007F1440297F89230084611461A4600F034FA002387F8933043E097F89320D7F894301A4407F188031046194600F062
:4013C0006DF95C4B1B78012B01D00023ABE097F89330D7F88820D2B207F198010B4403F8942C97F893300133D7F88820120AD2B207F198010B4403F8942C97F893300233FB
:40140000D7F88820120CD2B207F198010B4403F8942C97F893300333D7F88820120ED2B207F198010B4403F8942C97F89330043387F8933097F8932097F88F309A42B5D3FB
:40144000002387F893301DE097F8933007F19802134413F8542C97F8933007F198010B4413F8943C9A4208D0324B1B7843F04003DAB2304B1A70002355E097F8933001338E
:4014800087F8933097F8932097F88F309A42DBD397F89230013387F89230D7F8943003F58063C7F8943097F8922097F88E309A42FFF46DAF07F18703184600F097F907F148
:4014C00088031D48194600F0E9F81A4B1B78012B01D0002327E0D7F888301B0EDBB203F00F03DAB2154B1A70144B1B78002B03D1124B01221A7006E0104B1B78012B02D127
:401500000E4B00221A700D4B1A7897F887309A4208D0084B1B7843F04003DAB2054B1A70002300E0012318469837BD4680BD00BF00F0FF0FB081FF1F7CF0FF0FA581FF1FA2
:4015400080B584B000AF0023BB600023FB810023FB8007F108034FF400401946FFF706FB03461A46124B1A70114B1B78012B01D0002318E0BB689AB20E4B1B689BB2D31AE0
:40158000FB81BB1D184600F067F9FB88FA899A4208D0094B1B7843F04003DAB2064B1A70002300E0012318461037BD4680BD00BFA481FF1F9C81FF1FB081FF1F80B400AF30
:4015C000034B1B781846BD465DF8047B704700BFB081FF1F80B500AFFEF7D2FEFEF7F0FEFEF77CFEFEF74EFEFEF70AFF00F0A8F8FEF7F6FEFEF79EFE80BD00BF80B582B069
:4016000000AF03463960FB710E4AFB791370FFF737F80D4B1B78012B00D00FE00B4BDB781A060A4B9B781B041A43084B5B781B021343064A12781A433B681A600837BD4687
:4016400080BD00BFB181FF1FB081FF1FAC81FF1F80B582B000AF03463960FB710D4AFB7913703B681B0EDAB20B4BDA703B681B0CDAB2094B9A703B681B0ADAB2064B5A70B7
:401680003B68DAB2044B1A70FFF74AF80837BD4680BD00BFB181FF1FAC81FF1F80B582B000AF786039608B207968FFF7D1FF114B1B78012B02D00F4B1B7817E09F20396807
:4016C000FFF79CFF0B4B1B78012B02D0094B1B780CE09F203968FFF791FF064B1B78012B02D0044B1B7801E0024B1B7818460837BD4680BDB081FF1F80B582B000AF78601A
:4017000039608B207968FFF7A3FF0C4B1B78012B02D00A4B1B780CE0BB203968FFF798FF064B1B78012B02D0044B1B7801E0034B1B7818460837BD4680BD00BFB081FF1FB6
:4017400080B483B000AF0023FB8002E0FB880133FB80FB88B3F5167FF8D30C37BD465DF8047B704780B485B000AF78600023FB730FE07B681A68FB7B0A49CB5C1946FB7BAB
:40178000DB0001FA03F31A437B681A60FB7B0133FB73FB7B032BECD91437BD465DF8047B704700BFAC22000080B485B000AF03463960FB800023FB810DE0FB893A6813443E
:4017C000F988FA890848C9010A44024412781A70FB890133FB81FB897F2BEED91437BD465DF8047B704700BF3823000080B483B000AF7860044B1A787B681A700C37BD4685
:401800005DF8047B704700BF3423000080B485B000AF03463960FB711346BB710023FB810EE0FB893A681344F989BA79F87900FB02F20A4407498A5C1A70FB890133FB81BB
:40184000FB799BB2FA899A42EBD31437BD465DF8047B7047B422000080B485B000AF78600023FB7314E07B681B8899B2FB7B0C4AD35C1A46FB7BDB0002FA03F39BB20A465A
:4018800013439BB29AB27B681A80FB7B0133FB73FB7B012BE7D91437BD465DF8047B7047B022000080B400AF4FF480631846BD465DF8047B704700BF80B500AF00F088FC8B
:4018C00003461B680C2B00D1FEE7FEE780B586B000AF224B7B61224B3B61204B7B6135E03B691B68FB603B695B68BB603B699B683B6000237B600CE0FB681A68BB681A60D0
:40190000BB680433BB60FB680433FB607B6804337B607A683B689A42EED13B69DB683B6000237B6008E0BB6800221A60BB680433BB607B6804337B607A683B689A42F2D173
:401940003B6910333B617B69013B7B617B69002BC6D100F043FCFEF795FBFEE701000000A023020080B582B000AF174B174A1A60174A174B1B6843F40073136000237B602F
:401980000FE07B68032B04D8124A7B6852F8233000E0114B11497A6841F822307B6801337B607B682F2BECD90D4B1B78DAB20D4B1A700D4B094A1A6000F004F90B4B002295
:4019C0001A600837BD4680BD0CED00E00004FA0514ED00E000000000B91800000080FF1FBC7600400481FF1F08ED00E00081FF1F80B582B000AF78603960786800213A680F
:401A000000F01DFC0837BD4680BD00BF80B584B000AFF860B9607A60F868B9687A6800F003FC1037BD4680BD80B483B000AF0346FB71FEE780B487B000AF786039600023C5
:401A40003B6100237B6127E07B699B007A6813441B68BB60BB68FB73BB6823F0FF03BB6014E03B695B003A6813441B781A46BB68134419463B695B003A6813445B780B708C
:401A80003B6901333B61FB7B013BFB73FB7B002BE7D17B6901337B617B69002BD4D01C37BD465DF8047B704780B582B000AF294B02221A704FF0402308221A70264B03228D
:401AC0001A70264B264A1278D2B21A70254B40F23F221A80244B41F251221A800023FB7019237B6014E0FB785B00DAB21F4B1B78DBB203F00103DBB21343DBB203F00303BA
:401B0000FB704FF4F07000F053FB7B68013B7B607B68002B02D0FB78032BE4D17B68002B02D10320FFF780FF114B4FF480721A800F4B07221A700F4B00221A700E4B4822AF
:401B40001A700B4B00221A700C4B02221A700837BD4680BD0043004000420040A14600400801004922420040204200402542004004400040064000400840004001400040D7
:401B800080B483B000AF0B4B1B78FB710A4AFB7903F00703DBB21370084AFB791B09DBB21370074B44221A700C37BD465DF8047B704700BFCF0100496E5800406F580040F3
:401BC0007658004080B582B000AF72B6334B61221A70FFF769FF314B01221A700023FB7113E0FA7913465B0013445B002C4A13443B603B681A683B689B889BB210461946D7
:401C0000FFF7F6FEFB790133FB71FB79072BE8D94FF090402349FFF70DFF234A224B1B78DBB243F00203DBB21370204A1F4B1B78DBB243F00203DBB213701D4A1C4B1B78E3
:401C4000DBB243F04003DBB213701A4A194B1B78DBB243F01003DBB21370174817490822FFF7D4FE164817490A22FFF7CFFE164816490822FFF7CAFE154A154B1B78DBB231
:401C800043F00803DBB21370FFF77AFF114808490E22FFF7BBFE0837BD4680BD0048004038230200040000480350014013500140A0430040C24300400251004008000048AB
:401CC0001051004010000048225100401C00004822430040B043004080B500AF282000F031FA032000F0D4F9052000F02BFA032000F0CEF90F2000F025FA032000F0C8F9AF
:401D0000012000F01FFA022000F0C2F9052000F019FA062000F0AAF80E2000F0A7F82C2000F0A4F8082000F0A1F8012000F09EF80C2000F09BF8032000F098F8052000F078
:401D400001FA80BD80B500AF0C2000F08FF8024B01221A7080BD00BFA881FF1F80B500AF054B1B78002B04D1FFF7B6FF024B01221A70FFF7E7FF80BDA981FF1F80B582B033
:401D800000AF03460A46FB711346BB71FB79032B26D801A252F823F0A91D0000B71D0000C51D0000D31D0000BB79803BDBB2184600F05CF815E0BB79403BDBB2184600F041
:401DC00055F80EE0BB796C3BDBB2184600F04EF807E0BB792C3BDBB2184600F047F800E000BF0837BD4680BD80B584B000AF78600123FB737B681B78BB730BE0BB7B18464D
:401E000000F01AF8FB7B7A6813441B78BB73FB7B0133FB73BB7B002BF0D11037BD4680BD80B582B000AF0346FB71FB79184600F003F80837BD4680BD80B584B000AF034607
:401E4000FB7100F02DF8FB791B09FB73FB7B184600F0E2F8FB7903F00F03FB73FB7B184600F0DAF81037BD4680BD00BF80B584B000AF0346FB7100F013F8FB791B09FB73AC
:401E8000FB7B184600F004F9FB7903F00F03FB73FB7B184600F0FCF81037BD4680BD00BF80B582B000AF4FF4CA737B60554A554B1B78DBB223F07F03DBB21370524B1B78D7
:401EC000DBB223F00F03FB704F4AFB7843F00F03DBB213704D4B1B78DBB223F00F03FB704A4AFB7813704A4B1B78DBB223F00F03FB70474AFB781370424A424B1B78DBB28D
:401F000023F02003DBB213703E4A3E4B1B78DBB243F04003DBB21370002000F035F9394A384B1B78DBB243F01003DBB21370012000F02AF9374B1B78FB70324A314B1B78AB
:401F4000DBB223F01003DBB21370002000F01CF9FB7803F00803FB702A4A2A4B1B78DBB243F01003DBB21370012000F00DF9254A244B1B78DBB223F01003DBB21370FB7880
:401F8000002B02D10A2000F0FFF87B68013B7B60FB78002B02D07B68002BBDD1194A194B1B78DBB223F04003DBB21370154A154B1B78DBB223F07F03DBB21370124A124B82
:401FC0001B78DBB223F00F03DBB213700F4B1B78DBB223F00F03FB700C4AFB7843F00F03DBB213700A4B1B78DBB223F00F03FB70074AFB7843F00F03DBB213700837BD4604
:4020000080BD00BF205100402251004023510040245100402151004080B582B000AF0346FB711A4A194B1B78DBB243F02003DBB21370164A154B1B78DBB223F04003DBB249
:402040001370002000F0A0F8104A104B1B78DBB223F00F03DBB213700C490C4B1B78DAB2FB791343DBB243F01003DBB20B70012000F08AF8054A054B1B78DBB223F0100343
:40208000DBB213700837BD4680BD00BF2051004080B582B000AF0346FB71144A134B1B78DBB223F06003DBB21370104A0F4B1B78DBB223F00F03DBB213700C490B4B1B78AD
:4020C000DAB2FB791343DBB243F01003DBB20B70012000F059F8054A044B1B78DBB223F01003DBB213700837BD4680BD2051004080B582B000AF0346FB71FB791B09DBB239
:402100001A46084B9B5C1846FFF78AFEFB7903F00F03044AD35C1846FFF782FE0837BD4680BD00BF6823020080B400AF044B1B78DBB2DB09DBB21846BD465DF8047B7047D5
:402140001151004080B582B000AF786008E00C4B1B68184600F02CF87B68A3F500437B607B68B3F5004FF2D8064B1B687A6802FB03F3184600F01CF80837BD4680BD00BF15
:402180001881FF1F1081FF1F80B582B000AF0346FB80FB88044A127802FB03F3184600F007F80837BD4680BD1481FF1F000000000230800803D000BF01380046FCD17047C3
:4021C000EFF3108072B6704780F31088704700BF014B1868704700BF7C81FF1F0E4B70B51E460E4C0025E41AA410A54204D056F8253098470135F8E720F0C0F8084B094CDB
:402200001E46E41AA4100025A54204D056F8253098470135F8E770BD8823020088230200882302009023020010B5431E0A44914204D011F8014B03F8014FF8E710BD034678
:402240000244934202D003F8011BFAE77047000000000000507265737320535749544348205357320000000050726F6772616D6D696E672050536F4334000000485353505D
:4022800020537563636573730000000048535350204661696C2053746570000045727220000000002053524F4D2000000E49119E0AE80000000000000000000000000000CD
:4022C00000000000000000000000000000000000000000000000000000000000000000000000000000000000000000000000000000000000000000000000000000000000DE
:40230000000000000000000000000000000000000000000000000000000000000000000000000000000000000000000000000000000000000100000000400020110000002B
:40234000B10D0000B10D000008B500F0CFFEC04638B51222294B1A6002F0EAF8284801F0EFFF012002F004F9302001F0F9FF254A254B1A60254C8025ED052560244A116819
:4023800002230B431360234A234B1A60234A136808218B431360FA20C00002F095F8204802F088F8BC2292011E4B1A601E4B1F4A1A60FE2212021E490A601E4919601E4971
:4023C0000A601E4A1A60802212061D4B1A608022D2021C4B1A6042221B4B1A60023A1B4B1A6001321A4B1A6008201A4902F012F8082001F0EFFF256038BDC046300010409E
:40240000001BB7000600008004010B400C020B4078002E402D3E00007C002E406CF02E40DC050000080301400000014042FF00800003014040FF00800403014041FF00805C
:4024400008010B4000010B402C01014014010140100101405123000038B572B60022454B1A600132444B1A70002410E0434863001A195200821891881B195B001A5AC3188D
:4024800058880004104300F099FE0134E4B2022CECD9002412E0394DA3001A195200AA18918AD08A00040843131C128B598B09041143802200F088FE0134E4B2002CEAD07C
:4024C0002E49081C2030443100F05EFE8022D2022B4B1A60EE2212062A4B1A60CC229201294B1A60C0229205284B1A6099231B04274A1360274A1360B0210904264A11607C
:40250000264A136080221206254B1A600222254B1A60254B1A60254B1878022101431970234C21783C2081432838014321701878162101431970D82109041E4B19600E2124
:402540001D4B19601D491E4B19601E4B1A60A9321D4B1A601D4A1E4B1A6029221D4B1A6001231D4A13601D4A1360FFF7F1FE00F04FFE38BD6CF02E401C700F40A4280100BA
:4025800014000B4000000240000202400003024000500F4020500F4028500F4030500F4038500F402000104000800F4000700F4001700F400800044000020440806D0300E6
:4025C000080204401802044000030440B061D8000803044018030440000404401804044010B5064C2378002B07D1054B002B02D0044800E000BF0123237010BD28060020EA
:40260000000000005823010008B5084B002B03D00748084900E000BF07480368002B00D108BD064B002BFBD09847F9E700000000582301002C060020C8000020000000009A
:4026400008B500F01FFF00F0CDFA00F09DFA00F06FFA0020002100F029FB012000F034FB002000F037FB012000F026FB084800F0E3FC084800F0E0FC00F05AFA012000F05F
:4026800023FB002000F026FB00F052FA08BDC046802301009423010008B562B6FFF7D0FF01F09AF901F0DAF9344801F01FFC02F042FC01F0EFF800F0B9FF0028FBD101F069
:4026C0005DFA01F0D5FA0028F1D0002001F068FA002808D02A4A117801230B431370012000F0AAFD07E0264A137801218B431370002000F0A1FD012001F052FA002808D05C
:402700001F4A117802230B431370012000F0A0FD07E01B4A137802218B431370002000F097FD022001F03CFA002808D0144A117804230B431370012000F096FD07E0104A07
:40274000137804218B431370002000F08DFD032001F026FA002808D0094A117808230B431370012000F08CFDA1E7054A137808218B431370002000F083FD98E7310D0000EF
:402780004315002083B27F2B3FD800293DDB1F293BDC012A04D0002A14D0022A24D034E0CB175B0F5B18DB10DB011B1817480130C01807231940063B8B40191C037819430E
:4027C000017022E0CB175B0F5B18DB10DB011B180E480130C01807231940063B8B40191C03788B43037010E0CB175B0F5B18DB10DB011B1805480130C01807231940063B0B
:402800008B40191C0378594001707047CC000020F0B5474680B406AC258890426AD1CC17640F6418E410E4012018474F01373818DC17640FE418E410E401A218BA18041CB6
:4028400055E084421BD1414E0E4004D5013E08277F423E430136F6B2B046F7187F1AFFB2062F00D907274646BF1B01370126BE40371C013F3E1C4746BE40F6B20FE09442F9
:402880000DD1324E1E4004D5013E08277F423E43013636B20127B7403E1C013EF6B2844201D0944212D1012D04D0002D06D0022D08D01BE027783743277017E02778B743BD
:4028C000277013E02778774027700FE0012D04D0002D05D0022D06D008E0FF27277005E00027277002E02778FF43277080349442A7D926E0CB175B0F5B18DB10DB011C18FD
:40290000114B01331B19121A9A180720014006388840011CC4B212E0012D04D0002D06D0022D08D00AE018782043187006E018788843187002E01878604018700133934225
:40294000EAD904BC9046F0BDCC0000200700008010B50A88124B1B78022B0BD0032B16D0012B1BD103880B800E4B1B889A1A013A028013E002880B4B1B889B1A013B0380F6
:402980000A88094B1B889B1A013B0B8006E00488054B1B881B1B013B0B80028010BDC04646150020441500204815002070B584B008AC25880E246C44208003AC21800A2133
:4029C00069440A8002A90B8083B291B2824208D0221C0020105E02AA0024125F904200D08FE0494A1278012A01D0032A25D11AB2002A00DA85E0454A12881BB210B283424A
:402A000000DB7EE00BB2002B00DA7AE0834200DB77E003AB1B881AB2002A72DB3C4A12881BB211B28B426CDA02AB1B8819B2002967DB12B28A4221DC63E003AA128810B294
:402A400000285EDB3148008812B204B2A24258DA02AA128814B2002C53DB00B2A04250DD1AB2002A4DDB2A4A12881BB210B2834247DA0BB2002B44DB834242DA0E266E44CE
:402A8000301C03A9FFF764FF0A246C44201C02A9FFF75EFF3388228818B211B2884207D102A90020085E03A90024095F88420BDB03A90020085E02A90024095F88420FD1ED
:402AC00019B210B281420BDD0E2169440A800A226A44138003AA118802AB1888108019800E236B440020185E03AB0021595E0A236B4400229A5E02AB00241B5F0095FFF747
:402B000087FE04B070BDC04646150020481500204415002010B5041C002000F01BFD201C00F0FEFB00F0E2FBC307FBD510BDC04610B52120FFF7EEFF0020FFF7EBFF7F20C4
:402B4000FFF7E8FF2220FFF7E5FF0020FFF7E2FF0320FFF7DFFF012000F0FCFC00240AE0074B0133185D00F0DBFB00F0BFFBC307FBD50134A4B2034B9C42F1D910BDC046FE
:402B8000CC000020FF01000010B5054C601C00218022920002F0BCF94023237010BDC046CC0000200A4B18800A4B19800A4B18805980002209490A709A80DA8001321A7224
:402BC0000121494259819981054B1A707047C046441500204815002044060020461500204A15002008B580202021FFF7DBFF002000F0A4FC0A2001F045FC012000F09EFC1E
:402C0000012001F03FFC002000F0A4FCAE20FFF781FFD520FFF77EFF8020FFF77BFFA820FFF778FF1F20FFF775FFD320FFF772FF0020FFF76FFF4020FFF76CFF8D20FFF7BB
:402C400069FF1420FFF766FF2020FFF763FF0020FFF760FFA120FFF75DFFC820FFF75AFFDA20FFF757FF0220FFF754FF8120FFF751FF8F20FFF74EFFD920FFF74BFFF12032
:402C8000FFF748FFDB20FFF745FF4020FFF742FFA420FFF73FFFA620FFF73CFF2E20FFF739FFAF20FFF736FF08BDC046014B9880D980704744060020002800D10130014B87
:402CC0001872704744060020014B58819881704744060020014B58817047C0464406002070B582B0141C6B46D88001AB198083B200281EDB1BB2104A0021525E934218DA94
:402D000001AB1B881AB2002A13DB131C0A4A0221525E93420DDA6B469E1D01AD301C291CFFF716FE0023F05E0023E95E221CFFF729FD02B070BDC04644060020F0B55F46CB
:402D400056464D464446F0B485B0041C0E1C171C0EAA12880392B84201D0994207D1039A0092201C311C3A1CFFF720FE51E0581AC21780185040391BCA178918514001228F
:402D8000884200DC0022D2B292B29046002A05D03A1C1F1C131C221C341C161CBC4205DD321C1E1C131C221C3C1C171C3A1B92B292469A1BD11752184A409146524612B299
:402DC000D50FAA18521095B29E4202DA01239B461DE0134B9B461AE04346002B05D0301C211C039AFFF77CFF04E0201C311C039AFFF776FF4B46ED1AABB29DB22AB2002AAE
:402E000003DA5E4436B253449DB2013424B2BC42E2DD05B03CBC90469946A246AB46F0BDFFFF0000F0B54F464646C0B483B0051C0E1C171C98460AAB1B88994690450FDCD7
:402E40000C1C1EE04346F318013B1BB24A460092201C311C221CFFF771FF013424B200E0041CEB199C42EDDB0FE0EA19013A12B24B460093281C211C231CFFF75FFF01342D
:402E800024B24346F3189C42EFDB03B00CBC90469946F0BDF0B55F4656464D464446F0B485B00EAC2488A3460FAC2778394C0025645FA04267DA374C0225645FA14262DA82
:402EC0007C00E41964000419012C5CD4FC000C19012C58D4984603928A46814600264FE0052E07D0039A93009A1873B2D3182A4AD55C00E0002500243DE0EB071BD5012FA9
:402F000009D170B2484400B261B2514409B24246FFF7E6FE2CE0BBB270B25843484400B261B25943514409B21BB2424600921A1CFFF778FF1CE0C3451AD0012F09D170B27B
:402F4000484400B261B2514409B25A46FFF7C8FE0EE0BBB270B25843484400B261B25943514409B21BB25A4600921A1CFFF75AFF6D080134E4B263B2072BBEDD0136F6B27A
:402F800073B2052BACDD05B03CBC90469946A246AB46F0BD44060020A823010030B583B00A2808D11B4B1A7AD200D9885218DA8000229A802CE00D282AD0021C154C0423E4
:402FC000E05E0623E15EA38965890095257A0195FFF760FF227A90B2410041184D00A388EB189BB2A3800C490978002910D01BB29100521A520007490024095F8A18934241
:4030000006DD044BC000DA888018D88000229A8003B030BD440600204A15002070B5061C01F07EFF051C002403E0305DFFF7B6FF0134AC42F9D370BD08B5FFF7EFFF0A208B
:40304000FFF7ACFF08BDC04600B585B001AB1A8101909980181C0021024A40230CF024FF05B000BD1821002000B583B0282807D04C2813D0012833D1002000F079FF2FE0F1
:4030800001A80023037043708370C37004210E22FFF7DAFF002000F06BFF21E08B890E2B17D14A68117801AB19705178597091789970D278DA70FF2A03D1012000F0D4F8A2
:4030C00002E0002000F0D0F801A804210E22FFF7BBFF044A13785078000218430CF0B2F903B000BD18210020FEE7C04670B50F4E0F4D13E029686B68AC68002202E001C9F8
:4031000001C30432A242FAD1E868002202E0002102C304328242FAD11035013E002EE9D101F0B8FEFFF7B8FAFEE7C04601000000DC30010008B50F4A136801218B4313603F
:4031400000230AE0032B03D89A000B49505800E00A4899000A4A885001332F2BF2D9FFF77BF90022074B1A60024A116801230B43136008BD0000104000000000B10D00007E
:4031800000000020C0000020F0B50025002711E0BB00C658F3B2FF22964308E06A008A181478A419527822700135013BDBB2002BF4D10137082FEBD9F0BDC04608B50A1C64
:4031C000002101F0A5FE08BD08B501F098FE08BD0C4B1B68002803D080221206134301E05B005B08074A1360074B1B68002803D080229204134301E0044A1340024A136065
:403200007047C04680033A4008010B40FFFFFFFD08B50323054A1360054A13600022054B1A600120FFF7D4FF08BDC0463000304030003140000E3F4004490A68DF231A4095
:403240004001BF3B18401043086070470002044004490A68EF231A400001DF3B18401043086070470002044004490A68BF231A4080017F3B18401043086070470003044066
:4032800004490A68FB231A408000F73B18401043086070470003044008B5012001F09AF808BDC04608B501F054F80A4A117820230B43137008490A7810231A43D2B20A709C
:4032C000064A11780B43DBB2137001F046F8FFF7E3FF08BD93000F4092000F4090000F4008B5012001F080F808BDC04610B5FFF7F7FF064B1978064A147809231C400C43D1
:4033000000231370FFF7C8FF201C10BD62000F404C150020014B1878C0B2704760000F4010B5041C294B1B78DBB2002B02D0013BDBB200E07F23264A1278D2B29342F1D066
:40334000FFF7CEFF234B187823490B780922134003430B701D4B1B781D4A1278DBB2934205D10B785B0702D51C4B1C702BE0184A13780133DBB2137013785BB2002B02DAB0
:403380000022134B1A70124B1B78104A1278DBB293420ED10D4A13780133DBB2137013785BB2002B02DA0022084B1A7001220C4B1A70074B1B78DBB20A4AD4540A4A11785B
:4033C00004230B431370FFF767FF10BDD3150020D115002062000F404C15002043000F40D01500205015002082000F4008B501E0094B1B78094B1B789B06F9D400F0A9FF0D
:40340000074B197801220A431A701A7801218A431A7000F0A2FF08BD53000F4060000F4093000F4010B50F220F4B1A70012000F0DBFF0120032100F0FFFF01200B4900F0BE
:40344000E9FFFFF7D3FF0024094B1C70094B1C70094B1C70FFF74AFFFFF75CFF074B1C70074B1C7010BDC04683000F406D110000D0150020D3150020D115002082000F4085
:4034800080000F4008B5064B1B78002B04D1FFF7C9FF0122024B1A70FFF704FF08BDC0465206002026E01D4B18781D490B780922134003430B700B785B0722D5194B1B78AF
:4034C000002B0CD1184A13780133DBB2137013785BB2002B06DA0022134B1A7002E00022104B1A70104B1B78DBB2104AD35CDBB20F4A13700C4B1B780E4A1278DBB2934262
:40350000D1D1094B1B780B4A1278DBB2934204D1094A137804218B431370704762000F404C150020D0150020D31500205015002043000F40D115002082000F4004490A68F5
:40354000FD231A404000FB3B18401043086070470003044004490A68EF231A400001DF3B18401043086070470003044038B5164C2368DBB2154A13700F208343191C144D1F
:403580002A780F2313400B43F02293431A1C2B788343134323600F4A0F4B1A600F4A104B1A6010490B688343062213430B60013000F01AFF10200C4900F02CFF1020032132
:4035C00000F03AFF38BDC04600FF2840D415002062F1FF0F00020001080028400008A00104002840000402405919000008B500F089FE00F05DFE0020002100F065FE002063
:40360000002100F08BFEFF2000F044FE402000F06BFE044A136804490B431360102000F0D9FE08BD0400284000100880024B1878012318407047C046540600204000024B32
:40364000181880887047C04654060020F8B5104F3C5C3818027955005519EDB29200D6B200F077FEA4003B199C6822680F21B1408A43111C0422B2400A435E6A33680721FA
:40368000A9408B433360226000F067FEF8BDC046CC2A0100F8B519490C5C0B181E79B200D2B275007519EDB2154B185CA300CB189F683B680F2191408B433B60022800D1C5
:4036C0000020012801D1002700E0062700F041FEA4000A4B1C19616A0B680722AA4093431A1C3B1CAB4013430B6000F036FE216C0B680122B24093430B60F8BDCC2A010098
:40370000EC15002010B5002403E0201CFFF7C2FF0134032CF9D910BD03231840024B1A68400210431860704704002840CA0807231940063B8B40191C835C194201D0012067
:4037400000E000207047C04610B5041C0134E4B2042C06D004481030211CFFF7E7FF0028F4D0201C10BDC046D0020020F8B5041C324B5C331B5C9B00314A9E583148211C32
:40378000FFF7D4FF304B9E4203D88640FF200004064300F0B7FD00F08BFD2C4B185D013880B2002100F090FD294B185D013880B2002100F0B3FDFF2000F06CFD402000F0EA
:4037C00093FD102000F010FE80225202214B1A60204B1B681B0CFBD101221F4B1A60102000F00CFE102000F0F5FD102000F0FCFD1A490A681A4B1A401A4B185D1A4B1B5DA7
:403800001B04034313430B60184F3D68184B1D40184B1D43102000F0DDFD201CFFF716FF00F097FD041C3D60002000F089FD094B1E60201C00F091FDF8BDC046CC2A01007D
:40384000D0020020D8150020FFFFFEFFF0150020E01500200C002840140028400800284000FF80FFE4150020E815002004002840FF1FDFFF2000200008B5054B00221A709F
:40388000C2B21A7381221A70FFF770FF08BDC0465406002010B50B4C00232370FF332373207BC0B2FFF750FF2073237BDBB2032B07D8217801220A432270207BC0B2FFF7DB
:4038C00055FF10BD5406002038B5051C174B1C68A4B24300164AD3189C80164B5C331B5C9B00154A9A58154B9A4208D81448291CFFF71CFF6B000E4AD31804419C80281CC5
:40390000FFF7C8FE102000F06FFD0E4A11680E4B0B40A02109020B4313600C4A11680C4B0B401360102000F055FD38BD0C00284054060020CC2A0100D0020020FFFFFEFF20
:40394000D815002004002840FF1FDFFF0800284000FF80FF10B5CC0807231940063B8B40D9B2002A04D0041923781943217003E0041923788B43237010BDC04670B5061C78
:40398000002400250BE0301CFFF776FFFFF74EFE0128FBD0301CFFF751FE24180135002DF1D0A0B270BDC046014B19547047C046EC15002010B5002404E0201C0021FFF7B9
:4039C000F3FF0134032CF8D9FFF7D0FD0020FFF7A3FEFFF797FE10BD08B50B4B5B7B002B04D1FFF7E7FF0122074B5A73FFF7FEFD00F014FA0122044B9A73044A13688021EF
:403A0000C9030B43136008BD540600200400284010B5084B1B5C4100074A8C5A074A8C5210180021017201730549C95CD318197410BDC046282B01005806002064060020CE
:403A4000F402002010B5041CFFF716FFFFF7EEFD0028FBD1201CFFF7DBFF10BD10B5002403E0201CFFF7EEFF0134032CF9D910BDF0B54F4680B482B0041C344B1B5C99460F
:403A8000334B4A469B5C0193324A4500AE5AC1B2314800F00BFF314BE95AB14206D800222F4B1A55751AADB2012702E08D1BADB20027002F16D12B4B4A469B5CAB4211D21A
:403AC000274B1B5D284A12191279934206D3201CFFF79EFF0022224B1A551EE00133204A13551AE06B469B88AB4206D21D4B4A469B5CAB4211D9002F0FD10A02174B9C467D
:403B00001819037A1343F3185B1A190A62006646B15203720022124B1A556B469E88AE420CD2002F0AD0FF2D04D90C4B1C19FF23237307E0094B1C19257303E0074B1C19FD
:403B40000023237302B004BC9146F0BD282B0100F4150020580600202C16002064060020F8150020FC150020F402002010B5041C00F0DCF8201CFFF77BFF10BD10B5002430
:403B800009E00648211CFFF7D1FD002802D0201CFFF7ECFF0134032CF3D910BDE0020020F0B5474680B4041C224B1D5C224B5F5D224B5E5D224B5B5D984622481830211C08
:403BC000FFF7B4FD002810D01E4B1B191B7BBE1BB34223DA1B4E301C1830211C0022FFF7B9FE751943462B7418E0164B1B191B7BBE19B3420EDB134B5D192B7C013BDBB23D
:403C00002B74002B0AD10F481830211C0122FFF7A1FE03E00B4B5D1943462B7409481830211CFFF783FD002800D0012004BC9046F0BDC046282B0100041600200016002002
:403C4000F40200206406002070B5084B1A1814791D5C2D190026201CFFF7A2FF002800D001260134AC42F6D3301C70BD3C2B010038B50025002406E0201CFFF7E5FF00286F
:403C800000D001250134032CF6D9281C38BDC04610B5102000F0A8FB01221E4B1A601E4B1878C0B2FFF710FE1C4B1B785BB2002B05DA1A4A137801218B43137026E0164CC4
:403CC0002078C0B2FFF740FD20702378DBB2032B05D8114B1878C0B2FFF748FD16E00F4B1A7801218A431A701B785B060ED500220B4B1A7006E00B4AD15C0B4AD1540133E1
:403D0000074A1370064B1B78002BF4D0102000F061FB10BD14002840600600205406002080060020DC150020E002002070B582B0154B1C5CC1B2154E154D00951548221CC7
:403D4000331C00F031FE335D295D134A1155DB2B03D8DB08114A135514E0EC2B03D81B090E4A13550EE0F42B03D85B090B4A135508E0F92B03D89B09084A135502E0002259
:403D8000064B1A5502B070BD282B010004160020F41500202C160020FC15002000160020024A136840218B431360704704002840044A1168044B0B40802189000B4313600C
:403DC0007047C04608002840FFFCFFFC38B5002208E00D498B5C5D080C4CA55401335B088B54013203789342F3D8102000F0FCFA074A1168074B0B4007490B431360102034
:403E000000F0E8FA38BDC046E4150020E815002008002840FFFCFFFC0002000138B5204B04221A705A709A702C32DA801D4A9A801D4A9A60FFF7B4FF002304E099001B48F4
:403E40001B4A88500133164A52789A42F6D8002306E01021174AD1540C39174AD1540133032BF6D9FFF7A4FF0D4C144D201C291C00F07CFC201C00F08AFC201C291C00F0E2
:403E800075FC201C00F0A4FC201CFFF79FFF002403E0201CFFF74AFF0134032CF9D938BD2C16002098090000442B01000000FF0FD0020020E0150020F01500209A0D0000F4
:403EC00008B500F0E5F908BD08B50023044A1370044A1370044A1370FFF7F2FF08BDC0461B210020142100201A21002010B58AB0041C04A81549182201F001F8144B1B7822
:403F0000002B04D1FFF7E0FF0122114B1A70002C19D0104B1C60062300930F4B01936E23FF3302930D480E490E4A04AB01F01AF8002809D101220C4B1A700C480F210F3234
:403F40000BF09AFF00E001200AB010BD002C0100810600204016002080370100991D000048160020C80A000012210020002E010008B5022832D81D4B1B78042B30D11C4B18
:403F80001B785B072FD400280BD11A4B1A1C4032002111828022596C0A805B6C20325A800EE001280CD1134B1A1C403296211182C822D200596C0A805B6C8022D2015A80FB
:403FC0000D4B18700B4840300AF0B0F800280CD1074A117804230B43137006E0012004E00420FF3001E00420FF3008BD122100201B210020000300201A2100207047C04684
:4040000003784078000218437047C04638B583890B2B20D1041C04300021221C35330BF043FF051E11D16068FFF7EAFF830706D50A4B1B6882204000211C984705E0074B9D
:404040001B680620FF30211C9847054A137801218B43137000E00025281C38BD401600201B210020024B00225A701A707047C046182100208379002B07D000200BE0C25CEF
:40408000002A07D10133DBB200E00023052BF6D9002000E00120704710B582B0041CFFF7B5FF0A4B1B78DB070ED4002809D001A912238B70A3890B80C87020680BF05CF954
:4040C00002E020680BF0BEF902B010BD1B210020F0B583B0051C0C1C5F4A117801230B4313704C2800D9A5E083005C4AD3589F4601AE0727377000237370301C02F077FB3C
:40410000377001237370301C02F071FB544B1E68301CFFF7AFFF00280CD0301C00F010FF4F4E30680021FFF769FF30680121FFF765FF14E04B4B1B784B4E33704B4B1B7879
:4041400073704B4B1B78B370301C00F0F9FE301C0021FFF753FF301C0121FFF74FFF032009F0A6FE0422434B1A7063E02278424B1A705FE0384B1B789B065BD43F4B1B7842
:40418000102B02D105223D4BDA703D4B18783B4909F096FF4EE00222364B1A704AE00422344B1A7046E0334B1B78022B42D02A4A1278D2073ED5284A1278520708D5032261
:4041C0002C4B1A70244A137804218B43137031E0214A1278120708D50422264B1A701E4A137808218B43137024E0032B22D10422204B1A701EE0224E301C211C022200F07A
:404200007EFE3178B43149001E4B591805311E48022200F074FE0DE0FFF724FF0AE06188162900D9172120880BF0B2F802E0201CFFF732FF084B1A7811231A4209D0064AD6
:40424000137801218B431370104B1B68281C211C984703B0F0BDC0461B210020542F0100540300207CF1FF0F580300207DF1FF0F7BF1FF0F1221002014210020EC030020A2
:40428000182100208037010010210020401600207047C046044B1B68002BFBDB0002034B1843014B186070470000014040000080034B1B68002BFBDB024A014B1A607047D4
:4042C000000001404000004010B5064A13680724234000021843CB00FF2119400143116010BDC04600030140044B1B68002BFBDB0002034B1843014B186070470000014038
:4043000041000080034B1B68002BFBDB024A014B1A607047000001404100004010B5064A13680724234000021843CB00FF2119400143116010BDC0460403014000000000D0
:404340000230800803D00138FDD1C046C046C0467047EFF3108072B6704780F31088704710B586B0041CFFF7F4FF0E4B1B6800930D4B1B680193033C0C4B1B5D02930C4BF1
:404380001B68039304AA0B4B04936B4605930A4B1A600A490A4A11601B68FFF7DEFF06B010BDC04608010B4000010B408830010030001040B6EA00000800104017000080D2
:4043C00004001040024B1B68012018407047C0460C002E401F2318401E3B8340181C014B1860704700E100E01F2318401E3B8340181C014B1860704780E100E01F23184083
:404400001E3B8340181C014B1860704780E200E001BE704738B5041C0D1C1F2802D90020FFF7F6FFA400034B9C4664442068256038BDC0464000002070B5041C0E1E032E10
:4044400002D90020FFF7E4FF1F2C02D90020FFF7DFFF03252540ED000635FFF77AFFA408A400074B9C46644423680322AA409343AE40351C1D432560FFF76FFF70BDC046D3
:4044800000E400E010B5041C06E0084B1868FFF757FF074B9C46644480231B029C42F4D8024B58686043FFF74BFF10BDF00300200080FFFF08B5034B1B7A5843FFF740FF4A
:4044C00008BDC046F003002010B5041C0F4A116801230B4313600E4A0E4B1A600E4A1368802109020B431360002809D100200CE00120FFF7DFFFFFF765FF002804D1013C40
:40450000002CF5D1102000E0002010BD60F02E400220000078002E4010002E40034B1868C0231B02184000D00120704700010B4010B50D4B1A6801218A431A601A68022082
:4045400082431A60094A10683024A043203C204310601068093CA043014311601A68802109060A431A6010BD00F02E4000FF2E4038B51D4B1B6801241C40002802D0012869
:4045800016D02BE0184B19680122914319601968022081431960154B19682E3081432038014319601968093881430A431A6018E00D4B1A6802218A431A600C4A106807253B
:4045C000A84301431160116830208143103801431160196801220A431A6002E00020FFF717FF201C38BDC04600F02E4000FF2E4008B5FFF7AEFE044A1368C02109020B43B4
:404600001360FFF7AAFE08BD00010B4010B5FFF7A0FE08490A68084B1A408024E40122430A600A6813408022120213430B60FFF794FE10BD00010B40FF3FFFFF70B5061CD7
:40464000FFF787FE041CFFF769FF002803D0FFF7DDFF012500E000250848331C0340084A106808490840184310601368012D01D1FFF7BEFF201CFFF770FE70BD0404040032
:4046800010020B40FBFBFBFF10B5244B1B685B0715D5234B1B685B070ED5224B9969042001401F4C22688A4322609A6982439A61DB68002B00D098470420FFF7BFFF174B42
:4046C0001B685B0518D5164B1B685B0510D5154B99698022D2001140114802688A4302609969114A0A409A611B69002B00D098478020C000FFF7A2FF084B1B685B030CD59C
:40470000074B1B685B0304D5064B5B69002B00D098478020C002FFF791FF10BD10020B400004002084060020FFFBFFFFF7B59C180023071C082680250191009223702378DB
:4047400000982B432370BB689B6C9847019B984202D22378AB432370013E6D08002EEED12378F82B01D9F8232370F7BD70B5051C0E1C00242B789C4208D2AB68221C281C12
:40478000311C1B68FFF7D2FF0134F3E770BD38B5051C00242B789C4219D2AA6813681B5DDB080F2B00D90F23D16BD268C95C1155AA68042B04D9936D906B211C012203E0FE
:4047C000936D906B211C002298470134E2E738BDF0B5041C002687B063789E4262D2A3685A6C925D0392002A01D1013203921A6C925D019201992278914251D29A689B692B
:40480000515C0F221140B2000492002205910499019D5A50019B5B000293039B019A9B189D423DD2A768E388A0885843FB68595D00F03EFA3B68595D00F0AAF9059B584359
:40484000194B40005A2802D95B084008FAE7BA6904991B0C1B045350A36882085B6B01215855A368C008DB69029F5A550F22A36849421B6A5855A3685B6A5A55A368986AEC
:40488000C1530021D86AC153186B9B68C1535B19197801350A401A703B1C02330293BCE7013699E707B0F0BD0000FFFFF0B585684E002B6B925B9B191C8887B0141B009432
:4048C000AC6A1A80A45B6B6A0294EC6A5F5CA45B2B6A03946C6B7F00645C5B180494AC680193645C1B780594009CE40FA4460F24251C6744009C3D40AC46E51764196C40E5
:404900009C4203D2012B05D0013B00E00133FF273F2B00D89F00019D2B7065460F2D29D0002D24D0BC4225D8059C029F24090094974200D9171C039D954200D2151C009A3B
:40494000092A01D8141C01343A1C0A2C14D1EA1B934206D9049A92089A42924152429B1A00E001338268D26953543A1C04E0151C644601E0151C00246746836824015B6ABF
:404980005F5483689F6ABA53DA6A9B6895530F225B181D782A401A7083689B6859180B781C430C7007B0F0BD70B58068446BC069655C405CFF213F2801D88100C9B246B230
:4049C000FF24002E01DB4000C4B28D4201D9291C6C08012081439954049B9C5470BD00000160704701607047244B1A781202244B1B781A43234B1B781B02234909780B43E7
:404A000022498B4201D1072A06D0D42109018B4206D1042A04D102E01D4B042200E01C4B1C490B601C4B1A601C4B1B781B021C4A1278134380229201934202D0002B02D021
:404A400002E0184B00E0174B174A1360174B1B781B02174A12781343164A934205D0164A934204D0052B05D103E0144B02E0134B00E0124B124A13607047C046D9F0FF0F4D
:404A8000D8F0FF0FDFF0FF0FDEF0FF0F580B0000580D00006C002E4074002E40DBF0FF0FDAF0FF0F0220000078002E40DDF0FF0FDCF0FF0F0F0F000005050000050F000039
:404AC00080002E4008B5FFF7F5FC08BD08B500F02FF808BD08B500F033F808BD08B500F02FF8034800F00EF8002000F011F808BD5128000008B5024800F02AF808BDC046D9
:404B000051280000014B18677047C0460000002010B5041CFFF71DFC044A1368C0218B43A4011C431460FFF718FC10BD0CE400E080225201014B1A607047C04600E100E090
:404B400080225201014B1A607047C04680E100E010B5041CFFF7F4FF201CFFF7D3FF0020FFF7D6FFFFF7E4FF10BDC04608B5FFF7F0FB044A136804218B43136030BFFFF761
:404B8000ECFB08BD10ED00E008B50FF06DFD08BD002243088B4274D303098B425FD3030A8B4244D3030B8B4228D3030C8B420DD3FF22090212BA030C8B4202D3121209029A
:404BC00065D0030B8B4219D300E0090AC30B8B4201D3CB03C01A5241830B8B4201D38B03C01A5241430B8B4201D34B03C01A5241030B8B4201D30B03C01A5241C30A8B4284
:404C000001D3CB02C01A5241830A8B4201D38B02C01A5241430A8B4201D34B02C01A5241030A8B4201D30B02C01A5241CDD2C3098B4201D3CB01C01A524183098B4201D3FC
:404C40008B01C01A524143098B4201D34B01C01A524103098B4201D30B01C01A5241C3088B4201D3CB00C01A524183088B4201D38B00C01A524143088B4201D34B00C01A96
:404C80005241411A00D20146524110467047FFE701B5002000F0FCF802BDC0460029F7D003B5FFF775FF0EBC4243891A1847C04603460B437FD4002243088B4274D3030908
:404CC0008B425FD3030A8B4244D3030B8B4228D3030C8B420DD3FF22090212BA030C8B4202D31212090265D0030B8B4219D300E0090AC30B8B4201D3CB03C01A5241830B33
:404D00008B4201D38B03C01A5241430B8B4201D34B03C01A5241030B8B4201D30B03C01A5241C30A8B4201D3CB02C01A5241830A8B4201D38B02C01A5241430A8B4201D345
:404D40004B02C01A5241030A8B4201D30B02C01A5241CDD2C3098B4201D3CB01C01A524183098B4201D38B01C01A524143098B4201D34B01C01A524103098B4201D30B0187
:404D8000C01A5241C3088B4201D3CB00C01A524183088B4201D38B00C01A524143088B4201D34B00C01A5241411A00D201465241104670475DE0CA0F00D04942031000D3AF
:404DC0004042534000229C4603098B422DD3030A8B4212D3FC22890112BA030A8B420CD3890192118B4208D3890192118B4204D389013AD0921100E08909C3098B4201D319
:404E0000CB01C01A524183098B4201D38B01C01A524143098B4201D34B01C01A524103098B4201D30B01C01A5241C3088B4201D3CB00C01A524183088B4201D38B00C01A12
:404E40005241D9D243088B4201D34B00C01A5241411A00D20146634652415B10104601D34042002B00D54942704763465B1000D3404201B5002000F00BF802BD0029F8D065
:404E800003B5FFF715FF0EBC4243891A1847C0467047C0460E4B70B500251E1C0D4CE41AA410A54204D0AB00F35898470135F8E710F09EFA084B00251E1C084CE41AA4103F
:404EC000A54204D0AB00F35898470135F8E770BDC4300100C4300100C4300100CC30010030B50024944208D0035D651C0C5DA34201D0181B02E02C1CF4E7002030BD0023E5
:404F000010B5934203D0CC5CC4540133F9E710BD031C8218934202D019700133FAE770470023C25C0133002AFBD1581E704710B501F0FEFB10BD10B500F068F910BD000037
:404F400010B50749044609780220002907D1204601F00FFC002802D1204609F093F810BD0E050020FFB585B0002568460E9F057339481C460078002802D0082009B0F0BD23
:404F800010990F9801900097029105A807C800F067F80028F2D10120694603AA0D73002C1BD0002113E08B00E55A082D09D91E19B678002E05D0083DE55213785B1C1370BE
:404FC00003E0042901D2012003E0491CC9B2B942E9D31178042900D300200028CED110990F9800F057FF002801D00120C6E701F09FFB1A480599016021888180A188C18066
:40500000A27A0272A17B4172A089012540084843A0810220A073208950432081A5726846037B22460799069800F0A2F80028A5D16846094C007B607001F082FB00289DD159
:40504000064806F0F5F9002898D106F011FA002894D1257092E7000004040020A0060020FFB53A4F1C4603463F780020364A0A9E0B9D002F12D100290FD0029991420CD3ED
:40508000002B0AD0002C08D00999042905D3002E03D0FF216E318D4202D2012004B0F0BD00210A460D463FE08B001E19B678002E36D0E35A002B33D073435B199DB20B0065
:4050C00000F048F806040E15191D253F2388FF27A678233BEB37BB42DFD2032EDDD31FE0A3880C2BD9D91A4EB342D6D818E02389302BD2D114E0A389482BCED110E0228A2D
:40510000134E1346233B223EB342C6D208E0A38A0F4F1E46233E223FBE42BED29342BCD80028BBD1491CC9B2099B9942BCD319461C2251434A190449521802998A42ACD800
:40514000ACE70020EEE70000D808000004040020DCFF000030B47446641E2578641CAB4200D21D46635D5B00E31830BC18470000FFB50F4606460024384381B01D468007F5
:4051800001D0012438E0FFF7B5FCFFF7A3FC00F097FA00282ED100F0D3FB00282AD11849084600F0ABFE0004000C23D13000154E04D03060B7800020F0803581AD1DEFB2F1
:4051C0003946039800F046F804000ED1B088F2880837801AF9B280B201F080F9002801D0012407E0E8B200F019F900F031F906490120087000F076FA204605B0F0BD0000E7
:4052000009300000AC0600200604002010B503480078012801D101F003F810BD0604002070B5084B0446DA889E8800205518B54206D81D68AA182260DA885118D98070BD0D
:40524000032070BDAC0600200148008970470000AC060020F0B587B007460D4600208900009006916846FFF7DBFF844600285DD1304800990160002117E02E4B88001A68BA
:405280000629115406D22C4C0419667882185670628805E0C419203CA67A8218567022891B68C018491C4280C9B2A942E5D300242DE0601CC2B2059025E01E4FA300396870
:4052C0009600581840887118039604904E88B04217D938466F46FE80B6464F786E4677710297049F4F800168039F5E18767879184E700168764659184E800068029F1818FC
:405300004770521CD2B2AA42D7D30598C4B2AC42CFD36046002809D168460699FFF780FF8446002802D1054900980860604607B0F0BD000008040020F03001000C04002087
:405340007047000010B5002809D005494A68002A05D0011F08788000105801F06DF810BD0804002010B50446FFF76EFFC0B2801DA0420CD307484068002808D0A100405868
:4053800000F0CCFF002801D00470001D10BD002010BD000008040020F8B516460D460446FFF752FFC0B2801DA04203D20020C0430090F8BDB2B2E9B2684600F0D5FF00999D
:4053C000481C03D0024AA000526811500098F8BD08040020F8B50746FFF736FF801DC6B20A49002005460C680DE06178002907D06188B94202D32078FFF7B4FF002804D1CD
:40540000241D6D1CEDB2B542EFD3F8BD0804002010B5002801D0FFF795FF10BD70B506460948002504680BE06178002905D062882078121D0023FFF7AFFF241D6D1CEDB25E
:40544000B542F1D370BD000008040020002070471CB5002469460C70142001902346054A05480CF0D5FC04480068401C00D1FF2420461CBD95310000100400203EB5124AFE
:405480000146FF2000230124126800290DD0012914D0042908D104206946009308814B8110460CF0B0FC80B23EBD6846009304814381694610460CF0A1FCF4E76846009380
:4054C000048143816946EBE71004002070B545890468416800890300FFF73CFE06240408081D2124002004F079FF1BE0022908D0C8B22A4621460AF035FF2046FFF788FF5E
:4055000010E002202A4621460AF02CFF2946204600F00AF806E000200CF06EF902E020460CF016FD002070BD014B0022DB6818471404002070B5448905680089022803D05C
:40554000032809D0FF2070BD2246094C0023A46829460120A04708E0FFF7E9FC241DA2B200232946022005F046FE002070BD0000140400207047000002480021416001806A
:40558000418070471404002070B50C46002186B016460391012802D0022859D116E003A9012005F080FE01281BD1039D324621462846FFF7A4FC00952878019002206946C9
:4055C00008814E816846FFF7B5FF41E0214D002B686809D0049004A9022005F064FE01281DD0022006B070BD002812D0298840182146FFF784FC28880024801980B228808C
:405600006988091D884206D12C801348FFF792FF03E00320E6E788421AD96C6018E004986860E278A378110219430B4A698000231060E3565360032313815181A178817035
:40564000E178C1706178417021780170042028800020C7E714040020B80600203EB515460C46022803D004280CD000203EBD0091019002206946088107484A8100680CF0A2
:40568000C2FB07E00AF06EFE044B0022DB6829462046984701203EBD1004002014040020014AD1609060704714040020034801688068081A0A21484300097047C406002077
:4056C00010B5FFF70BFA542204490548FFF717FC03490120C870002010BD00000C310100A409002010B5FFF7F1F910BD70B5134C2368002B08D0207B1149C20705D04008D5
:40570000400020738868A08070BD88680B4AA18880B29268814203D90A4D691A091802E0814202D2411A5118A160A080A0689842EAD300F015F80CF083FB70BDC40600209A
:40574000C0102E40FFFF000010B508461946FFF7A7FF10BD704710B5FFF780FF10BD000003480021016041608160C16070470000C406002010B502000DD0FFF7F1FF074C66
:405780000321207B0843207310010A21FFF786FA2060002010BDFF2010BD0000C406002000B504480A21806848430209FFF7D8FF104600BDC40600200248007B8007C00FC8
:4057C00070470000C406002010B537490868002802DA364B01221A70022290430860344800693149C00B4031096A08425AD0012000F02AFA2E482F497C30FFF7F3F82A481E
:405800000E216C30FFF7EEF8294820218430FFF7E9F8274814219C30FFF7E4F82448FF21C131A430FFF7DEF82148FF212F31B030FFF7D8F81E482049BC30FFF7D3F81C48B5
:405840001E49AC30FFF7CEF81C491948491CB430FFF7C8F816481A49B830FFF7C3F814481849CC30FFF7BEF8114817490830FFF7B9F80F481549A830FFF7B4F80C4814492D
:405880008830FFF7AFF80A4812498C30FFF7AAF807481921C9029030FFF7A4F8FFF7A4F8002010BDFF2010BD00F02E402404002000002E4055650000320300002F3F000010
:4058C0003102000010520000EC160000FA12000031D000003AE3000070B50646581C80B245086D00002408E0304600F07FF81055000A1119A41C4870A4B2AC42F4D3D80732
:4059000005D0D0182038D15CC47FD454C17770BD30B50A4C002100195B1E07E0541864782502545C2C430480891C89B29942F5DB994201D1515C018030BD000000102E409D
:4059400010B5FF2000F080F90F49FF2048700E481021801D41800121417001700A490020C91C4870FFF730FF04000AD100F0CCF807210648FFF734F8044807211830FFF770
:405980002FF8204610BD000024040020CC112E4030B504465B1C1804450C002308E0204600F024F8241D59005B1CA4B250529BB2AB42F4D330BD000070B500210A4D5B1E5D
:4059C0000AE0541864782602545C344346193480001D891C80B289B29942F2DB994202D1515C4019018070BD00102E40014940180088704700102E40014A801801807047E2
:405A000000102E4010B50B490020487000F07CF8002000F03FF9002000F02CF907210648FEF7DEFF044807211830FEF7D9FF002010BD000027040020CC112E4010B50B46AC
:405A4000062812D006DC01280CD0032801D1FFF7D9FF10BD0A28FCD00B28FAD105480078107010BDFFF76CFF10BD1146184600F02DF910BD2A040020F8B5204DAC6A01271D
:405A8000A0071F4E002816DA307806280ED1286A384328621B480069F903084381B219481030FEF79FFF042000F0CEF8134802212830FEF795FFE00711D0062000F0C4F821
:405AC0000F49FF20C91E48707078002802D1686B38436863094801212830FEF781FFE0050BD53078042802D1052000F0ADF80348FF2101312830FEF773FFF8BD40F02E407F
:405B00002704002000002E4010B503212348FEF769FF0120FEF7D6FF20483038406A204C80076178800F890001431C480C38FEF759FF6078002808D0401E02218140182027
:405B4000FFF79CF9C000083800E0B82081B21548FEF748FF1348032109021438FEF742FF10481149B830FEF73DFF612189010F48FEF738FF0D480321001FFEF733FF0C499C
:405B80000C48FEF72FFF0B480B496038FEF72AFF084801218838FEF725FF10BD70F02E402A040020D8102E4090890000041E2E40FF0F000058122E40209000000849087877
:405BC00006280BD148780749002803D1486B400840004863C86A01221043C862704700002704002040F02E4001480078704700002704002000B50300FFF7ACFA080D050DF9
:405C00000B070507090D012000BD032000BD042000BD022000BDFF2000BD0000074A9168D26889B2064B92B2994204D105498A4201D1012100E000210170704780002E40AD
:405C400033D000003FE3000010B50446FEF742FF072C01D9FF2C01D102480470FEF736FF10BD00002704002001494870704700002404002010B5064A012805D01921C90297
:405C80001046FEF7AFFE10BD1D21C902F8E7000090002E4010B50A4A141D012808D009491046FEF79FFE08492046FEF79BFE10BD04491046891CFEF795FE0349491DF3E746
:405CC00088002E4031D000003AE300000078074AFF2803D04C2804D9553803E01078087070474F38087010707047000026040020F0B50122002830D000292ED00224420650
:405D000000D003246D2342065B06D21800D0641C034600221EE00C2516466E43104D00277519AF720E4F002ABB51696007D0661EB24209D106466D367606760E05E05E0662
:405D4000760E8027BE1B00E080269B198919521C2E81D2B2A242DED300221046F0BD000044080020074900200C2242435218927A012A05D0401CC0B20428F5D3002070474A
:405D80000120704744080020F8B5044616460F000BD0184D6868A04203D9FF306E30A04203D3FF206E30864201D90120F8BD2046FFF796F800281BD0324639462046FFF765
:405DC0009EF8F0B200210C224A43521913895668F718A74208D90127A41B1B1B9772834206DAC01A1469C0B2491CC9B20429EAD30020F8BD4408002010B500F05BF80648FC
:405E0000FF22C1686E320C460448FFF778F803492046FFF76DFF10BD30040020D4060020002070470020054A002902D0012902D002E0506000E0906000207047300400207B
:405E400070B5084C154608460549A26889182A46FFF755F8A0684019A06028B270BD0000D4060020300400203EB50A226946FFF7E7FF044606480A2200686946FFF730F8FB
:405E8000002802D00020C0433EBD20463EBD000030040020002803D0FF226E32914201D2FF20704702490A61C8600020704700003004002002480021416081607047000030
:405EC0003004002070B5074C15460548626880182A46FFF759FF60684019606028B270BDD40600203004002010B503490A220968FFF7E8FF10BD00003004002010B50F4A0E
:405F0000002313600E4A13600E4B18600E4801600E49012008600E490860000290600E490C4808600D4914300860FF381538506000F0BCF800F0CAF9002010BD5C040020DA
:405F40004404002070040020740400206004002050040020740900205404002068040020014610B50020002910D0094B1A689C685118A14209D25868196080188A0704D088
:405F80008A07920F891A091D196010BD002010BD44040020F8B50024164E671E321F3D463168136806E01422624310328A58521C1BD0641C9C42F6D36A1C14D02C46142232
:405FC000544322460C3288500C214843FFF7C8FF3168002808510AD031680020103408517068401C70602846F8BD2546E4E73846F8BD000054040020F3B50026F64381B08D
:4060000000281BDB1E490968884217D80299002914D01B4F142204463F1D54432546396810354859401C09D0FEF754FD38682F1F4159C359994203DBFEF748FD3046FEBDF7
:40604000214608310091465801590C20704308180C220299FEF753FF0948761C001D0068C159B14200D100260549009A091D865008684159491C4151FEF728FD0020FEBDA2
:4060800050040020002803DB07490968884202D90020C043704704491422091D09685043103008587047000050040020F0B500200D4A451E0346171F50600FE01426014690
:4060C000714314680E1DA3510C461668083433511668083435511468401C635039688842ECD30020F0BD000054040020F3B50026F64381B0002841DB2349096888423DD84F
:40610000029900293AD0204F142204463F1D54432546396810354859401C2FD0FEF7DAFC3868415900292BD0211D009146580C21005971430F46C1190C220298FEF7DFFEC9
:4061400011480021001D0068761C00590C34C0190160416081600C48001D00680159B14200D100260849009A091D865008684159491E4151FEF7AAFC0020FEBD3046FEBD8B
:40618000FEF7A4FCFAE7000050040020FEB504460D4600201E49089E0860471E009001900290002C11D0486885420ED2002A0CD0002E0AD0642E08D808460C3001681C20E5
:4061C00068430C18207A002801D03846FEBD0120226020721846FFF7DDFE6060401C13D06681A6810A4827610C3067610179A94200D205710021684601810A462846029B5C
:4062000000F040F82846FEBD00202072DDE700005C04002038B50124009400F039F838BDFEB50027164EFF433D4600240EE01C20316860430818017A002906D04068FFF796
:4062400021FF002801D0254603E0641C3079A042EDDA681C12D01C2130684D434419FEF739FC69466068FFF741FF0546FEF72EFC002DD9D1216868468847D5E7FEBD000028
:406280006804002038B50024009400F001F838BD1FB500220C49541E0A60002811DB496888420ED808491C220C31096850430818406801A9FFF7A0FE401C02D0002004B05B
:4062C00010BD2046FBE700005C040020F0B50021114A4D1E174611710C3F0B46BD6016E008461C2460431668041D355114680646235014680836A3551468361DA35304469D
:4063000016680A34335318301468491C255078688142E5D30020F0BD6804002038B500210091002811DB0F49097888420DDA0D4D04010C3529680859002807D0201D08189E
:40634000694600F071F9002801D0002038BDFEF7C1FB28680F34015D491E0155FEF7B6FB009838BD78040020F7B582B0002502986E1E06602E48D21C024017462D4A2C461D
:4063800010460C380178106805E02301C358002B0FD0641CE4B28C42F7D3711C28D03401211D40180191039900F02CF900281FD101E02646F1E71F48016820460C300F52D3
:4063C0001C480399026820460E30115419480399026820460F3011540398784300F0A0F8144900280968085102D00024009011E001251AE00F48016801980818009900F0F3
:406400002EF9002801D0012502E00098C0190090641CE4B203988442ECD3002D05D10298066004480179491C0171284605B0F0BDFCFF000084040020F8B50D4600216A4619
:406440008C461180002839DB23490978884235DA214B04010C3319680A59002A2ED020460C300B5A801C0E5C184670438018954224D3854222D2002006E007465F43BF18F0
:40648000AF4206D0401CC0B2B042F6D36046002814D0114E271DC8190C366A46294600F008F900280AD168460088012808D030682946C01900F0D3F8002803D00120F8BD5E
:4064C0000020F8BDFEF706FB30680F34015D491C0155FEF7FBFAF3E778040020F8B50F46002400F033F8002817D10C4900220B460C334A600EE021011D680E466A501D6853
:406500000C36AA53B61C1D680F31AA551D68641C6A54E4B2BC42EED31A71F8BD78040020014610B5002000290CD0C91C064B8A08596892005C888A18A24202D898685A6048
:40654000401810BD002010BD78040020F8B5064600200F4D009029700C0121466846FEF75FFE00280CD129460C3100980860301B001F84B221466846FEF752FE002801D0B7
:40658000FF20F8BD6C800098A8600020F8BD000078040020F8B5002827DB19490978884223DA174C05010C342168485900281CD028460C30085A009028460E300E5C401C94
:4065C0000E5420682F1DC01900F064F800280CD12068002445590EE0094829460C300068C01900F03CF8002801D00120F8BD00982D18641CE4B2B442EED30020F8BD000054
:406600007804002030B50D4604000BD0A800FFF787FF6060002805D000202570C0436080002030BD012030BD70B50D46040005D0002D03D00220205E002801DA012070BDD1
:40664000FEF748FA0221615E60688900405828606088401E6080FEF739FA002070BD70B50D46040007D0002D05D002212078615E401E814201DB012070BDFEF72BFA6088D9
:40668000401C00B26080616880000D50FEF71EFA002070BD10B5040009D0227800216068FEF736FC0020C0436080002010BD012010BDF0B500231D46002802D00224045F14
:4066C0000AE00120F0BD46689F00F6598E4201D1012503E05B1CDBB29C42F4DA15700020F0BD000001480078704700008C0400207CB505460024FEF71AFCA879694608707E
:4067000000A8062229460130FEF7F9FB0021684604F0C2F80C2804D0072804D01F2804D004E0022402E0042400E0272420467CBD10B500F0B7F8FFF757FAFFF75BFA10BDBC
:4067400010B503240BF0CEFF002810D10BF072FF00280CD104F0F6FD002808D100F064FA002804D104F0F2FA002800D10024204610BD70B50025044600280ED0A0790128AC
:406780000BD8FEF7D4FBA0790028204602D002F0D9FD03E002F08EFD00E00125284670BD38B504460120002C20D0617801291DD800290BD0FF25E535FEF7B9FB2846FFF735
:4067C00015F9C0B22070072803D00EE0FF25CD35F2E70020694608706846FFF71FFA69460878012801D108202070002038BD70B504460120002C1FD06178012902D922787C
:40680000092A19D8002905D0FF25E5352078092803D004E0FF25CD35F8E708202070FEF786FB2078082808D00020FFF733FA21782846FFF7E1F8002070BD0120FFF72AFA04
:406840000721F5E770B50D46040001D0002000E00548002802D0012101F0ACFF2946204602F086FA70BD0000180A002038B5054600200446009022466946284600F070FEF7
:406880000098002801D00BF00FFFA878214602F0B3F8A878214602F0A2F8641CE4B2052CE9D338BD38B5FFF79FF9042819D0052817D006281AD0032842D007280AD10020EC
:4068C0006946087002460120FFF7B8F8FFF78CF90128FBD138BDFEF749F9FFF785F90128F8D0FFF781F90128F5D138BD02F0ECF805E0FEF73BF9FFF777F9012803D0FFF7D1
:4069000073F90128F5D1A12424012046FFF76EF801220E4983079B0F0A70022BE5D149880029E2D0104301462046FFF765F82046FFF75CF8410849002046FFF75DF838BD5E
:4069400002F0C6F80120FFF77FF938BD92040020F8B50646002402F0F9FD0546304602F00DFE00210346012632468A40174610462F401840002F03D0002801D1224394B276
:40698000491CC9B20529EFD32046F8BD1CB50020694648706846FFF703FF01AA69460A20FFF74CF86946042008561CBD10B50C4601F07CF9002809D00179002906D0C178F6
:4069C0008078224602F082FA002010BD022010BD0148007870470000E40900204030C07E002800D00120704700B500F001F800BD88214843064940186030417F491CC9B284
:406A00004177052901D300214177C8B270470000F809002013B501F049F904000BD001F09CFC002807D0214601AA0A310620FFF705F800201CBD02201CBD000010B50C469E
:406A400001F034F900280AD001F087FC002806D0224604490A20FEF7F1FF002010BD022010BD0000CD090020F3B581B0074601460026029802F062FD0446002F01D0002501
:406A800000E0154D002D21D0284601F045F9032C04D13946029802F07BFD06463846029901F09DFF032C06D0002C10D00121384601F020FA03E03146384602F01DFF284650
:406AC00001F05EFE0221284601F074FEFEBD3846029901F084FFFEBD180A002070B50446002503F013FB002801D00C2070BD2078611C02F0E5FAFF2802D01F25284670BD6B
:406B000002F032FBFF2804D02178621C01F0DCFEF4E70725F2E710B503F0F8FA002801D00C2010BD02F0A4FA002010BD70B50D46044610210BF0F8FC1021601806460BF08E
:406B4000F3FC334610221946204603F00BFB102130460BF0E9FC02202870204604F04EF870BD70B504464078217802028006850FE0781143A67809050002090D064308464A
:406B800001F094F8002812D0022D10D0032D0ED0002E08D00179092909D0002907D0214600F0A1F870BD0089002103F05CFF20460BF07AFD70BD0020704770B50446002521
:406BC00003F0A4FA002801D00C2070BD2078611C02F076FAFF2802D002F0B8F900E01F25284670BD10B504F0B1F800F0F6F8002010BD10B5044600786178E2780843A17895
:406C000011430843217908436179084305D003F06FFA002803D00C2010BD122010BD204602F090FB002010BD10B5044803F0D8FA02F096F900F004F8002010BDB4090020AA
:406C4000F8B5114D00266E706E736E716E76AE76EE766E75AE70EE70AE712F46EE730120B03778723F207871FF20B87100F00EFA0024204601F038FB641C2406240EF8D0B9
:406C80003E72FE71AE73F8BDF809002070B505460E46084602F05AFC0446304602F06EFC0121A9400A46224001400A4301D0012070BD002070BD10B50446084602F05EFCE8
:406CC0000121A140014201D0012010BD002010BD10B5FEF789FF032804D101F0F9FE0120FEF7B2FF10BD70B5044600790D4609281CD000281AD020464030817E491C817649
:406D0000204601F03DFDA078FFF76EFE064602462946204600F00CF8002806D1A0783146FFF790FD28460BF0BFFC70BD0846FAE7F7B5054648780C468006870FC8788978F4
:406D4000000282B0014368468180284601F010FB060007D021462846049A00F095FB304605B0F0BD384600F03DFC0746034601AA2946204600F0CEFA68468088231DC0B2FD
:406D80000090A878FF22049901F0ACFF684680883B46C2B2A878049902F050FBDFE770B5002500242846FFF7D3FD060010D03046E040C007C00F07D02146284601F003FE0C
:406DC00021462846FFF750FE641CE4B2052CEED36D1C2D062D0EE4D070BD10B502F0C0F8FFF72EFF0BF0C8FC002010BDF8B5002400F081F80123012800D10124104F002060
:406E00003E4620360425082203E0002801D0002100E031460979002907D001290BD002290BD0114681402143CCB2401C0006000EEBD07C70F8BD1C43F7E72C43F5E70000F6
:406E4000F809002010B5FFF7D1FF10BD10B50B4681791943817103D08078114602F0B2FA10BD10B582798A43827102D1807802F0C1FA10BD70B5FF25D53502242846FEF70D
:406E8000B5FD0C4A9178002901D0022906D1137852789A18282A01D9032402E0032900D101244105490DE00201432846FEF7A4FD70BD00008E04002010B500F022F80028CB
:406EC00007D0012805D0032801D0042801D0002010BD012010BD014610B50020C90701D000F009F810BD014610B50020C90701D000F001F810BD10B52020FEF777FD000A63
:406F000010BD10B51820FEF771FD410501D5042010BD4007800F10BD38B5044640060CD5684601F0DBFD0220FFF78CFF072002F033F96846007801F045F9200613D5FFF75E
:406F4000E0FF01280FD1684601F0C8FD6846007800F09EFA072002F01FF9012001F078FC0220FFF76FFF38BD10B5034A0178117002F021F9002010BD8E04002010B504461F
:406F8000FFF7B9FF002801D00C2010BDA27B01211848002A827801D00A4301E05208520082706279012A0FD0C17849084900C170207901280CD06188208802F00BFF20801D
:406FC000207904280BD00DE0C2780A43C270EFE7E01D02F09FF90848808C208002E0E01D02F098F9054920798870204602F0F2F8002010BDF8090020A40900208E040020E2
:4070000038B50478FFF777FF844201D10C2038BD002C18D0072069460870FFF74DFF012807D10121684600F091F8012801D0092038BD6846007802F0AFF8FFF71BFF02F0FB
:40704000F6F8012014E0FFF737FF012806D1684601F044FD6846007800F04EFA072002F09BF802F0DBF8FFF746FF0028FBD10220FFF7E8FE002038BD10B5034A01785170A4
:4070800002F078F9002010BD8E04002038B568460BF0A0FA002801D01F2038BD01210098C90201804180002505714571857107214173857302F08EF8009C202200212046B2
:4070C000FDF726FF25702A460021601CFDF720FF204602F070F8204602F04CF900980BF0E3FA042200210248FDF712FF002038BD8E0400200346084800B5834209D8184646
:4071000000F0D4FD002804D00089984201D1012000BD002000BD0000FF0E0000074A9179491C8906890E917138220A4092014907090E11430843024908407047F809002005
:40714000FF0E0000C006C00E70470000F8B507460E4600240D4803E0002C01D0002500E005462979002905D0641C2406240EF3D00020F8BD204601F0B7F82E712046FFF7AB
:40718000CDFF28813C700120F8BD0000180A002010B503F01BF80222002100F003F801F087FE10BD10B5094B40074907000F090F185A595A40185043C0086421FDF76EFDC5
:4071C000002800D1012080B210BD000060310100F7B53D20405C88B016460C46002829D030786946087200252046FFF7F7FB012800D00125204603A93830019100902346D0
:407200000327A17E34332A46206A03F003F802A8089900900B46019120463A4603A9243002F082FF02466846007A3070204601F047F810460BB0F0BDFFB587B00C460546B3
