:400000000080002011000000511800005118000080B500AF024A034B1B68136001F022FCBC760040FA46004010B5054C237833B9044B13B10448AFF300800123237010BD26
:400040008081FF1F0000000010220000084B10B51BB108480849AFF300800848036803B910BD074B002BFBD0BDE81040184700BF00000000102200008481FF1F0881FF1FED
:400080000000000080B582B000AF01F047FE0020002101F053FE284801F086FE00BF02F023F80346012BFAD0012001F0BFFE0020002101F043FE214801F076FE00F04AF83F
:4000C0000346FB71012001F0B1FEFB79012B07D10020002101F032FE194801F065FE2AE00020002101F02AFE164801F05DFE164B1B78184601F0DCFF01F02AFA0346BB7145
:400100000120002101F01AFE104801F04DFEBB79184601F0CDFFBB7903F02003002B0AD000F0D2FB03467B71094801F03DFE7B79184601F0BDFFFEE714220000282200006F
:400140003C2200004C220000AA81FF1F5C2200006422000080B500AF3E4B00221A703D4B1B780133DAB23B4B1A7000F03DFD0346002B01D100236AE0364B1B780133DAB2B1
:40018000344B1A7000F0CAFD0346002B01D100235DE0304B1B780133DAB22E4B1A7000F03DFE0346002B01D1002350E0294B1B780133DAB2274B1A7000F0C2FE0346002B5D
:4001C00001D1002343E0234B1B780133DAB2214B1A7000F0CDFE0346002B01D1002336E01C4B1B780133DAB21A4B1A7000F04EFF0346002B01D1002329E0164B1B78013376
:40020000DAB2144B1A7000F0D9FF0346002B01D100231CE00F4B1B780133DAB20D4B1A7001F058F80346002B01D100230FE0094B1B780133DAB2074B1A7001F04BF90346F3
:40024000002B01D1002302E001F08EF90123184680BD00BFAA81FF1F80B400AF084B084A1278D2B2D2B222F00E02D2B242F00C02D2B2D2B21A70BD465DF8047B704700BF5E
:400280006350004080B400AF084B084A1278D2B2D2B222F00E02D2B242F00202D2B2D2B21A70BD465DF8047B704700BF6350004080B400AF084B084A1278D2B2D2B222F057
:4002C0000E02D2B242F00C02D2B2D2B21A70BD465DF8047B704700BF6250004080B400AF084B084A1278D2B2D2B222F00E02D2B242F00202D2B2D2B21A70BD465DF8047BFA
:40030000704700BF6250004080B400AF084B084A1278D2B2D2B222F00E02D2B242F00C02D2B2D2B21A70BD465DF8047B704700BF1D50004080B400AF084B084A1278D2B233
:40034000D2B222F00E02D2B242F00202D2B2D2B21A70BD465DF8047B704700BF1D50004080B400AF054A054B1B78DBB243F00803DBB21370BD465DF8047B7047C0510040C2
:4003800080B400AF054A054B1B78DBB223F00803DBB21370BD465DF8047B7047C051004080B400AF054A054B1B78DBB243F00403DBB21370BD465DF8047B7047C0510040C3
:4003C00080B400AF054A054B1B78DBB223F00403DBB21370BD465DF8047B7047C051004080B400AF054A054B1B78DBB243F02003DBB21370BD465DF8047B704730510040FB
:4004000080B400AF054A054B1B78DBB223F02003DBB21370BD465DF8047B70473051004080B400AF064B1B78DBB29B08DBB203F00103DBB21846BD465DF8047B704700BFD2
:40044000C151004080B584B000AF0346FB710023FB730023FB7317E0FB7903F00103002B06D0FFF78DFFFFF79BFFFFF779FF05E0FFF786FFFFF7A4FFFFF772FFFB795B0821
:40048000FB71FB7B0133FB73FB7B072BE4D91037BD4680BD80B582B000AF0023FB7100237B710023BB710023FB7125E0164A164B1B78DBB223F00803DBB21370FFF7B0FF81
:4004C00003467B71104A104B1B78DBB243F00803DBB21370BB795B08BB717B79002B04D0BB7963F07F03BB7103E0BB7903F07F03BB71FB790133FB71FB79072BD6D9BB7964
:4005000018460837BD4680BDC051004080B500AFFFF7E4FEFFF734FFFFF722FF80BD00BF80B500AFFFF7C4FEFFF72AFFFFF718FF80BD00BF80B582B000AF0023FB71002309
:400540007B710023BB710023BB7113E0FFF718FFFFF766FF03467B71FFF702FF7A79BB7902FA03F3DAB2FB791343DBB2FB71BB790133BB71BB79022BE8D9FB79184608373B
:40058000BD4680BD80B582B000AF0346FB71FFF7F7FEFB79002B02D0FFF702FF01E0FFF70FFFFFF7DDFE0837BD4680BD80B582B000AFFFF7E5FEFFF733FF0346FB71FFF7E6
:4005C000CFFEFB7918460837BD4680BD80B582B000AFFFF7F5FE0023FB7106E0FFF7D0FEFFF7BEFEFB790133FB71FB79022BF5D90837BD4680BD00BF80B485B000AF0346D1
:40060000FB710023FB730023BB730DE0FB7903F00103002B02D0FB7B0133FB73FB795B08FB71BB7B0133BB73BB7B072BEED9FB7B18461437BD465DF8047B704780B582B0E1
:4006400000AF0023FB710023BB710DE0BB790C4AD35C1846FFF7D0FF03461A46FB791344FB71BB790133BB71BB79032BEED9FB7903F00103DBB218460837BD4680BD00BFF3
:40068000AC81FF1F90B583B000AF0023FB71224B1B781846FFF7D6FEFFF738FFFFF74AFF03461A461D4B1A700023BB7109E0BC79FFF7F0FE03461A46194B1A55BB790133D5
:4006C000BB71BB79032BF2D9FFF770FF03467B71FFF726FFFFF77AFFFB790133FB710F4B1B78022B02D1FB79042BD0D90B4B1B78012B0DD1FFF7A2FF03461A467B79934234
:4007000006D0064B1B7843F00803DAB2034B1A700C37BD4690BD00BFB181FF1FB081FF1FAC81FF1F80B582B000AF0023FB71FFF785FF03467B71184B1B781846FFF782FE03
:40074000FFF7E4FEFFF7F6FE03461A46134B1A70FFF7E6FE0023BB7108E0BB79104AD35C1846FFF76FFEBB790133BB71BB79032BF3D97B791846FFF705FFFFF727FFFB79F9
:400780000133FB71054B1B78022B02D1FB79042BD1D90837BD4680BDB181FF1FB081FF1FAC81FF1F80B483B000AF1F4A1E4B1B78DBB243F00403DBB213700023FB7112E02D
:4007C000194A194B1B78DBB223F00803DBB21370154A154B1B78DBB243F00803DBB21370FB790133FB71FB79322BE9D90E4A0E4B1B78DBB223F00803DBB213700A4A0A4B68
:400800001B78DBB223F00403DBB21370064A064B1B78DBB243F00803DBB213700C37BD465DF8047B704700BFC051004080B582B000AF00237B601F481F4900F0F9FE1E4B4B
:400840001B6803F010431C4A13607B6801337B60194B1B68002B03D07B68184A9342EAD97B68164A93420CD9154B1B7843F02003DAB2134B1A7013480F4900F0D9FE0023CB
:4008800014E010480C4900F0D3FE0B4B1B6803F07043B3F1204F08D0094B1B7843F02003DAB2074B1A70002300E0012318460837BD4680BD04000040A081FF1F0DEA020047
:4008C000B081FF1F0800004080B400AF034B1B68DBB21846BD465DF8047B7047A081FF1F80B582B000AF00237B6000233B604DF2B6337B601A48796800F0C8FE194B1B7830
:40090000012B01D0002327E017484FF0004100F0BDFE144B1B78012B01D000231CE0FFF785FF03461A46114B1A70104B1B78012B01D0002310E03B460B48194600F078FE58
:40094000084B1B78012B01D0002305E03B681B0BDAB2074B1A70012318460837BD4680BD08000040B081FF1F04000040A481FF1FA581FF1F80B582B000AFFB1D184600F07C
:4009800001FF224B03221A70214B1B78012B0ED0022B17D0002B23D1FB79012B03D11B4B01221A7020E0194B03221A701CE0FB79002B03D1154B03221A7015E0134B002252
:4009C0001A7011E0FB79012B02D0FB79022B03D10E4B02221A7007E00C4B03221A7003E00A4B03221A7000BF084B1B78032B08D1084B1B7863F07F03DAB2064B1A700023C9
:400A000000E0012318460837BD4680BDB281FF1FA581FF1FB081FF1F80B586B000AF03463960FB711346BB8000233B610023FB600023FB82FB791B0603F55743B6333B616C
:400A4000BB88013BFB603648396900F01FFE354B1B78012B01D000235DE03348F96800F015FE304B1B78012B01D0002353E00023FB822CE0FB8A3A6813441B781946FB8A1E
:400A800001333A6813441B781B02CA18FB8A023339680B441B781B041A44FB8A033339680B441B781B0613443B61FB8A03F1005303F584731846396900F0E8FD194B1B78E4
:400AC000012B01D0002326E0FB8A0433FB82FB8A7F2BCFD91548124900F0D8FD114B1B78012B01D0002316E01148124900F0CEFD0C4B1B78012B01D000230CE0FFF796FE4F
:400B000003461A460C4B1A700B4B1B78012B01D0002300E0012318461837BD4680BD00BF00010020B081FF1F04010020080000400400004004000080A481FF1F80B584B021
:400B400000AF03463960FB800023FB600023BB60FB88DBB21A04FB8803F47F431B04134403F55E43B633FB601A48F96800F08EFD194B1B78012B01D0002327E017481849D4
:400B800000F084FD144B1B78012B01D000231DE0FFF74CFE03461A46124B1A70114B1B78012B01D0002311E007F108030948194600F03EFD084B1B78012B01D0002305E01C
:400BC000BB6823F070423B681A60012318461037BD4680BD08000040B081FF1F040000400B000080A481FF1F80B584B000AF0023BB600023FB8100237B60FFF785FBFFF7DF
:400C0000EFFBFFF729FBFFF7BBFBFFF751FBFFF7D7FBFFF7F5FB00F05DFDFFF7E1FBFFF7C1FD07F10803A520194600F0B1FCFB890133FB81354B1B78012B02D0FB890E2B7E
:400C4000EDD9FB890F2B08D1304B1B7843F01003DAB22E4B1A70002353E0BB682C4A934208D02A4B1B7843F04003DAB2274B1A70002346E0A9204FF0A84100F0B3FC234B4B
:400C80001B78012B01D000233BE0B120002100F0A9FC1E4B1B78012B01D0002331E0A320022100F09FFC194B1B78012B01D0002327E018484FF0004100F0E8FC134B1B787E
:400CC000012B01D000231CE03B1D1248194600F0AFFC0E4B1B78012B01D0002311E07B68002B01DB00230CE0FFF7A0FD03461A46094B1A70084B1B78012B01D0002300E036
:400D0000012318461037BD4680BD00BFB081FF1F7714B10B14000340A481FF1F80B586B000AF0023BB6000233B6100237B6000233B6007F10803184600F0E0FC4DF2B63393
:400D40003B613248396900F0A1FC314B1B78012B01D0002355E02F484FF0004100F096FC2B4B1B78012B01D000234AE0FFF75EFD03461A46284B1A70274B1B78012B01D005
:400D800000233EE03B1D2148194600F051FC204B1B78012B01D0002333E03B461D48194600F046FC1A4B1B78012B01D0002328E03B681A067B6803F47F031A447B681B0250
:400DC0009BB21A447B681B0ADBB21344FB600023FB7512E0BA68FB68534023F47F03002B08D00B4B1B7843F04003DAB2084B1A70002306E0FB7D0133FB75FB7D032BE9D973
:400E0000012318461837BD4680BD00BF08000040B081FF1F04000040A481FF1F80B582B000AF00237B60FFF75BFDFFF7A3FD03461A463A4B1A70394B1B78012B01D00023DD
:400E400068E0374B1B78002B03D0354B1B78012B2DD14DF6B6537B603248796800F016FC314B1B78012B01D0002353E02F482D4900F00CFC2C4B1B78012B01D0002349E0BC
:400E80002B482C4900F002FC274B1B78012B01D000233FE0FFF7CAFC03461A461F4B1A701E4B1B78012B01D0002333E031E01C4B1B78022B2DD1204B7B601C48796800F0DF
:400EC000E5FB194B1B78012B01D0002322E018481A4900F0DBFB144B1B78012B01D0002318E0FFF7A3FC03461A460C4B1A700B4B1B78012B01D000230CE0FFF775FE0346A0
:400F00001A46064B1A70054B1B78012B01D0002300E0012318460837BD4680BDA481FF1FB281FF1F00010020B081FF1F08000040040000400A000080B6E001000D00008054
:400F400080B500AF4FF400400749FFF7F7FD03461A46064B1A70054B1B78012B01D0002300E00123184680BD9C81FF1FA481FF1F80B5A4B000AF002387F88D300023A7F8D3
:400F80008A300023A7F88E300023C7F8843000F055FC0346A7F88A300023A7F88E305DE0B7F88E203B1D1046194600F0C9FBB7F88E301B0A9BB287F88D3097F88D203B1DF4
:400FC000104619468022FFF727FD03461A46294B1A70284B1B78012B01D0002345E0B7F88E30DBB21A04B7F88E3003F47F431B04134403F55943B633C7F884301E48D7F8B5
:40100000841000F043FB1D4B1B78012B01D000232BE01B48184900F039FB184B1B78012B01D0002321E01748174900F02FFB134B1B78012B01D0002317E0FFF7F7FB0346B7
:401040001A460C4B1A700B4B1B78012B01D000230BE0B7F88E300133A7F88E30B7F88E20B7F88A309A429BD3012318469037BD4680BD00BFA481FF1F00010020B081FF1F32
:4010800008000040040000400600008080B5C4B000AF0023C7F800310023A7F80A310023C7F8043100F0CAFB0346A7F80A310023A7F80E3174E0B7F80E31DB01C7F80431B4
:4010C000B7F80E2107F180031046194600F038FB0023A7F80C3137E0B7F80C21D7F804311A4407F580731046194600F0A1FA324B1B78012B01D0002359E0B7F80C31D7F818
:401100000021D1B23A46D154B7F80C310133D7F80021120AD1B23A46D154B7F80C310233D7F80021120CD1B23A46D154B7F80C310333D7F80021120ED1B23A46D154B7F8B2
:401140000C310433A7F80C31B7F80C317F2BC3D90023A7F80C311AE0B7F80C313A46D25CB7F80C3107F588710B4413F8903C9A4208D0114B1B7843F04003DAB20E4B1A70CB
:40118000002314E0B7F80C310133A7F80C31B7F80C317F2BE0D9B7F80E310133A7F80E31B7F80E21B7F80A319A4284D30123184607F58877BD4680BDB081FF1F80B58CB055
:4011C00000AF002387F82F30002387F82E30002387F82D3000237B8500237B6200F02EFB03467B857B8D1B0A9BB287F82E307A8D97F82E30DB0092FBF3F387F82D30FB1C2F
:40120000184600F0BFFA002387F82F304DE097F82D103A1D97F82F30084611461A4600F0C1FA97F82D309BB297F82F103A1D084611461A46FFF7F0FB03461A46204B1A70D6
:401240001F4B1B78012B01D0002335E0FB781A0497F82F301B06134403F56043B6337B621848796A00F012FA174B1B78012B01D0002321E01548164900F008FA124B1B78F1
:40128000012B01D0002317E0FFF7D0FA03461A460B4B1A700A4B1B78012B01D000230BE097F82F30013387F82F3097F82F2097F82E309A42ABD3012318463037BD4680BD8D
:4012C000A481FF1F08000040B081FF1F040000400D00008080B596B000AF0023BB6400237B650023A7F85030002387F84730002387F84F30002387F85230002387F84E3014
:4013000000F09CFA0346A7F85030B7F850301B0A9BB287F84E30B7F8502097F84E30DB0092FBF3F387F84F30664B7B65002387F8523084E097F84F1007F1240297F8523073
:40134000084611461A4600F02DFA002387F853303EE097F853207B6D1A4407F148031046194600F065F9584B1B78012B01D00023A4E097F85330BA6CD2B207F158010B444A
:4013800003F8542C97F853300133BA6C120AD2B207F158010B4403F8542C97F853300233BA6C120CD2B207F158010B4403F8542C97F853300333BA6C120ED2B207F15801FE
:4013C0000B4403F8542C97F85330043387F8533097F8532097F84F309A42BAD3002387F853301DE097F8533007F15802134413F8342C97F8533007F158010B4413F8543CCA
:401400009A4208D0304B1B7843F04003DAB22E4B1A70002352E097F85330013387F8533097F8532097F84F309A42DBD397F85230013387F852307B6D03F580637B6597F836
:40144000522097F84E309A42FFF474AF07F14703184600F097F907F148031C48194600F0E7F8194B1B78012B01D0002326E0BB6C1B0EDBB203F00F03DAB2154B1A70144B32
:401480001B78002B03D1124B01221A7006E0104B1B78012B02D10E4B00221A700C4B1A7897F847309A4208D0074B1B7843F04003DAB2054B1A70002300E001231846583740
:4014C000BD4680BD00F0FF0FB081FF1F7CF0FF0FA581FF1F80B584B000AF0023BB600023FB810023FB8007F108034FF400401946FFF724FB03461A46124B1A70114B1B7895
:40150000012B01D0002318E0BB689AB20E4B1B689BB2D31AFB81BB1D184600F069F9FB88FA899A4208D0094B1B7843F04003DAB2064B1A70002300E0012318461037BD46BD
:4015400080BD00BFA481FF1F9C81FF1FB081FF1F80B400AF034B1B781846BD465DF8047B704700BFB081FF1F80B500AFFEF708FFFEF726FFFEF7B2FEFEF784FEFEF740FF9A
:4015800000F0A8F8FEF72CFFFEF7D4FE80BD00BF80B582B000AF03463960FB710E4AFB791370FFF76FF80D4B1B78012B00D00FE00B4BDB781A060A4B9B781B041A43084BD2
:4015C0005B781B021343064A12781A433B681A600837BD4680BD00BFB181FF1FB081FF1FAC81FF1F80B582B000AF03463960FB710D4AFB7913703B681B0EDAB20B4BDA707F
:401600003B681B0CDAB2094B9A703B681B0ADAB2064B5A703B68DAB2044B1A70FFF782F80837BD4680BD00BFB181FF1FAC81FF1F80B582B000AF786039608B207968FFF72D
:40164000D1FF114B1B78012B02D00F4B1B7817E09F203968FFF79CFF0B4B1B78012B02D0094B1B780CE09F203968FFF791FF064B1B78012B02D0044B1B7801E0024B1B78B3
:4016800018460837BD4680BDB081FF1F80B582B000AF786039608B207968FFF7A3FF0C4B1B78012B02D00A4B1B780CE0BB203968FFF798FF064B1B78012B02D0044B1B78CA
:4016C00001E0034B1B7818460837BD4680BD00BFB081FF1F80B483B000AF0023FB8002E0FB880133FB80FB8840F25E229342F7D90C37BD465DF8047B704700BF80B485B0A2
:4017000000AF78600023FB730FE07B681A68FB7B0A49CB5C1946FB7BDB0001FA03F31A437B681A60FB7B0133FB73FB7B032BECD91437BD465DF8047B704700BF6C2200004B
:4017400080B485B000AF03463960FB800023FB810DE0FB893A681344F988FA890848C9010A44024412781A70FB890133FB81FB897F2BEED91437BD465DF8047B704700BF64
:401780009822000080B483B000AF7860044B1A787B681A700C37BD465DF8047B704700BF9422000080B485B000AF03463960FB711346BB710023FB810EE0FB893A681344F8
:4017C000F989BA79F87900FB02F20A4407498A5C1A70FB890133FB81FB799BB2FA899A42EBD31437BD465DF8047B70477422000080B485B000AF78600023FB7314E07B68ED
:401800001B8899B2FB7B0C4AD35C1A46FB7BDB0002FA03F39BB20A4613439BB29AB27B681A80FB7B0133FB73FB7B012BE7D91437BD465DF8047B70477022000080B400AF4B
:401840004FF480731846BD465DF8047B704700BF80B500AF00F09CFC03461B680C2B00D1FEE7FEE780B586B000AF224B7B61224B3B61204B7B6135E03B691B68FB603B698F
:401880005B68BB603B699B683B6000237B600CE0FB681A68BB681A60BB680433BB60FB680433FB607B6804337B607A683B689A42EED13B69DB683B6000237B6008E0BB6892
:4018C00000221A60BB680433BB607B6804337B607A683B689A42F2D13B6910333B617B69013B7B617B69002BC6D100F057FCFEF7C9FBFEE70100000000A3000080B582B0AD
:4019000000AF174B174A1A60174A174B1B6843F40073136000237B600FE07B68032B04D8124A7B6852F8233000E0114B11497A6841F822307B6801337B607B682F2BECD9AB
:401940000D4B1B78DAB20D4B1A700D4B094A1A6000F004F90B4B00221A600837BD4680BD0CED00E00004FA0514ED00E000000000511800000080FF1FBC7600400481FF1FB2
:4019800008ED00E00081FF1F80B582B000AF78603960786800213A6800F031FC0837BD4680BD00BF80B584B000AFF860B9607A60F868B9687A6800F017FC1037BD4680BDDE
:4019C00080B483B000AF0346FB71FEE780B487B000AF7860396000233B6100237B6127E07B699B007A6813441B68BB60BB68FB73BB6823F0FF03BB6014E03B695B003A6818
:401A000013441B781A46BB68134419463B695B003A6813445B780B703B6901333B61FB7B013BFB73FB7B002BE7D17B6901337B617B69002BD4D01C37BD465DF8047B7047C8
:401A400080B582B000AF294B02221A704FF0402308221A70264B03221A70264B264A1278D2B21A70254B40F23F221A80244B41F251221A800023FB7019237B6014E0FB78E7
:401A80005B00DAB21F4B1B78DBB203F00103DBB21343DBB203F00303FB704FF4F07000F067FB7B68013B7B607B68002B02D0FB78032BE4D17B68002B02D10320FFF780FF4C
:401AC000114B4FF480721A800F4B07221A700F4B00221A700E4B48221A700B4B00221A700C4B02221A700837BD4680BD0043004000420040A14600400801004922420040B3
:401B000020420040254200400440004006400040084000400140004080B483B000AF0B4B1B78FB710A4AFB7903F00703DBB21370084AFB791B09DBB21370074B44221A70CD
:401B40000C37BD465DF8047B704700BFCF0100496E5800406F5800407658004080B582B000AF72B63A4B61221A70FFF769FF384B01221A70374A374B1B78DBB243F00403E6
:401B8000DBB213700023FB7113E0FA7913465B0013445B00304A13443B603B681A683B689B889BB210461946FFF7EEFEFB790133FB71FB79072BE8D94FF090402749FFF78F
:401BC00005FF274A264B1B78DBB243F00203DBB21370244A234B1B78DBB243F00203DBB21370214A204B1B78DBB243F04003DBB213701E4A1D4B1B78DBB243F01003DBB214
:401C000013701B481B490A22FFF7CCFE1A481B490A22FFF7C7FE1A481A490822FFF7C2FE19481A490822FFF7BDFE194A184B1B78DBB243F00803DBB21370FFF76DFF15488A
:401C400009490E22FFF7AEFE0837BD4680BD00BF00480040E846004098A20000040000480350014013500140A0430040C2430040C051004008000048105100401400004848
:401C80002251004020000048325100402800004822430040B043004080B500AF282000F031FA032000F0D4F9052000F02BFA032000F0CEF90F2000F025FA032000F0C8F9B1
:401CC000012000F01FFA022000F0C2F9052000F019FA062000F0AAF80E2000F0A7F82C2000F0A4F8082000F0A1F8012000F09EF80C2000F09BF8032000F098F8052000F0B9
:401D000001FA80BD80B500AF0C2000F08FF8024B01221A7080BD00BFA881FF1F80B500AF054B1B78002B04D1FFF7B6FF024B01221A70FFF7E7FF80BDA981FF1F80B582B073
:401D400000AF03460A46FB711346BB71FB79032B26D801A252F823F0691D0000771D0000851D0000931D0000BB79803BDBB2184600F05CF815E0BB79403BDBB2184600F081
:401D800055F80EE0BB796C3BDBB2184600F04EF807E0BB792C3BDBB2184600F047F800E000BF0837BD4680BD80B584B000AF78600123FB737B681B78BB730BE0BB7B18468D
:401DC00000F01AF8FB7B7A6813441B78BB73FB7B0133FB73BB7B002BF0D11037BD4680BD80B582B000AF0346FB71FB79184600F003F80837BD4680BD80B584B000AF034648
:401E0000FB7100F02DF8FB791B09FB73FB7B184600F0E2F8FB7903F00F03FB73FB7B184600F0DAF81037BD4680BD00BF80B584B000AF0346FB7100F013F8FB791B09FB73EC
:401E4000FB7B184600F004F9FB7903F00F03FB73FB7B184600F0FCF81037BD4680BD00BF80B582B000AF4FF4CA737B60554A554B1B78DBB223F07F03DBB21370524B1B7817
:401E8000DBB223F00F03FB704F4AFB7843F00F03DBB213704D4B1B78DBB223F00F03FB704A4AFB7813704A4B1B78DBB223F00F03FB70474AFB781370424A424B1B78DBB2CD
:401EC00023F02003DBB213703E4A3E4B1B78DBB243F04003DBB21370002000F035F9394A384B1B78DBB243F01003DBB21370012000F02AF9374B1B78FB70324A314B1B78EC
:401F0000DBB223F01003DBB21370002000F01CF9FB7803F00803FB702A4A2A4B1B78DBB243F01003DBB21370012000F00DF9254A244B1B78DBB223F01003DBB21370FB78C0
:401F4000002B02D10A2000F0FFF87B68013B7B60FB78002B02D07B68002BBDD1194A194B1B78DBB223F04003DBB21370154A154B1B78DBB223F07F03DBB21370124A124BC2
:401F80001B78DBB223F00F03DBB213700F4B1B78DBB223F00F03FB700C4AFB7843F00F03DBB213700A4B1B78DBB223F00F03FB70074AFB7843F00F03DBB213700837BD4644
:401FC00080BD00BF205100402251004023510040245100402151004080B582B000AF0346FB711A4A194B1B78DBB243F02003DBB21370164A154B1B78DBB223F04003DBB28A
:402000001370002000F0A0F8104A104B1B78DBB223F00F03DBB213700C490C4B1B78DAB2FB791343DBB243F01003DBB20B70012000F08AF8054A054B1B78DBB223F0100383
:40204000DBB213700837BD4680BD00BF2051004080B582B000AF0346FB71144A134B1B78DBB223F06003DBB21370104A0F4B1B78DBB223F00F03DBB213700C490B4B1B78ED
:40208000DAB2FB791343DBB243F01003DBB20B70012000F059F8054A044B1B78DBB223F01003DBB213700837BD4680BD2051004080B582B000AF0346FB71FB791B09DBB279
:4020C0001A46084B9B5C1846FFF78AFEFB7903F00F03044AD35C1846FFF782FE0837BD4680BD00BFC8A2000080B400AF044B1B78DBB2DB09DBB21846BD465DF8047B704739
:402100001151004080B582B000AF786008E00C4B1B68184600F02CF87B68A3F500437B607B68B3F5004FF2D8064B1B687A6802FB03F3184600F01CF80837BD4680BD00BF55
:402140001881FF1F1081FF1F80B582B000AF0346FB80FB88044A127802FB03F3184600F007F80837BD4680BD1481FF1F000000000230800803D000BF01380046FCD1704703
:40218000EFF3108072B6704780F31088704700BF014B1868704700BF7C81FF1F0E4B70B51E460E4C0025E41AA410A54204D056F8253098470135F8E708F090F8084B094C63
:4021C0001E46E41AA4100025A54204D056F8253098470135F8E770BDE8A20000E8A20000E8A20000F0A2000010B5431E0A44914204D011F8014B03F8014FF8E710BD034645
:402200000244934202D003F8011BFAE77047000000000000507265737320535749544348205357320000000050726F6772616D6D696E672050536F4334000000485353509D
:4022400020537563636573730000000048535350204661696C2053746570000045727220000000002053524F4D2000000416119321630000000000000000000000000000C3
:402280000000000000000000000000000000000000000000010000000010002011000000590200005902000080B500AF00F02AF980B500AF124B124A12688021C9020A435F
:4022C0001A60182000F00EFB0D4B0D4A12680D490A401A600C4B0D4A1A600D4B10221A600C4B802212061A60054B00221A600A4B0A4A1A600A4B00221A60BD4680BDC046F3
:4023000000010B40FFFFFBFF04010B40060000802002024008010B4000000240010000800C020B4080B582B000AF72B6FB1D00221A7023E0FB1D1A78131C5B009B185B0068
:40234000344A9B183B603B681A78597809020A43997809040A43DB781B061343191C3B681A795B791B0213439BB2081C191C00F047F9FB1D1A78FB1D01321A70FB1D1B784C
:40238000012BD7D9244A254B101C191C00F048F9234BC02292041A60224BEE2212021A60214B992212041A60204B802292051A601F4B992212041A601E4A1E4B1B78DBB2EB
:4023C00002210B43DBB213701B4A1B4B1B78DBB23C218B43DBB214210B43DBB21370154A144B1B78DBB216210B43DBB21370134B40221A60124BC02252031A60114BD82215
:4024000012011A60FFF754FF00F04AF9BD4602B080BDC04654090000600900006C090000040001400C00014010500F4018500F4030500F4000700F4001700F4000010440D5
:40244000080104400803044010B5064C2378002B07D1054B002B02D0044800E000BF0123237010BD48010020000000005009000008B5084B002B03D00748084900E000BF40
:4024800007480368002B00D108BD064B002BFBD09847F9E700000000500900004C010020C80000200000000080B500AF012000F0B3F900F07DF9031C3233181C00F06AF9DB
:4024C000BD4680BD80B500AF322000F00BFB62B6054B181C00F0ACF900F02EF9034B181C00F04AF9FEE7C0461102000014FF000080B500AF00F044FB031C1B680C2B00D1A5
:40250000FEE7FEE780B586B000AF224B7B61224B3B61204B7B6135E03B691B68FB603B695B68BB603B699B683B6000237B600CE0FB681A68BB681A60BB680433BB60FB687F
:402540000433FB607B6804337B607A683B689A42EED13B69DB683B6000237B6008E0BB6800221A60BB680433BB607B6804337B607A683B689A42F2D13B6910333B617B6998
:40258000013B7B617B69002BC6D100F0FFFAFFF799FFFEE701000000D409000080B582B000AF00237B600FE07B68032B04D8104B7A689200D35800E00E4B0F4A796889003D
:4025C0008B507B6801337B607B682F2BECD9FFF7A9FE0A4B00221A608023DB058022D205126801210A431A60BD4602B080BDC046000000005902000000000020C0000020CC
:4026000080B582B000AF786039607A683B68101C00211A1C00F0E0FABD4602B080BDC04680B586B000AF7860396000233B6100237B612FE07B699B007A68D3181B68BB6007
:402640000F23FB18BA681A70BB68FF229343BB6018E03B695B003A68D3181B781A1CBB68D318191C3B695B003A68D3185B780B703B6901333B610F23FB181A780F23FB183A
:40268000013A1A700F23FB181B78002BE1D17B6901337B617B69022BCCD9BD4606B080BD80B500AFBD4680BD80B500AF104B8022D2041A600E4B0E4A12681A60002000F0F6
:4026C0004DF80B4B0A4A12681A600A4B0C221A60012000F095F8084B31221A60074B181C00F04AF8002000F055F8BD4680BDC04600010540240105402801054018F60000B5
:4027000090B583B000AFFC1D00F030FA031C2370084B084A126801210A431A60FB1D1B78181C00F027FA0120182100F04DF8BD4603B090BD0000054080B500AF064B1B78F6
:40274000002B04D1FFF7B0FF034B01221A70FFF7D7FFBD4680BDC0466401002080B582B000AF7860034B7A681204120C1A60BD4602B080BD0801054080B582B000AF786028
:40278000034B7A681204120C1A60BD4602B080BD1401054080B582B000AF7860034B7A681204120C1A60BD4602B080BD0C01054080B500AF034B1B681B041B0C181CBD46AD
:4027C00080BDC0460C01054090B585B000AF786039600F23FC1800F0C9F9031C2370074B3A68796891400A1C1A600F23FB181B78181C00F0BFF9BD4605B090BD08000540B4
:4028000080B582B000AF7860024B7A681A60BD4602B080BD3801054080B582B000AF7860024B7A681A60BD4602B080BD3001054080B582B000AF786000F04AF87B68181C5B
:4028400000F008F8032000F013F800F037F8BD4602B080BD80B582B000AF7860034B80217A685A50BD4602B080BDC0460000002090B585B000AF021CFB1D1A700623FB604B
:402880000B23FC1800F072F9031C23700A4B0A4A1268C0218A43111CFA1D1078FA689040021C0A431A600B23FB181B78181C00F061F9BD4605B090BD10E400E080B500AF06
:4028C000024B802252021A60BD4680BD00E100E080B500AF024B802252021A60BD4680BD80E100E090B585B000AF78600C23FC1800F03CF9031C23707B68022B00D8B4E061
:402900007B68302B00D9B0E05E4B1B78DBB21A1E7B689A420AD35C4A0F23FB1812781A705A4A0E23FB1812781A703FE0584B1B78DBB21A1E7B689A420AD3564A0F23FB18BD
:4029400012781A70544A0E23FB1812781A702DE0524B1B78DBB21A1E7B689A420AD3504A0F23FB1812781A704E4A0E23FB1812781A701BE04C4B1B78DBB21A1E7B689A4223
:402980000AD34A4A0F23FB1812781A70484A0E23FB1812781A7009E0464A0F23FB1812781A70454A0E23FB1812781A707B68DA1E0B23FB1841498A5C1A700B23FB181B78C0
:4029C0002F2B0DD97B682A2B0AD93D4B19221A60052000F0C1F80D23FB1819221A7007E0374B1B68DAB20D23FB183F210A401A700B23FA180D23FB1812781B789A4208D224
:402A00002F4B7A68033A2D498A5C1A60052000F0A3F87B68284A9A180A23FB1812781A70284B0A22BA1812781A60274B0F22BA1812781A60254B0E22BA1812781A60052093
:402A400000F074F80B23FA180D23FB1812781B789A4209D91A4B7A68033A18498A5C1A60052000F079F803E002E0002000F030F80C23FB181B78181C00F07CF8BD4605B0AF
:402A800090BDC046C0F1FF0FC1F1FF0FC2F1FF0FC3F1FF0FC4F1FF0FC5F1FF0FC6F1FF0FC7F1FF0FC8F1FF0FC9F1FF0FCAF1FF0FCBF1FF0FCCF1FF0FCDF1FF0F7C09000071
:402AC0002CFF0B4028FF0B401CFF0B4020FF0B4080B582B000AF021CFB1D1A7001BEBD4602B080BD80B582B000AF786009E00C4B1B68181C00F030F87B680A4A94466344E2
:402B00007B607A6880231B029A42F0D8064B1B687A685343181C00F01FF8BD4602B080BDD80000200080FFFFD000002080B582B000AF021CBB1D1A80BB1D1B88044A12789C
:402B40005343181C00F008F8BD4602B080BDC046D4000020000000000230800804D0C0460138FDD1C046C046C0467047EFF3108072B6704780F310887047C046C046C04626
:402B8000014B18687047C046400100200E4B70B500251E1C0D4CE41AA410A54204D0AB00F35898470135F8E700F04EF8084B00251E1C084CE41AA410A54204D0AB00F358FF
:402BC00098470135F8E770BDBC090000BC090000BC090000C4090000031C8218934202D019700133FAE770470000000000300F40000400400F40000401330F4003410F40B7
:402C000004430F40E61062048E04D84018808C40C608E608030405060708090A0B0C0E0F101112131415161718191B1C1D1E1F2021222325262728292A2B2E2F3031323351
:402C40003435000043000000F8B5C046F8BC08BC9E467047D901000005030000F8B5C046F8BC08BC9E467047B1010000E8090000C80000208000000020000000000000000F
:402C80000000000000366E01C05D0000180000000000E02E010000000000000000000000000000000000000000000000000000000000000000000000AC0900000000000076
:402CC0000000000000000000000000000000000000000000000000000000000000000000000000000000000000000000000000000000000000000000E000002000000000D4
:402D00000000000000000000000000000000000000000000000000000000000000000000000000000000000000000000000000000000000000000000000000000000000093
:402D40000000000000000000000000000000000000000000000000000000000000000000000000000000000000000000000000000000000000000000000000000000000053
:402D80000000000000000000000000000000000000000000000000000000000000000000000000000000000000000000000000000000000000000000000000000000000013
:402DC00000000000000000000000000000000000000000000000000000000000000000000000000000000000000000000000000000000000000000000000000000000000D3
:40A28000000000000000000000000000000000000000000000000000005100401000405100403000F0510040100000000140001000140140000800400140000A004C0140A5
:40A2C00000020050014020003031323334353637383941424344454643000000F8B500BFF8BC08BC9E4670474D000000FD180000F8B500BFF8BC08BC9E467047290000003D
:40A3000010A300000881FF1F780000003800000000000000BF4DC10318F600003F00000000000C7B000000000000000000000000000000000000000000000000000000006F
:40A3400000000000D8A20000000000000000000000000000000000000000000000000000000000000000000000000000000000000000000000000000000000000000000063
:40A38000000000001C81FF1F0000000000000000000000000000000000000000000000000000000000000000000000000000000000000000000000000000000000000000E2
:40A3C000000000000000000000000000000000000000000000000000000000000000000000000000000000000000000000000000000000000000000000000000000000005D
:40A40000000000000000000000000000000000000000000000000000000000000000000000000000000000000000000000000000000000000000000000000000000000001C
:40A4400000000000000000000000000000000000000000000000000000000000000000000000000000000000000000000000000000000000000000000000000000000000DC
:40A48000000000000000000000000000000000000000000000000000000000000000000000000000000000000000000000000000000000000000000000000000000000009C
:020000040003F7
:0200000480007A
:40000000025200400C8064040C00040808000000000000008000008B0B00000000000000007F7F0000000000002020000000000000000000000000000000000000000000C4
:400040000000000000000000000000000000000000000000000000000000000000000000000000000000000000000000000000000000000000000000000000000000000080
:400080000000000000000000000000000000000000000000000000000000000000000000000000000000000000000000000000000000000000000000000000000000000040
:4000C0000000000000000000000000000000000000000000000000000000000000000000000000000000000000000000000000000000000000000000000000000000000000
:4001000000000000000000000000000000000000000000000000000000000000000000000000000000000000000000000000000000000000000000000000000000000000BF
:0200000490006A
:0400000000004005B7
:0200000490105A
:04000000BC90ACAF55
:0200000490303A
:020000004ADFD5
:0200000490402A
:4000000000000000000000000000000000000000000000000000000000000000000000000000000000000000000000000000000000000000000000000000000000000000C0
:400040000000000000000000000000000000000000000000000000000000000000000000000000000000000000000000000000000000000000000000000000000000000080
:400080000000000000000000000000000000000000000000000000000000000000000000000000000000000000000000000000000000000000000000000000000000000040
:4000C0000000000000000000000000000000000000000000000000000000000000000000000000000000000000000000000000000000000000000000000000000000000000
:0200000490501A
:0C00000000012E16106900012E275B483D
:00000001FF