:400000000080002011000000D5180000D518000080B500AF024A034B1B68136001F05EFCBC760040FA46004010B5054C237833B9044B13B10448AFF300800123237010BDE2
:400040002081FF1F000000000C230000084B10B51BB108480849AFF300800848036803B910BD074B002BFBD0BDE81040184700BF000000000C2300002481FF1F0881FF1FB3
:400080000000000080B582B000AF01F0CDFE0020002101F0D9FE284801F00CFF00BF02F0A9F80346012BFAD0012001F045FF0020002101F0C9FE214801F0FCFE00F04AF893
:4000C0000346FB71012001F037FFFB79012B07D10020002101F0B8FE194801F0EBFE2AE00020002101F0B0FE164801F0E3FE164B1B78184602F062F801F03CFA0346BB7114
:400100000120002101F0A0FE104801F0D3FEBB79184602F053F8BB7903F02003002B0AD000F0D2FB03467B71094801F0C3FE7B79184602F043F8FEE71023000024230000E3
:4001400038230000482300004A81FF1F582300006023000080B500AF3E4B00221A703D4B1B780133DAB23B4B1A7000F03DFD0346002B01D100236AE0364B1B780133DAB21D
:40018000344B1A7000F0CAFD0346002B01D100235DE0304B1B780133DAB22E4B1A7000F03DFE0346002B01D1002350E0294B1B780133DAB2274B1A7000F0C2FE0346002B5D
:4001C00001D1002343E0234B1B780133DAB2214B1A7000F0CDFE0346002B01D1002336E01C4B1B780133DAB21A4B1A7000F050FF0346002B01D1002329E0164B1B78013374
:40020000DAB2144B1A7000F0DBFF0346002B01D100231CE00F4B1B780133DAB20D4B1A7001F05EF80346002B01D100230FE0094B1B780133DAB2074B1A7001F05DF90346D9
:40024000002B01D1002302E001F0A0F90123184680BD00BF4A81FF1F80B400AF084B084A1278D2B2D2B222F00E02D2B242F00C02D2B2D2B21A70BD465DF8047B704700BFAC
:400280006350004080B400AF084B084A1278D2B2D2B222F00E02D2B242F00202D2B2D2B21A70BD465DF8047B704700BF6350004080B400AF084B084A1278D2B2D2B222F057
:4002C0000E02D2B242F00C02D2B2D2B21A70BD465DF8047B704700BF6250004080B400AF084B084A1278D2B2D2B222F00E02D2B242F00202D2B2D2B21A70BD465DF8047BFA
:40030000704700BF6250004080B400AF084B084A1278D2B2D2B222F00E02D2B242F00C02D2B2D2B21A70BD465DF8047B704700BF1D50004080B400AF084B084A1278D2B233
:40034000D2B222F00E02D2B242F00202D2B2D2B21A70BD465DF8047B704700BF1D50004080B400AF054A054B1B78DBB243F00803DBB21370BD465DF8047B7047C0510040C2
:4003800080B400AF054A054B1B78DBB223F00803DBB21370BD465DF8047B7047C051004080B400AF054A054B1B78DBB243F00403DBB21370BD465DF8047B7047C0510040C3
:4003C00080B400AF054A054B1B78DBB223F00403DBB21370BD465DF8047B7047C051004080B400AF054A054B1B78DBB243F02003DBB21370BD465DF8047B704730510040FB
:4004000080B400AF054A054B1B78DBB223F02003DBB21370BD465DF8047B70473051004080B400AF064B1B78DBB29B08DBB203F00103DBB21846BD465DF8047B704700BFD2
:40044000C151004080B584B000AF0346FB710023FB730023FB7317E0FB7903F00103002B06D0FFF78DFFFFF79BFFFFF779FF05E0FFF786FFFFF7A4FFFFF772FFFB795B0821
:40048000FB71FB7B0133FB73FB7B072BE4D91037BD4680BD80B582B000AF0023FB7100237B710023BB710023FB7125E0164A164B1B78DBB223F00803DBB21370FFF7B0FF81
:4004C00003467B71104A104B1B78DBB243F00803DBB21370BB795B08BB717B79002B04D0BB7963F07F03BB7103E0BB7903F07F03BB71FB790133FB71FB79072BD6D9BB7964
:4005000018460837BD4680BDC051004080B500AFFFF7E4FEFFF734FFFFF722FF80BD00BF80B500AFFFF7C4FEFFF72AFFFFF718FF80BD00BF80B582B000AF0023FB71002309
:400540007B710023BB710023BB7113E0FFF718FFFFF766FF03467B71FFF702FF7A79BB7902FA03F3DAB2FB791343DBB2FB71BB790133BB71BB79022BE8D9FB79184608373B
:40058000BD4680BD80B582B000AF0346FB71FFF7F7FEFB79002B02D0FFF702FF01E0FFF70FFFFFF7DDFE0837BD4680BD80B582B000AFFFF7E5FEFFF733FF0346FB71FFF7E6
:4005C000CFFEFB7918460837BD4680BD80B582B000AFFFF7F5FE0023FB7106E0FFF7D0FEFFF7BEFEFB790133FB71FB79022BF5D90837BD4680BD00BF80B485B000AF0346D1
:40060000FB710023FB730023BB730DE0FB7903F00103002B02D0FB7B0133FB73FB795B08FB71BB7B0133BB73BB7B072BEED9FB7B18461437BD465DF8047B704780B582B0E1
:4006400000AF0023FB710023BB710DE0BB790C4AD35C1846FFF7D0FF03461A46FB791344FB71BB790133BB71BB79032BEED9FB7903F00103DBB218460837BD4680BD00BFF3
:400680004C81FF1F90B583B000AF0023FB71224B1B781846FFF7D6FEFFF738FFFFF74AFF03461A461D4B1A700023BB7109E0BC79FFF7F0FE03461A46194B1A55BB79013335
:4006C000BB71BB79032BF2D9FFF770FF03467B71FFF726FFFFF77AFFFB790133FB710F4B1B78022B02D1FB79042BD0D90B4B1B78012B0DD1FFF7A2FF03461A467B79934234
:4007000006D0064B1B7843F00803DAB2034B1A700C37BD4690BD00BF5181FF1F5081FF1F4C81FF1F80B582B000AF0023FB71FFF785FF03467B71184B1B781846FFF782FE23
:40074000FFF7E4FEFFF7F6FE03461A46134B1A70FFF7E6FE0023BB7108E0BB79104AD35C1846FFF76FFEBB790133BB71BB79032BF3D97B791846FFF705FFFFF727FFFB79F9
:400780000133FB71054B1B78022B02D1FB79042BD1D90837BD4680BD5181FF1F5081FF1F4C81FF1F80B483B000AF1F4A1E4B1B78DBB243F00403DBB213700023FB7112E04D
:4007C000194A194B1B78DBB223F00803DBB21370154A154B1B78DBB243F00803DBB21370FB790133FB71FB79322BE9D90E4A0E4B1B78DBB223F00803DBB213700A4A0A4B68
:400800001B78DBB223F00403DBB21370064A064B1B78DBB243F00803DBB213700C37BD465DF8047B704700BFC051004080B582B000AF00237B602048204900F00BFF1F4B35
:400840001B6803F010431D4A13607B6801337B601A4B1B68002B04D07B6842F6B0029342E9D97B6842F6B00293420CD9144B1B7843F02003DAB2124B1A7012480F4900F0B4
:40088000E9FE002314E00F480C4900F0E3FE0B4B1B6803F07043B3F1204F08D0084B1B7843F02003DAB2064B1A70002300E0012318460837BD4680BD040010404081FF1F79
:4008C0005081FF1F0800104080B400AF034B1B68DBB21846BD465DF8047B70474081FF1F80B582B000AF00237B6000233B604DF2B6337B601A48796800F0DAFE194B1B78CE
:40090000012B01D0002327E017484FF0004100F0CFFE144B1B78012B01D000231CE0FFF785FF03461A46114B1A70104B1B78012B01D0002310E03B460B48194600F08AFE34
:40094000084B1B78012B01D0002305E03B681B0BDAB2074B1A70012318460837BD4680BD080010405081FF1F040010404481FF1F4581FF1F80B582B000AFFB1D184600F07C
:4009800043FF224B03221A70214B1B78012B0ED0022B17D0002B23D1FB79012B03D11B4B01221A7020E0194B03221A701CE0FB79002B03D1154B03221A7015E0134B002210
:4009C0001A7011E0FB79012B02D0FB79022B03D10E4B02221A7007E00C4B03221A7003E00A4B03221A7000BF084B1B78032B08D1084B1B7863F07F03DAB2064B1A700023C9
:400A000000E0012318460837BD4680BD5281FF1F4581FF1F5081FF1F80B586B000AF03463960FB711346BB8000233B610023FB600023FB82FB791B0603F55743B6333B618C
:400A4000BB88013BFB603648396900F031FE354B1B78012B01D000235DE03348F96800F027FE304B1B78012B01D0002353E00023FB822CE0FB8A3A6813441B781946FB8AFA
:400A800001333A6813441B781B02CA18FB8A023339680B441B781B041A44FB8A033339680B441B781B0613443B61FB8A03F1005303F584731846396900F0FAFD194B1B78D2
:400AC000012B01D0002326E0FB8A0433FB82FB8AFF2BCFD91548124900F0EAFD114B1B78012B01D0002316E01148124900F0E0FD0C4B1B78012B01D000230CE0FFF796FEAB
:400B000003461A460C4B1A700B4B1B78012B01D0002300E0012318461837BD4680BD00BF000100205081FF1F040100200800104004001040040000804481FF1F80B584B0C1
:400B400000AF03463960FB800023FB600023BB60FB88DBB21A04FB8803F47F431B04134403F55E43B633FB601A48F96800F0A0FD194B1B78012B01D0002327E017481849C2
:400B800000F096FD144B1B78012B01D000231DE0FFF74CFE03461A46124B1A70114B1B78012B01D0002311E007F108030948194600F050FD084B1B78012B01D0002305E0F8
:400BC000BB6823F070423B681A60012318461037BD4680BD080010405081FF1F040010400B0000804481FF1F80B584B000AF0023BB600023FB8100237B60FFF785FBFFF77F
:400C0000EFFBFFF729FBFFF7BBFBFFF751FBFFF7D7FBFFF7F5FB00F06FFDFFF7E1FBFFF7C1FD07F10803A520194600F0C3FCFB890133FB81354B1B78012B02D0FB89132B55
:400C4000EDD9FB89142B08D1304B1B7843F01003DAB22E4B1A70002353E0BB682C4A934208D02A4B1B7843F04003DAB2274B1A70002346E0A9204FF0A84100F0C5FC234B34
:400C80001B78012B01D000233BE0B120002100F0BBFC1E4B1B78012B01D0002331E0A320022100F0B1FC194B1B78012B01D0002327E018484FF0004100F0FAFC134B1B7848
:400CC000012B01D000231CE03B1D1248194600F0C1FC0E4B1B78012B01D0002311E07B68002B01DB00230CE0FFF7A0FD03461A46094B1A70084B1B78012B01D0002300E024
:400D0000012318461037BD4680BD00BF5081FF1F7714B10B140003404481FF1F80B586B000AF0023BB6000233B6100237B6000233B6007F10803184600F0F0FC4DF2B63343
:400D40003B613248396900F0B3FC314B1B78012B01D0002355E02F484FF0004100F0A8FC2B4B1B78012B01D000234AE0FFF75EFD03461A46284B1A70274B1B78012B01D0E1
:400D800000233EE03B1D2148194600F063FC204B1B78012B01D0002333E03B461D48194600F058FC1A4B1B78012B01D0002328E03B681A067B6803F47F031A447B681B022C
:400DC0009BB21A447B681B0ADBB21344FB600023FB7512E0BA68FB68534023F47F03002B08D00B4B1B7843F04003DAB2084B1A70002306E0FB7D0133FB75FB7D032BE9D973
:400E0000012318461837BD4680BD00BF080010405081FF1F040010404481FF1F80B582B000AF00237B60FFF75BFDFFF7A3FD03461A463A4B1A70394B1B78012B01D000237D
:400E400068E0374B1B78002B03D0354B1B78012B2DD14DF6B6537B603248796800F028FC314B1B78012B01D0002353E02F482D4900F01EFC2C4B1B78012B01D0002349E098
:400E80002B482C4900F014FC274B1B78012B01D000233FE0FFF7CAFC03461A461F4B1A701E4B1B78012B01D0002333E031E01C4B1B78022B2DD1204B7B601C48796800F0CD
:400EC000F7FB194B1B78012B01D0002322E018481A4900F0EDFB144B1B78012B01D0002318E0FFF7A3FC03461A460C4B1A700B4B1B78012B01D000230CE0FFF775FE03467C
:400F00001A46064B1A70054B1B78012B01D0002300E0012318460837BD4680BD4481FF1F5281FF1F000100205081FF1F08001040040010400A000080B6E001000D00008054
:400F400080B500AF4FF400400749FFF7F7FD03461A46064B1A70054B1B78012B01D0002300E00123184680BD3C81FF1F4481FF1F80B5C4B000AF002387F80D310023A7F8F2
:400F80000A310023A7F80E310023C7F8043100F097FC0346A7F80A310023A7F80E315EE0B7F80E213B1D1046194600F0D9FBB7F80E315B0A9BB287F80D3197F80D213B1DD8
:400FC000104619464FF48072FFF726FD03461A46294B1A70284B1B78012B01D0002345E0B7F80E31DBB21A04B7F80E3103F47F431B04134403F55943B633C7F804311F486E
:40100000D7F8041100F054FB1D4B1B78012B01D000232BE01B48194900F04AFB184B1B78012B01D0002321E01748184900F040FB134B1B78012B01D0002317E0FFF7F6FB7C
:4010400003461A460C4B1A700B4B1B78012B01D000230BE0B7F80E310133A7F80E31B7F80E21B7F80A319A429AD30123184607F58877BD4680BD00BF4481FF1F0001002061
:401080005081FF1F08001040040010400600008080B5ADF5047D00AF0023C7F800320023A7F80A320023C7F8043200F009FC0346A7F80A320023A7F80E3272E0B7F80E3282
:4010C0001B02C7F80432B7F80E2207F580731046194600F045FB0023A7F80C3237E0B7F80C22D7F804321A4407F500731046194600F0B0FA314B1B78012B01D0002357E0B0
:40110000B7F80C32D7F80022D1B23A46D154B7F80C320133D7F80022120AD1B23A46D154B7F80C320233D7F80022120CD1B23A46D154B7F80C320333D7F80022120ED1B243
:401140003A46D154B7F80C320433A7F80C32B7F80C32FF2BC3D90023A7F80C3218E0B7F80C323A46D25CB7F80C3207F58071CB5C9A4208D0114B1B7843F04003DAB20F4B83
:401180001A70002314E0B7F80C320133A7F80C32B7F80C32FF2BE2D9B7F80E320133A7F80E32B7F80E22B7F80A329A4286D30123184607F50477BD4680BD00BF5081FF1FD6
:4011C00080B594B000AF002387F84F30002387F84E30002387F84D300023A7F84A3000237B6400F06DFB0346A7F84A30B7F84A305B0A9BB287F84E30B7F84A2097F84E3071
:40120000DB0092FBF3F387F84D30FB1C184600F0FBFA002387F84F304DE097F84D103A1D97F84F30084611461A4600F0FDFA97F84D309BB297F84F103A1D084611461A46DC
:40124000FFF7EAFB03461A46204B1A701F4B1B78012B01D0002335E0FB781A0497F84F301B06134403F56043B6337B641848796C00F01EFA174B1B78012B01D0002321E0E6
:401280001548164900F014FA124B1B78012B01D0002317E0FFF7CAFA03461A460B4B1A700A4B1B78012B01D000230BE097F84F30013387F84F3097F84F2097F84E309A4210
:4012C000ABD3012318465037BD4680BD4481FF1F080010405081FF1F040010400D00008080B5A6B000AF0023C7F888300023C7F894300023A7F89030002387F887300023A4
:4013000087F88F30002387F89230002387F88E3000F0D6FA0346A7F89030B7F890305B0A9BB287F88E30B7F8902097F88E30DB0092FBF3F387F88F306B4BC7F89430002351
:4013400087F892308BE097F88F1007F1440297F89230084611461A4600F066FA002387F8933043E097F89320D7F894301A4407F188031046194600F06DF95C4B1B78012B00
:4013800001D00023ABE097F89330D7F88820D2B207F198010B4403F8942C97F893300133D7F88820120AD2B207F198010B4403F8942C97F893300233D7F88820120CD2B2EE
:4013C00007F198010B4403F8942C97F893300333D7F88820120ED2B207F198010B4403F8942C97F89330043387F8933097F8932097F88F309A42B5D3002387F893301DE0F3
:4014000097F8933007F19802134413F8542C97F8933007F198010B4413F8943C9A4208D0324B1B7843F04003DAB2304B1A70002355E097F89330013387F8933097F89320AC
:4014400097F88F309A42DBD397F89230013387F89230D7F8943003F50063C7F8943097F8922097F88E309A42FFF46DAF07F18703184600F0C9F907F188031D48194600F01B
:40148000E9F81A4B1B78012B01D0002327E0D7F888301B0EDBB203F00F03DAB2154B1A70144B1B78002B03D1124B01221A7006E0104B1B78012B02D10E4B00221A700D4B49
:4014C0001A7897F887309A4208D0084B1B7843F04003DAB2054B1A70002300E0012318469837BD4680BD00BF00F0FF0F5081FF1F7CF0FF0F4581FF1F80B584B000AF0023C5
:40150000BB600023FB810023FB8007F108034FF400401946FFF712FB03461A46124B1A70114B1B78012B01D0002318E0BB689AB20E4B1B689BB2D31AFB81BB1D184600F0AD
:4015400099F9FB88FA899A4208D0094B1B7843F04003DAB2064B1A70002300E0012318461037BD4680BD00BF4481FF1F3C81FF1F5081FF1F80B400AF034B1B781846BD46BE
:401580005DF8047B704700BF5081FF1F80B500AFFEF7F6FEFEF714FFFEF7A0FEFEF772FEFEF72EFF00F0A8F8FEF71AFFFEF7C2FE80BD00BF80B582B000AF03463960FB7150
:4015C0000E4AFB791370FFF75DF80D4B1B78012B00D00FE00B4BDB781A060A4B9B781B041A43084B5B781B021343064A12781A433B681A600837BD4680BD00BF5181FF1FB3
:401600005081FF1F4C81FF1F80B582B000AF03463960FB710D4AFB7913703B681B0EDAB20B4BDA703B681B0CDAB2094B9A703B681B0ADAB2064B5A703B68DAB2044B1A70FB
:40164000FFF770F80837BD4680BD00BF5181FF1F4C81FF1F80B582B000AF786039608B207968FFF7D1FF114B1B78012B02D00F4B1B7817E09F203968FFF79CFF0B4B1B786F
:40168000012B02D0094B1B780CE09F203968FFF791FF064B1B78012B02D0044B1B7801E0024B1B7818460837BD4680BD5081FF1F80B582B000AF786039608B207968FFF719
:4016C000A3FF0C4B1B78012B02D00A4B1B780CE0BB203968FFF798FF064B1B78012B02D0044B1B7801E0034B1B7818460837BD4680BD00BF5081FF1F80B483B000AF002339
:40170000FB8002E0FB880133FB80FB88B3F5167FF8D30C37BD465DF8047B704780B485B000AF78600023FB730FE07B681A68FB7B0A49CB5C1946FB7BDB0001FA03F31A43FB
:401740007B681A60FB7B0133FB73FB7B032BECD91437BD465DF8047B704700BF6823000080B485B000AF03463960FB800023BB81FB88B3F5357F14D80023FB810DE0FB89B9
:401780003A681344F988FA891D4809020A44024412781A70FB890133FB81FB89FF2BEED928E0FB88B3F57E7F16D30023FB810FE0FB893A681344FA88A2F57E71FA89114863
:4017C00009020A44024412781A70FB890133FB81FB89FF2BECD90DE00023FB8107E0FB893A68134400221A70FB890133FB81FB89FF2BF4D91437BD465DF8047B704700BFAC
:40180000F4230000F4F8020080B483B000AF7860044B1A787B681A700C37BD465DF8047B704700BFF023000080B485B000AF03463960FB711346BB710023FB810EE0FB89C8
:401840003A681344F989BA79F87900FB02F20A4407498A5C1A70FB890133FB81FB799BB2FA899A42EBD31437BD465DF8047B70477023000080B485B000AF78600023FB734D
:4018800014E07B681B8899B2FB7B0C4AD35C1A46FB7BDB0002FA03F39BB20A4613439BB29AB27B681A80FB7B0133FB73FB7B012BE7D91437BD465DF8047B70476C230000DA
:4018C00080B400AF4FF480631846BD465DF8047B704700BF80B400AFFEE700BF80B586B000AF224B7B61224B3B61204B7B6135E03B691B68FB603B695B68BB603B699B683A
:401900003B6000237B600CE0FB681A68BB681A60BB680433BB60FB680433FB607B6804337B607A683B689A42EED13B69DB683B6000237B6008E0BB6800221A60BB680433A0
:40194000BB607B6804337B607A683B689A42F2D13B6910333B617B69013B7B617B69002BC6D100F099FCFEF78DFBFEE7010000005801030080B582B000AF174B174A1A6077
:40198000174A174B1B6843F40073136000237B600FE07B68032B04D8124A7B6852F8233000E0114B11497A6841F822307B6801337B607B682F2BECD90D4B1B78DAB20D4B48
:4019C0001A700D4B094A1A6000F04EF90B4B00221A600837BD4680BD0CED00E00004FA0514ED00E000000000D51800000080FF1FBC7600400481FF1F08ED00E00081FF1FBF
:401A000080B582B000AF78603960786800213A6800F073FC0837BD4680BD00BF80B584B000AFF860B9607A60F868B9687A6800F059FC1037BD4680BD80B483B000AF0346EE
:401A4000FB71FEE780B487B000AF7860396000233B6100237B6127E07B699B007A6813441B68BB60BB68FB73BB6823F0FF03BB6014E03B695B003A6813441B781A46BB6889
:401A8000134419463B695B003A6813445B780B703B6901333B61FB7B013BFB73FB7B002BE7D17B6901337B617B690E2BD4D91C37BD465DF8047B704780B582B000AF304B0D
:401AC00005221A802F4B18221A702F4B02221A704FF0402308221A702C4B03221A702C4B2C4A1278D2B21A702B4B40F23F221A802A4B41F251221A800023FB7019237B60C1
:401B000014E0FB785B00DAB2254B1B78DBB203F00103DBB21343DBB203F00303FB704FF4F07000F0A9FB7B68013B7B607B68002B02D0FB78032BE4D17B68002B02D1032091
:401B4000FFF77AFF174B4FF480721A80154B07221A70154B00221A70144B48221A70114B00221A70124B02221A70124A114B1B78DBB243F00103DBB213700837BD4680BDA2
:401B800080400040824000400043004000420040A14600400801004922420040204200402542004004400040064000400840004001400040A243004080B582B000AF1F4B00
:401BC0001B78FB711E4B1B78BB711E4B1B787B711D4AFB7903F00703DBB213701B4AFB791B09DBB21370164ABB7943F00303DBB21370144A7B7943F00303DBB21370144B0A
:401C000010221A70134B40221A70134B40221A70124B01221A70124B20221A700A2000F019FB084A7B791370054ABB7913700D4B66221A700837BD4680BD00BFCF01004963
:401C4000F8460040F94600406E5800406F5800401D510040095900400B590040285B00402B5B00407658004080B582B000AF72B63A4B61221A70FFF71FFF384B01221A70BB
:401C8000374A374B1B78DBB243F00403DBB213700023FB7113E0FA7913465B0013445B00304A13443B603B681A683B689B889BB210461946FFF7A4FEFB790133FB71FB79E3
:401CC000072BE8D94FF090402749FFF7BBFE274A264B1B78DBB243F00203DBB21370244A234B1B78DBB243F00203DBB21370214A204B1B78DBB243F04003DBB213701E4A51
:401D00001D4B1B78DBB243F01003DBB213701B481B490822FFF782FE1A481B490A22FFF77DFE1A481A490A22FFF778FE19481A490A22FFF773FE194A184B1B78DBB243F02E
:401D40000803DBB21370FFF737FF154809490E22FFF764FE0837BD4680BD00BF00480040E8460040F40003003C0000480350014013500140A0430040C24300400251004003
:401D8000CC000048C0510040D400004810510040E000004820510040EC00004822430040B043004080B500AF282000F031FA032000F0D4F9052000F02BFA032000F0CEF9E1
:401DC0000F2000F025FA032000F0C8F9012000F01FFA022000F0C2F9052000F019FA062000F0AAF80E2000F0A7F82C2000F0A4F8082000F0A1F8012000F09EF80C2000F0F1
:401E00009BF8032000F098F8052000F001FA80BD80B500AF0C2000F08FF8024B01221A7080BD00BF4881FF1F80B500AF054B1B78002B04D1FFF7B6FF024B01221A70FFF759
:401E4000E7FF80BD4981FF1F80B582B000AF03460A46FB711346BB71FB79032B26D801A252F823F0751E0000831E0000911E00009F1E0000BB79803BDBB2184600F05CF859
:401E800015E0BB79403BDBB2184600F055F80EE0BB796C3BDBB2184600F04EF807E0BB792C3BDBB2184600F047F800E000BF0837BD4680BD80B584B000AF78600123FB7330
:401EC0007B681B78BB730BE0BB7B184600F01AF8FB7B7A6813441B78BB73FB7B0133FB73BB7B002BF0D11037BD4680BD80B582B000AF0346FB71FB79184600F003F80837C5
:401F0000BD4680BD80B584B000AF0346FB7100F02DF8FB791B09FB73FB7B184600F0E2F8FB7903F00F03FB73FB7B184600F0DAF81037BD4680BD00BF80B584B000AF0346B7
:401F4000FB7100F013F8FB791B09FB73FB7B184600F004F9FB7903F00F03FB73FB7B184600F0FCF81037BD4680BD00BF80B582B000AF4FF4CA737B60554A554B1B78DBB27E
:401F800023F07F03DBB21370524B1B78DBB223F00F03FB704F4AFB7843F00F03DBB213704D4B1B78DBB223F00F03FB704A4AFB7813704A4B1B78DBB223F00F03FB70474A26
:401FC000FB781370424A424B1B78DBB223F02003DBB213703E4A3E4B1B78DBB243F04003DBB21370002000F035F9394A384B1B78DBB243F01003DBB21370012000F02AF9C7
:40200000374B1B78FB70324A314B1B78DBB223F01003DBB21370002000F01CF9FB7803F00803FB702A4A2A4B1B78DBB243F01003DBB21370012000F00DF9254A244B1B78EA
:40204000DBB223F01003DBB21370FB78002B02D10A2000F0FFF87B68013B7B60FB78002B02D07B68002BBDD1194A194B1B78DBB223F04003DBB21370154A154B1B78DBB2E9
:4020800023F07F03DBB21370124A124B1B78DBB223F00F03DBB213700F4B1B78DBB223F00F03FB700C4AFB7843F00F03DBB213700A4B1B78DBB223F00F03FB70074AFB787C
:4020C00043F00F03DBB213700837BD4680BD00BF205100402251004023510040245100402151004080B582B000AF0346FB711A4A194B1B78DBB243F02003DBB21370164A55
:40210000154B1B78DBB223F04003DBB21370002000F0A0F8104A104B1B78DBB223F00F03DBB213700C490C4B1B78DAB2FB791343DBB243F01003DBB20B70012000F08AF804
:40214000054A054B1B78DBB223F01003DBB213700837BD4680BD00BF2051004080B582B000AF0346FB71144A134B1B78DBB223F06003DBB21370104A0F4B1B78DBB223F067
:402180000F03DBB213700C490B4B1B78DAB2FB791343DBB243F01003DBB20B70012000F059F8054A044B1B78DBB223F01003DBB213700837BD4680BD2051004080B582B0A1
:4021C00000AF0346FB71FB791B09DBB21A46084B9B5C1846FFF78AFEFB7903F00F03044AD35C1846FFF782FE0837BD4680BD00BF2401030080B400AF044B1B78DBB2DB096A
:40220000DBB21846BD465DF8047B70471151004080B582B000AF786008E00C4B1B68184600F02AF87B68A3F500437B607B68B3F5004FF2D8064B1B687A6802FB03F318461F
:4022400000F01AF80837BD4680BD00BF1881FF1F1081FF1F80B582B000AF0346FB80FB88044A127802FB03F3184600F005F80837BD4680BD1481FF1F0230800803D000BFC7
:4022800001380046FCD17047EFF3108072B6704780F31088704700BF0E4B70B51E460E4C0025E41AA410A54204D056F8253098470135F8E72DF03EFF084B094C1E46E41A80
:4022C000A4100025A54204D056F8253098470135F8E770BD4001030040010300400103004801030010B5431E0A44914204D011F8014B03F8014FF8E710BD034602449342A3
:4023000002D003F8011BFAE77047000000000000507265737320535749544348205357320000000050726F6772616D6D696E672050536F433400000048535350205375636C
:40234000636573730000000048535350204661696C2053746570000045727220000000002053524F4D200000135111A37A6C00000000000000000000000000000000000051
:40238000000000000000000000000000000000000000000000000000000000000000000000000000000000000000000000000000000000000000000000000000000000001D
:4023C000000000000000000000000000000000000000000000000000000000000000000000000000000000000000000000000000010000000080002011000000B101000079
:40240000B101000008B500F033FA00F0D3F8000038B572B680250024294BED001C602A1C211C284800F01DFD2A1C211C264800F018FDEE22254B12061A60992302213C205A
:40244000234A1B041360234A1360234A13780B43224913700B788343283803430B70162113781C300B431370D8221D4B12041A6020221C4B1A60C0221B4B92021A60122261
:402480001A4B1A6000F06AFB194A1A4B1A491A601A4B063A1A608022194B12031A60082000F02EFB082000F037FB164B164A1C6003231360154A1360154B1C6038BDC04685
:4024C0006CF02E4000300F4000400F400000024000500F4010500F4000700F4001700F40080004400001044008010440300010400600008004010B403109000008010B4033
:4025000000010B400C020B403000304030003140000E3F4010B5064C2378002B07D1054B002B02D0044800E000BF0123237010BD6001002000000000880A000008B5084B94
:40254000002B03D00748084900E000BF07480368002B00D108BD064B002BFBD09847F9E700000000880A000064010020D00000200000000008B5112000F0B8FAC30701D467
:40258000002808D10548012100F069F84022044B1A6000F0CDFA00F0D5F9FEE7D0FF0300C000002008B500F027FC03680C2B00D1FEE7FEE770B51049104B01394A1C15D0B8
:4025C00000221E685C689D68A018AA4203D0B058A0500432F8E7021CDC68151AA54202D0002520C2F9E710330139E7E700F00AFCFFF7C0FFFEE7C04601000000E00A0000E9
:402600000121104A10B51368141C8B43136000239A000D49032B01D80C4989580C4801338150302BF4D1FFF7F3FE0022094B1A60094B1A68002A00D11A600122236813437E
:40264000236010BD00001040B10100000000000000000020C8000020C00000200047F0B5FF23051C9D432B1CC3B06E1C0191040AFF361A789446614602AA571BF954013346
:40268000B342F6D16B461B79C0B21354111CA0B200F0BCF943B0F0BD013808B50B282FD80902494200F09EFB06080A0C0E10141216191B20174B13E0174B16E0174B0AE062
:4026C000174B12E0174B0BE0174B09E0174B02E0174B00E0174BC91816E0174B05E0174BC9180878C0B213E0154BC9180A7848788B7800021B041843CB7810431B0606E021
:40270000002000F013FA00210B7848780002184308BDC046C0FF0300C1FF0300C5FF0300C9FF0300D0FF0300D1FF0300D6FF0300D2FF0300D4FF0300D8FF0300DCFF0300FA
:40274000E0FF0300F0B50121C7B00B20FFF7A4FF0021C3B203200393FFF79EFF031C01339AB23D4B02909B1A5B08D3189BB2042001210493FFF790FF030A9BB2C0B20093C9
:40278000002802D001339BB200930026341C009BB7B29F422CD20325049BFB189BB21B020193029B581C019B38180133FF330593019B80B21978019C8C46624606A90C1B93
:4027C000E254059A01339342F4D100F01FF9041E0CD0013DEDB2002DE3D1012303991F489943FFF73CFF281C00F0A0F90136CEE7002C2BD11A4B06AAE3181B78A354802320
:4028000001345B009C42F5D10026FF3B3DAA1370144A06A916703AAA1370D1220E485218137000F0F3F8311C051C221C06A800F018FB0D4806A900F0E9F80543B54205D148
:4028400080220A4B1A6000F073F902E0002000F06DF947B0F0BDC046FF030000DCFE030000FE0300D4000020FE030000C000002038B5184B184D1A681023134000D12B60BB
:402880002B68802B25D100210520FFF705FF0121041C0520FFF700FF0023E4B2C0B29C4204D01C1C984205D0033403E0441EA0410224241A0220211C2B60FFF7EDFE0028D0
:4028C00007D0012C05D8211C0220FFF7E5FEFFF7C5FE38BD00030B40C000002070B5061C0320311CFFF7D8FE311C041C0420FFF7D3FE051C012E01D9062021E00134311C35
:4029000024020320FFF7C8FE61190024251C431C1B028B4209D21A78501EC0B2FD2800D801251219D4B20133F3E70120311CFFF7B3FE6442E4B28442DED1002DDCD000207C
:4029400070BD0000F8B50B200121FFF7A5FEC30701D5FFF7F7FE0020FFF7C0FF051C0120FFF7BCFF0223254C071C002105202370FFF792FE0626012808D1002D02D1257069
:402980002E1C03E0002F01D13E1C20702378022B0ED105200121FFF77FFE012808D1002F02D120703E1C03E0002D01D12E1C25702378022B08D1002D01D1257006E0002FA5
:4029C00002D10123237001E0002E12D12478E4B2012C08D801210A486140FFF740FE0948211CFFF73CFE8022074B1A6000F0A0F8F8BD002000F09AF8F5E7C046D4000020F2
:402A0000D0FF0300D0FE0300C00000200023F0B5C7B0029303932C4B98424FD800294DD08022051C520006A800F012FA274B9D4201D8274B00E0274B0493FF23264C2749A3
:402A4000274A04AE736026600A60C04622680191120F0F2A02D12268134005E022680023120F0A2A00D023680293029F002F27D100F0B1F90397029B002B18D1194A2D042C
:402A80000492049A184915430495019D2660124A2960C0462168090F0F2902D11368DBB204E01168090F0A2900D013680293039B002B00D1039300F092F901E004230293FD
:402AC000029847B0F0BDC046FF030000FF010000B6D70000B6D70001080010400400104004000080B6D80000050000801923021C02491A40086818400A60704700030B40FC
:402B00001F2800D901BE034B8000C318186819607047C046400000201F2318401E3B8340181C014B1860704700E100E001BE7047034A044913689BB20B4313607047C0467B
:402B40000CED00E00400FA0508B5034B1B7B584300F038F908BDC046E0000020F0B5051C87B000F038F9EB1E049003932D2B5CD8314B1B789D4204D8304B1C78304BE4B28A
:402B80001EE0304B1B789D4204D82F4B1C782F4BE4B215E02E4B1B789D4204D82D4B1C782D4BE4B20CE02D4B1B789D4204D82C4B1C782C4BE4B203E02B4B1C782B4BE4B297
:402BC0001B78039ADBB20193294B2A4F9A5C059302922F2A04D92A2D02D919263E6008E03F233E681E40029BB34205D2214B029A1A60052000F0E6F81C4B1F4AED182B788C
:402C00000520DBB213601D4B019A1C601C4B1A60FFF79AFF029BB34208D9059B039A05209B5C3B6000F0CEF800E001BE049800F0D6F807B0F0BDC04640F3FF0F41F3FF0F7D
:402C400042F3FF0F43F3FF0F44F3FF0F45F3FF0F46F3FF0F47F3FF0F48F3FF0F49F3FF0F4AF3FF0F4BF3FF0F4CF3FF0F4DF3FF0F8C0A00002CFF0B4028FF0B401CFF0B400A
:402C800020FF0B4008B500F0A6F8C021034A090213680B43136000F0A2F808BD00010B4010B5802400F097F80749084B0A68E4011A4022430A600A68134080221202134373
:402CC0000B6000F08CF810BD00010B40FF3FFFFF70B5051C00F07FF80E4B041C1A68C0231B02134011D10C480C490540281C0E680B4A3240104308600A68012B01D1FFF733
:402D0000C1FF201C00F06BF870BDFFF7C9FF0123E9E7C04600010B400404040010020B40FBFBFBFF042238B5224C2368134213D021494B6813420CD0204B5D6A48681540F1
:402D4000A8434860596A914359629B69002B00D098470420FFF7BCFF80232268DB001A4215D015494A681A420DD0144A556A48682B4098434860516A114B0B405362D3691B
:402D8000002B00D098478020C000FFF7A1FF80232268DB021A420CD0074A52681A4204D0064B1B6A002B00D098478020C002FFF78FFF38BD10020B40F40000207C0100202D
:402DC000FFFBFFFF0230800803D00138FDD1C046C046C0467047EFF3108072B6704780F31088704702B4714649084900095C49008E4402BC7047C046014B18687047C046E0
:402E00005C0100200E4B70B500251E1C0D4CE41AA410A54204D0AB00F35898470135F8E700F046F8084B00251E1C084CE41AA410A54204D0AB00F35898470135F8E770BDD0
:402E4000C80A0000C80A0000C80A0000D00A0000002310B5934203D0CC5CC4540133F9E710BD031C8218934202D019700133FAE770470000000C0000A600000000000000EA
:402E8000030405060708090A0B0C0E0F101112131415161718191B1C1D1E1F2021222325262728292A2B2E2F3031323334354300F8B5C046F8BC08BC9E46704749010000CF
:402EC0000D020000F8B5C046F8BC08BC9E46704721010000F00A0000D000002090000000480000000000000002000000800A0000840A0000010000000000E02EC05D0000D3
:402F00001800000000366E01F0000000040404000000000000000000000000000000000000000000000000000000000000000000BA0A000000000000000000000000000014
:402F4000000000000000000000000000000000000000000000000000000000000000000000000000000000000000000000000000FC00002000000000000000000000000035
:402F80000000000000000000000000000000000000000000000000000000000000000000000000000000000000000000000000000000000000000000000000000000000011
:402FC0000000000000000000000000000000000000000000000000000000000000000000000000000000000000000000000000000000000000800020110C0000ED1900000E
:40300000ED19000008B5024B83F3088800F00AFF0080002038B512221A4B1A6001F0C4FC194801F0A3FE012001F0DEFC302001F0D5FB164A164B1A60164C8025ED05256087
:40304000154A116802230B431360144A144B1A600022144B1A60144A136808218B431360FA20C00001F06CFC104801F0ADFB802212060F4B1A60802212030E4B1A6025605C
:4030800038BDC04630001040001BB7000600008004010B400C020B4078002E402D3E00007C002E4064F02E406CF02E40DC05000008010B4000010B4010B572B600221C4BD6
:4030C0001A60002410E01B4863001A195200821891881B195B001A5AC31858880004104300F006FF0134E4B2012CECD9EE221206114B1A6099221204104B1A60104B1978ED
:4031000002220A431A700F4802783C218A4328390A430270197816220A431A70D8221204094B1A60FFF776FF00F0D2FE10BDC0466CF02E4068D601000000024000500F4013
:4031400000700F4001700F400800044010B5064C2378002B07D1054B002B02D0044800E000BF0123237010BDB80E00200000000094D4010008B5084B002B03D00748084916
:4031800000E000BF07480368002B00D108BD064B002BFBD09847F9E70000000094D40100BC0E0020D00000200000000000B585B001A9074B0B81002301938B80054A13789E
:4031C00050780002184315F021FB05B000BDC046052A0000D420002000B585B04F283ED88000204B1B589F46002000F04FFF02A80023837102F062FE31E01B4B187800217B
:40320000012212F0EDFD2AE04B88062B27D906236A4613805380002393806433D380124B1878694610F0CAFC19E0002000F02EFF15E00E4B1B78042B11D1002000F026FF53
:403240000DE00B48022202F09FFBFFF7AFFF06E00022074B1A7002E0002015F0F3FA05B000BDC04698D40100E8200020E0200020D420002000B583B000F09EF862B600F02B
:4032800031F8012000F034FA002808D1134B1B78002B04D1013000F04DFE01F071FA104800F07CFE002802D0032803D1FEE701A802F008FE00F0FCF902F011FE052000F0B0
:4032C00075FA052001F068FA00F018F800F0A4F80028F1D000F0A6F8EEE7C04614FE0300E50D000008B5044B1B78002B03D10248012100F0FBF808BD0AFF030010B5234B11
:403300001C78234B1B789C4203D0214B01225A801C701F4B5B880F2B07D1012000F0E8F9002802D000221A4B5A80022C14D0184B5B88002B02D00133154A5380144B5B88A9
:403340001D2B21D9FA20400001F026FA012000F0F1FD01F015FA17E00D4B5B88002B06D00C4A1278012A02D00133094A5380084B5B883B2B08D9FA20400001F00DFA012047
:4033800000F0D8FD01F0FCF910BDC046E0200020D4000020E40E002008B5064B1A6801321A6001221A71042001F03CFC01F0D4FC08BDC046D40E002008B501F063FB002275
:4033C000134B1A60134801F0B9FC0020012101F083FB00208021090201F0F8FB0020012101F0A0FB082001F0D7FB0120142101F0EDFB0120022101F06FFB0120012101F0D8
:4034000091FB0220FF3001F0A9FB01F02DFB08BDD40E0020A50F0000014B1879C0B27047D40E002008B501F02DFB012001F030FC01F01AFB0022014B1A7108BDD40E0020A4
:40344000002306E04218013A12789B189BB2013989B20029F6D1584280B2704730B5002307E01C182478E4B2CD5CAC4205D101339BB29342F5D3002000E0022030BDC046C7
:40348000F0B583B00D1C6B469E1DDA8001230B704870141CAA70130ACB70171DB9B2281CFFF7CEFFE855631D000AE854A31D1722EA540734A1B2281C321C962301F06CF83E
:4034C00003B0F0BD70B5051C0E1C141C002802D0002001F053F9002004E0013CAB191B5D1818C0B2002CF8D170BDC04670B5C0B0051C000AFF232C1C9C43002304E01A5DA7
:403500006E46F25401339BB2FF2BF8D9FF231D406B4659550004000C694601F0A7F840B070BDC04638B5012812D80DE020024042084B9C466044611B4B425941C9B2FFF747
:40354000D5FF0134E4B201E0051C0024012CEDD938BDC046D0FF030008B50C2857D880003A4B1B589F4609024942394B9C466144012351E009024942364B9C46614404238E
:403580004AE009024942344B9C466144022343E009024942314B9C46614404233CE0090249422F4B9C466144012335E0090249422C4B9C46614401232EE0090249422A4B80
:4035C0009C466144022327E009024942274B9C466144022320E009024942254B9C466144022319E009024942224B9C466144042312E009024942204B9C46614401230BE07F
:40360000090249421D4B9C466144042304E0002001F0B4F802230021012B02D10878C0B200E00020022B03D10A78487800021043042B0AD10A784B781B021A4388780004A1
:40364000031C1343C8780006184308BDD8D50100C0FF0300C1FF0300C5FF0300C9FF0300D0FF0300D1FF0300D6FF0300D2FF0300D4FF0300D8FF0300DCFF0300E0FF0300E9
:4036800010B505200021FFF767FFC4B205200121FFF762FFC0B2002C02D0002804D106E0002803D0012002E0032000E0022010BD08B50D4B1B79002B14D1FFF7E1FF0B4B67
:4036C00058705B78022B0AD0084B5B78032B06D0064B5A781A700122034B1A7102E00222024B1A7008BDC046DC0E0020D800002070B5051C0320291CFFF72EFF441C240254
:403700000420291CFFF728FF24180320291CFFF723FF013000020023002608E001784A1ED2B2FD2A00D801265B18DBB20130A042F4D35B42DCB20120291CFFF70DFF844225
:4037400003D1002E03D1062002E0062000E0002070BDC046F0B583B001281BD80193171C0E1C041C0320211CFFF7F6FE013085B203200121FFF7F0FE80B2AF4201D3874272
:403780000AD9012E0AD10848001B019B834207D0002006E00D2004E00D2002E0002000E00D2003B0F0BDC046FF030000F0B55F464E464546E0B4CD4CA544061C0220012159
:4037C000FFF7CAFE009000F0CFFE62B60A2400239946002E01D1FF2300E0331C52A896214900C34A02ADAC46624400F009FF051C002E01D0013CE4B2FFF70EFE002801D0F1
:40380000FFF710FE002C01D0002DE2D1002D00D0C7E2B74B02AA944663441B88062B24D952AA1278012A22D152A9CA78120289780A439146111C07329A421AD896235B009F
:403840009A4218D84A1D52AB9D5C2A02081D1D5C154306315B5C172B0FD181B252A8FFF7EFFDA8420BD100270AE0042708E0042706E0032704E0032702E0042700E008278F
:40388000002F00D028E252AB1A7993465A78131C313BD9B2142900D9EEE18B009549CB589F46954B5B79012B00D017E24B46012B00D016E25B46012B00D915E25846FFF7E9
:4038C00017FF002800D012E25B46190249428B4B9C46614453A8382202F056F856225CE2854B5B79012B00D004E24B46002B00D003E2834B5878C0B2FFF7FAFE43424341D9
:4039000052AA1371012248E27B4B5B79012B00D0F6E14B46032B04D00423FF33994500D0F1E152AA95792B0255791D434B46032B08D0DA1E07A84821FF3102AB9C46614471
:4039400002F022F85B46012B00D9DFE15802401900026C4B9D4200D90A27002F00D0D8E107A980225200FFF779FD071C002214E2614B5B79012B00D0CDE14B46012B00D0C6
:40398000CCE15B46012B00D9CBE103200021FFF7E3FD83B20004400E834502D1DB05DB0D05E0834501D9002301E080239B0052AA13711B0A5371FF239371FE3BD371042209
:4039C000EBE14D4B5B79012B00D0ADE14B46012B00D0ACE15846FFF78BFE52AD287105205946FFF7B9FD68710222D6E1342A0FD1414B5B79012B00D09CE14B46032B00D06C
:403A00009BE1CC323C4BDA8007A8002101F0FAFF394B5B79012B00D092E14B46022B00D891E1354BDD8807AB58194B46DA1E4821FF3102AB9C46614401F0A6FF2B1C4B44D8
:403A4000033B9BB28022520093425DD152AA93791D0253792B43284AD3802A4A934200D90A27002F00D071E15A465502ED18ADB2234B1B78002B05D103200121FFF76CFDF9
:403A800080B204E003200021FFF766FD80B2013080B2854207D20022174BDA8080235B0099460A2779E1009B002B17D0144B5B78DBB2012B12D8124B5878C0B20E4BDB88FB
:403AC00059462A1CFFF746FE0D2807D100220A4BDA80071C80235B0099465EE1281C07A900F0C4FD002810D00A270EE088FDFFFF6E0200000CD60100DC0E0020C0FF03001C
:403B0000D8000020FF01000003270022AD4BDA8080235B00994640E1AA4B5B79012B00D019E10022A74BDA803BE1A64B5B79012B00D013E14B46012B00D012E15846FFF7DF
:403B4000D7FD002800D00FE15846FFF7EBFC9E4B5A465A70002220E19A4B5B79012B00D005E1984BDD884B46EA1896235B009A4200D9FFE007AB581953A94A4601F004FFD7
:403B80004D44904BDD80002207E14B46002B00D0F3E004AA8D4B03CB03C28A4B01221A725A710022DA8053AA04AB03CB03C20822F3E0844B5B79012B00D0E1E04B46032B94
:403BC00000D0E0E052AA95792B0255791D435B465902491909027E4B9D4200D90A27002F00D0D3E0002080225200FFF76BFC01905B465B025D19ADB25B46012B19D1754BB7
:403C0000EB189BB2012B14D8734B9C4665446B1E9D41EDB20520291CFFF79EFC019B1B1ADBB298460620291CFFF796FC43461B1AD8B2424252AB1A710122AEE00B20012152
:403C4000FFF78AFCC30703D54022644B1A6009E05D4B5878C0B2FFF74BFD002802D180225E4B1A600022574B1A7200F07FFC00F087FD0427002290E0524B1B68002B00D1C2
:403C800086E050494979012900D084E002A90A700A1C4946518053AA039200210491059104AD069202A8291C9847AA882623FF339A4203D953AB0699994207D0069B002BC5
:403CC00001D1002A05D1049BDFB266E00E27002263E00E27002260E000225EE0042700225BE00427002258E00C27002255E00C27002252E0042700224FE0042700224CE0D8
:403D00000427002249E00427002246E00927002243E0002241E0042700223EE0042700223BE00427002238E00427002235E00427002232E0042700222FE0042700222CE034
:403D40000427002229E00427002226E080235B009946002221E0042700221EE0042700221BE00427002218E00C27002215E00427002212E0032700220FE0042700220CE0C5
:403D80000427002209E00427002206E0002204E00527002201E005270022381C52A9FFF76FFB002E00D114E5064B5B79012B00D10FE59E239B009D441CBC90469946A346A7
:403DC000F0BDC046DC0E0020D800002060D60100FF01000002FCFFFF01FCFFFFC000002008B501F0CDFA03680C2B00D1FEE7FEE708B5031C094A1068C318094A9A1A942110
:403E000089018A4202DC054A136005E001F0B8FA0C2303600120404208BDC046DC000020F820002070B50F4E0F4D13E029686B68AC68002202E001C901C30432A242FAD110
:403E4000E868002202E0002102C304328242FAD11035013E002EE9D101F098FAFFF70AFAFEE7C04601000000A8D9010008B5124A136801218B43136000230AE0032B03D8DF
:403E80009A000E49505800E00D4899000D4A885001332F2BF2D9FFF70FF900220A4B1A600A4B1B68002B01D1084B1A60024A116801230B43136008BD00001040000C0000B7
:403EC000ED19000000000020C8000020C00000200323044A1360044A13600022034B1A607047C0463000304030003140000E3F4008B50A1C002101F085FD08BD70B5C0B0E6
:403F0000051C000AFF232C1C9C43002304E01A5D6E46F25401339BB2FF2BF8D9FF231D406B4659550004000C694600F09FFB40B070BDC04670B501281BD803025B420F4A93
:403F4000944663441B78012B15D0061C002400250CE023025B42094A9818A11B4B425941C9B2FFF7CBFF05430134E4B2012CF0D902E0012500E00125281C70BDD0FF030088
:403F80000023034A1370034A1370034A13707047EB200020E4200020EA20002010B590B0041C0BA82849142201F0EEFC274B1B78002B04D1FFF7E4FF0122244B1A70002CBE
:403FC0003FD0234B1C60214B5B68002B08D1214801F000FA1D4B5860002803D0002002E0002000E00320002811D108A805AA426006AB0893002101811B31198059801739F9
:404000001971002313701231694402F083F8002818D10E4B5968052300930023019302930D480E4A0BAB01F0CBFF00280AD101220B4B1A700B4811211032FF3215F03CFD67
:4040400000E0012010B010BD74D60100E80E0020D820002054120000091E000044100000E020002088D6010008B501F057FF0022044B1A70044B5868002801D001F0B4F934
:4040800008BDC046E0200020E80E002008B5022832D81D4B1B78042B30D11C4B1B785B072FD400280BD11A4B1A1C40321E211182A022596C0A805B6CA0325A800EE0012806
:4040C0000CD1134B1A1C403296211182C822D200596C0A805B6CFA2212015A800D4B18700B48403012F06CFF00280CD1074A117804230B43137006E0012004E00420FF3093
:4041000001E00420FF3008BDE0200020EB200020E0000020EA2000207047C04603784078000218437047C04638B583890D2B20D1041C04300021221C333315F06FFD051E38
:4041400011D16068FFF7EAFF830706D50A4B1B6882204000211C984705E0074B1B680620FF30211C9847054A137801218B43137000E00025281C38BDD8200020EB20002082
:40418000024B00225A701A707047C046E820002010B582B0041CFFF7C7FF0E4B1B78DB0702D5201C00F062F90A4B1B78DB070ED4002809D001A912238B70A3890B80C870E2
:4041C000206814F0E5FA02E0206814F087FB02B010BDC046EB2000208379002B07D000200BE0C25C002A07D10133DBB200E00023052BF6D9002000E001207047F0B583B018
:40420000051C0C1C884A117801230B431370502800D9F8E08300854AD3589F4601AE0727377000237370301C04F082FA377001237370301C04F07CFA7D4B1E68301CFFF720
:40424000CBFF00280CD0301C01F052FE784E30680021FFF761FF30680121FFF75DFF25E0744B1B78744A12783F210A4092010B401343724A127820390A4012031343704A77
:40428000127860310A40520413436E4E33701A0A72701B0CB370301C01F02AFE301C0021FFF73AFF301C0121FFF736FF032012F08BFB01A83F2303700023437012F0A2FB06
:4042C0000422614B1A709EE02278604B1A709AE02378002B00D096E06378002B0CD15C4B1022DA800132FF329A805A4A12685A498C4662441A6063604B4A137801218B4375
:40430000137080E0484B1B789B067CD4534B1B78102B02D10522514BDA70514B18784F4912F00CFE01AB1880002804D04D4B1B68362001A998473C4A117801230B43137029
:4043400061E00222404B1A705DE004223E4B1A7059E03D4B1B78022B55D0334A1278D20751D5314A1278520708D50322364B1A702D4A137804218B43137044E02A4A12789C
:40438000120708D50422304B1A70274A137808218B43137037E0032B35D104222A4B1A70314B1B78002B2ED10120FFF76FFE002829D10322244B1A7025E02948211C022222
:4043C00001F0E2FA0022214B1A701CE0FFF7D8FE19E061882C23FF33994201D996214900208814F0DFF90EE0201CFFF7D1FE0AE00D4B1B78DB0706D5201C00F075F802E078
:40440000201C00F089F8084B1A7811231A4209D0054A137801218B431370124B1B68281C211C984703B0F0BDEB20002004D80100340100207CF2FF0F7DF2FF0F7BF2FF0FC3
:4044400078F2FF0F38010020E0200020E4200020F00E0020EC0E002044100000C8020020E8200020D8200020EA20002010B5021C8389112B12D12033FF331749CB58DB0254
:4044800005D504300021402315F0C8FB00E00620124A137801218B4313701CE0102B19D104300021303315F0B9FB9E235B000A4AD3585A680A4B1A60D3781B029278094CBD
:4044C0001343073323800121A170044A13788B43137000E0002010BD88D60100EB200020EC200020F80E002008B543681B89102B0DD1037A012B05D1012014F0A3F90022FC
:40450000034B1A80034A137801218B43137008BDF80E0020EB20002043681A89102A1BD1427A012A13D11A680C4B1A60D3781B029278134307339BB2094A13800822FF3210
:40454000934201D9064B1A800122054B9A70054A137801218B4313707047C046EC200020F80E0020EB2000207047C04608B5084B187811F01FFD002802D005E001F0AFFCA8
:40458000044B1B78022BF9D0FFF76EFD08BDC046E8200020E0200020F0B585B0061C0C1C151CA8235B00144AD3585868FFF7B6FDC3071ED59E235B000F4AD3585F68381CCA
:4045C000311C221C01F0E0F901A98C80019710230B810A4A137850780002184314F020F9002801D12C8005E000232B800120404200E0042005B0F0BD88D60100E82000204F
:40460000F8B5071C0D1C161C9C00E41864001DE001F065FC114B9B78012B13D10F4B00229A701A88AA4209D20D4B1968381C01F0ABF90A4B1B88338000240AE00023338045
:40464000062406E0012000F0A7F8013C002CDFD1103401F044FC201CF8BDC046F80E0020EC200020002070470020704730B5C5B0002343934293344B984260D800295ED0E5
:40468000041C02A88022520001F07EF92F4B9C4201D92F4B00E02F4B0093FF2301932E4B6A461A602D492E4A1160C0461B681B0F0F2B04D1284B1B68FF22134008E0264BFE
:4046C0001B681B0F0A2B02D0234B1B6800E000234393439B002B34D100F051FB051CFFF7C1FF4290439B002B1FD11E4B0093009B200418430090184B6A461A601A49184A58
:404700001160C0461B681B0F0F2B04D1124B1B68FF22134008E0104B1B681B0F0A2B02D00D4B1B6800E000234393429B002B02D1FFF79AFF4290281C00F025FB01E00423AF
:404740004393439845B030BDFF030000FF010000B6D70001B6D70000080010400400008004001040B6D8000005000080024B1B68012018407047C0460C002E4001BE704750
:40478000034A13681B041B0C02490B43136070470CED00E00400FA0510B5041C06E0084B586800F0E3FA074B9C46644480231B029C42F4D8024B9868604300F0D7FA10BDDD
:4047C000D00200200080FFFF08B5034B1B7B584300F0CCFA08BDC046D0020020F0B557464E46C0B483B0041C00F0C9FA0190E71E2D2F74D83F4B1B78DBB2A34208D33E4B19
:404800001B78DBB29A463D4B1B78DBB2994631E03B4B1B78DBB2A34208D33A4B1B78DBB29A46394B1B78DBB2994623E0374B1B78DBB2A34208D3364B1B78DBB29A46354B0C
:404840001B78DBB2994615E0334B1B78DBB2A34208D3324B1B78DBB29A46314B1B78DBB2994607E02F4B1B78DBB29A462E4B1B78DBB299462D4BDE5D2F2E09D92A2C07D9ED
:4048800019222B4B1A60052000F070FA192503E0274B1D683F231D40AE4206D2234BDA5D234B1A60052000F061FA1F4B9C4664442378DBB21F4A13601F4B52461A601F4BD4
:4048C0004A461A600520FFF77FFFAE420AD9174BDA5D174B1A60052000F048FA02E00020FFF74CFF019800F04EFA03B00CBC91469A46F0BD40F3FF0F41F3FF0F42F3FF0FBD
:4049000043F3FF0F44F3FF0F45F3FF0F46F3FF0F47F3FF0F48F3FF0F49F3FF0F4AF3FF0F4BF3FF0F4CF3FF0F4DF3FF0F48D901002CFF0B4028FF0B401CFF0B4020FF0B407A
:4049400010B5041C0F4A116801230B4313600E4A0E4B1A600E4A1368802109020B431360002809D100200CE00120FFF72DFFFFF7FDFE002804D1013C002CF5D1102000E0B2
:40498000002010BD60F02E400220000078002E4010002E40034B1868C0231B02184000D00120704700010B4010B50D4B1A6801218A431A601A68022082431A60094A1068F6
:4049C0003024A043203C204310601068093CA043014311601A68802109060A431A6010BD00F02E4000FF2E4038B51D4B1B6801241C40002802D0012816D02BE0184B19681A
:404A00000122914319601968022081431960154B19682E3081432038014319601968093881430A431A6018E00D4B1A6802218A431A600C4A10680725A84301431160116872
:404A400030208143103801431160196801220A431A6002E00020FFF791FE201C38BDC04600F02E4000FF2E4008B500F088F9044A1368C02109020B43136000F084F908BD5B
:404A800000010B4010B500F07AF908490A68084B1A408024E40122430A600A6813408022120213430B6000F06EF910BD00010B40FF3FFFFF10B5041E022C02D90020FFF7CC
:404AC0005DFE044B1868E4000134E040041C0120204010BD10020B4038B5041C0D1C022802D90020FFF74AFE201CFFF7E3FF00280BD1064A1368E4000321081CA04083433A
:404B00000D40A5402C1C1C43146038BD0C020B40034B1B68C000C340181C0323184070470C020B4038B5041C0D1C012802D90020FFF724FE201CFFF7BDFF00280AD10649D2
:404B40000B68E40002340122A2409343A5402C1C1C430C6038BDC0460C020B4010B5041C0C4A136803431360C30704D50020FFF7A1FF0028FAD0E30504D50120FFF79AFF56
:404B80000028FAD0E30304D50220FFF793FF0028FAD010BD10020B4038B5051C0020FFF789FF041C0120FFF785FF04430220FFF781FF204305D1034A1168034B0B401D4340
:404BC000156038BD0C020B40F7F7FFFF38B5041C0D1C012802D90020FFF7D0FD0E4B1B689B0F01D1C92000E05D20FFF7EDFD0B4A106824010A4BA3409843031C281CA04023
:404C000018431060044B1B689B0F01D1432000E01F20FFF7D9FD38BD0C020B4008020B40FFFF000070B5061C00F0A9F8041CFFF7B1FE002803D0FFF725FF012500E000258F
:404C40000848331C0340084A106808490840184310601368012D01D1FFF706FF201C00F092F870BD0404040010020B40FBFBFBFF054A1168054B184008431060024B1A6878
:404C8000024B1A42FAD1704710020B400808080010B5041E13D1FFF73BFF032803D10130FFF7C0FF23E0201CFFF732FF02281ED10630FFF7DDFF0420FFF7B4FF17E0012800
:404CC00015D1FFF725FF032804D18020C000FFF7A9FF0CE0201CFFF71BFF022807D180200001FFF7C5FF8020C000FFF79BFF10BD014B18667047C0460000002010B5041CD8
:404D000000F03DF8044A1368C0218B43A4011C43146000F038F810BD08E400E080225200014B1A607047C04600E100E080225200014B1A607047C04680E100E010B5041CD0
:404D4000FFF7F4FF201CFFF7D3FF0320FFF7D6FFFFF7E4FF10BDC04680225200014B1A607047C04680E200E0000000000230800803D00138FDD1C046C046C0467047EFF3B4
:404D8000108072B6704780F310887047F0B557464E464546E0B4C0B00E1C171C8A18214B9A4230D880460B0A99461C0200239C46002522E0B4420CD3BD420AD24246515D24
:404DC0006A46D1542278D2B28A4200D00120013502E022786946CA540134013301E000200023FF2BE6D9002804D048466946FFF73DFC844601239A46D144BD4205D2634644
:404E0000002BECD001E001239C466346012B02D901235B429C46604640B01CBC90469946A246F0BDFFFF03000160704701607047324B1A781202324B1B781A43314B1B78C9
:404E40001B02314909780B4330498B4201D1072A06D0D42109018B4206D1042A04D102E02B4B042200E02A4B2A490B602A4B1A602A4B1B781B022A4A1278134380229201B9
:404E8000934202D0002B02D002E0264B00E0254B254A1360254B1B781B02254A12781343244A934205D0244A934204D0052B05D103E0224B02E0214B00E0204B204A13605F
:404EC000204B1B681B09204A1268AA2A15D1012B13D9164B1B780E2B0FD11C4B1B781B021B4A127813431B4A13601B4B1B781B021A4A127813431A4A1360704759F1FF0F69
:404F000058F1FF0F5FF1FF0F5EF1FF0F580B0000580D00006C002E4074002E405BF1FF0F5AF1FF0F0220000078002E405DF1FF0F5CF1FF0F0F0F000005050000050F00002D
:404F400080002E40EC0F00F0E00F00F06DF2FF0F6CF2FF0F84002E406FF2FF0F6EF2FF0F94002E4008B5FFF72FFC08BD08B5FFF713FC08BD08B500F051F808BD08B500F03D
:404F800055F808BD08B500F051F8034800F030F8032000F033F808BD812C000008B5024800F04CF808BDC046812C000000487047010200002B2070472B2070472B2070471B
:404FC0002B2070472B2070472B2070472B2070472B2070472B2070472B2070477047C0462B2070477047C0460120704701207047014B18677047C0460000002010B5041CEA
:40500000FFF7BDFE044A1368C0218B43A4011C431460FFF7B8FE10BD0CE400E080225201014B1A607047C04600E100E080225201014B1A607047C04680E100E010B5041CAF
:40504000FFF7F4FF201CFFF7D3FF0320FFF7D6FFFFF7E4FF10BDC04608B5FFF790FE044A136804218B43136030BFFFF78CFE08BD10ED00E008B51AF0F3FB08BD0022430841
:405080008B4274D303098B425FD3030A8B4244D3030B8B4228D3030C8B420DD3FF22090212BA030C8B4202D31212090265D0030B8B4219D300E0090AC30B8B4201D3CB034A
:4050C000C01A5241830B8B4201D38B03C01A5241430B8B4201D34B03C01A5241030B8B4201D30B03C01A5241C30A8B4201D3CB02C01A5241830A8B4201D38B02C01A524175
:40510000430A8B4201D34B02C01A5241030A8B4201D30B02C01A5241CDD2C3098B4201D3CB01C01A524183098B4201D38B01C01A524143098B4201D34B01C01A5241030982
:405140008B4201D30B01C01A5241C3088B4201D3CB00C01A524183088B4201D38B00C01A524143088B4201D34B00C01A5241411A00D20146524110467047FFE701B50020D9
:4051800000F0FCF802BDC0460029F7D003B5FFF775FF0EBC4243891A1847C04603460B437FD4002243088B4274D303098B425FD3030A8B4244D3030B8B4228D3030C8B42C4
:4051C0000DD3FF22090212BA030C8B4202D31212090265D0030B8B4219D300E0090AC30B8B4201D3CB03C01A5241830B8B4201D38B03C01A5241430B8B4201D34B03C01A1D
:405200005241030B8B4201D30B03C01A5241C30A8B4201D3CB02C01A5241830A8B4201D38B02C01A5241430A8B4201D34B02C01A5241030A8B4201D30B02C01A5241CDD272
:40524000C3098B4201D3CB01C01A524183098B4201D38B01C01A524143098B4201D34B01C01A524103098B4201D30B01C01A5241C3088B4201D3CB00C01A524183088B429A
:4052800001D38B00C01A524143088B4201D34B00C01A5241411A00D201465241104670475DE0CA0F00D04942031000D34042534000229C4603098B422DD3030A8B4212D362
:4052C000FC22890112BA030A8B420CD3890192118B4208D3890192118B4204D389013AD0921100E08909C3098B4201D3CB01C01A524183098B4201D38B01C01A524143091A
:405300008B4201D34B01C01A524103098B4201D30B01C01A5241C3088B4201D3CB00C01A524183088B4201D38B00C01A5241D9D243088B4201D34B00C01A5241411A00D2A9
:405340000146634652415B10104601D34042002B00D54942704763465B1000D3404201B5002000F00BF802BD0029F8D003B5FFF715FF0EBC4243891A1847C0467047C04699
:40538000014B18687047C046A00A002070B50D4E0D4D0024AD1BAD1005D0A300F35801349847A542F9D11AF0E5FC084E084D0024AD1BAD1005D0A300F35801349847A54292
:4053C000F9D170BD8CD901008CD901008CD9010098D9010008B5034B011C186800F00EF808BDC046A00A002008B5034B011C186800F0E2FB08BDC046A00A0020F0B55F468B
:405400004D4656464446F0B40D1C0B3583B0071C162D2DD907239D4300D5C7E0A94200D9C4E000F035FBF823FF339D4228D8E908CB4ECB00F318DC689C4200D1C1E1032332
:4054400062689A43131CE268A168CA6091600122E3185968381C0A435A6000F01BFB201C083003B03CBC90469946A246AB46F0BD102900D99AE0381C00F00AFB1025D6E787
:40548000690A00D196E0042900D93CE138239C46A9098C4463465900B14E89007118CC68A14215D0032362689A43131C521B0F2A00DD83E00320002A07DBC4E763688343F4
:4054C0005A1B0F2A7ADC002ABDDAE468A142F5D1614601310091321C34690832944200D161E10323616899430B1C481B0F2800DD48E1726132610028A9DA9A4A914200D947
:405500000DE10123C8088210934072681A43C300F3189868E360A0609C60131C7260C4600120009A9210904098424CD818420DD103220099400091430A1D0092184205D19D
:40554000009A4000043200921842F9D003239846009AD3009946B144CC4692466346DC68A44507D121E1002A00DB33E1E468A44500D11AE14246636893435A1B0F2AF2DDC7
:40558000012163190D436560E068A5680836E86011438560F360B360381CDE609E6059609A5000F077FA201C08305AE70C2300203B6056E73F237E219C466DE701235B4256
:4055C0009846C44484E70323B46862689A439046954203D8521B0F2A00DD86E0231C4344614A0193614B93461B681268EB18013200D15CE15E4A944663441B0B1B03009335
:40560000381C009900F048FA031C8146013360D0019B834200D9F8E0564B009A9A461B689C46534662441A60019B4B4500D14CE15B461B68013300D15EE14B4601995B1A84
:40564000D21853461A6007234A46134000D113E108218946D21A9144474AD21A009B381C4B441B051B0DD31A191C9B4600F014FA431C00D134E14B46C01A01235844184393
:4056800053461B685B441A1C53461A604B46B3605860B44213D043460F2B00D8F7E04346072160680C3B8B4306390140052019436160E118486088600F2B00D914E12F4BE4
:4056C00019688A4200D91A602D4B19688A4200D91A600323B46862689A43131C5A1B9D4200D9B9E00F2A00DCB6E00123291C6519194313436160381CB5606B6000F0CAF928
:40570000201C0830ADE6142973D9542900D9A8E06E239C46290B8C4463465900BCE64A0A042A6CD88A093832101C520092009446B4446246032192688846624500D19EE0B1
:40574000414650688843834202D292689445F7D1D0687368E060A2608460D460E0E6C046A40A0020FF010000B00E0020A82000200F100000AC20002008100000A420002017
:40578000A0200020012163190D430143656073613361DA609A6059601850381C00F07AF9201C08305DE67368BAE608239B46073BDC449B46DA4443465246134200D0CDE606
:4057C00031E0231C64698A1C08330092A34200D181E634E60122E3185968381C0A435A60E368A268D3609A6000F054F9201C083037E65B239C468C44634659004CE6142AB6
:4058000058D85B32101C520090E7B44200D060E702E7009B013B00934B461A68083B91469A4200D080E04346009A1342F1D17368834373604000984200D9C4E6002800D1D9
:40584000C1E6184272D152460092009A4000043200921842F9D07BE6381C00F01BF90020FFE5AA235B00994217D8DD3B9C46E90B8C44634659000FE680225201EEE60123A4
:40588000801083407168101C0B43736062E701234A464C465360002320E7264B994210D87C239C46A90C8C4463465900F4E510330093A5E6542A23D80A0B6E32101C5200E1
:4058C00034E77E23FC219C46E6E51B0500D0AFE6009BB1684344181C012303434B60EEE6002301209B46CBE6211C381C083100F063F953461A68E2E65B464A461A60A2E643
:40590000AA204000824204D8CA0B7732101C52000CE70848824204D88A0C7C32101C520004E7FC227E2001E7736883E7534600930EE6C0465405000030B5032A1ED9031CA1
:405940000B439B0711D004780D784B1C8A18AC4206D016E00133591E04780D78AC4210D101309342F6D1002030BD03680C68A34204D1043A04300431032AF6D8002AE2D125
:40598000F1E7601BF0E7C04670B50F2A32D9041C0C430B1CA40731D1151C041C103D2D0901352D0149191E6826605E6866609E68A660DE681033E66010349942F3D10F23E9
:4059C00045191340032B1BD91C1F0023A4080134A400CE58EE500433A342FAD1ED18C91803231A4005D00023CC5CEC5401339342FAD170BD051C002AF5D1FAE7051CF2E7F3
:405A00001A1CF8E770B583073FD0541E002A3BD0CEB2031C032503E0621E002C34D0141C01335A1E16702B42F6D1032C24D9FF250D402A0215432A0415430F2C11D9261CEE
:405A4000103E3609013636011A1C9B19156055609560D56010329342F8D10F221440032C0AD9261FB6080136B6001A1C9B1920C29342FCD103221440002C05D0C9B21C19EE
:405A800019700133A342FBD170BD141C031CCCE77047C0467047C04638B50023064C051C081C2360FEF7A4F9431C00D038BD2368002BFBD02B60F9E7F020002008B5034BC8
:405AC000002B02D0024800F005F808BD00000000F136000008B5011C00220020002300F043F908BD38B5094B094CE41AA41009D0084AA518AD00ED182B68013C9847043D84
:405B0000002CF9D11AF042F938BDC046A4D90100A8D90100FFFFFF3FF8B50C1C061CFFF7B7FF204FBB685D6803239D431E4B2C1B9C466444240B1D4B013C24039C4207DDFC
:405B4000301C0021FFF7A8FFBB685B19984204D0301CFFF79FFF0020F8BD6142301CFFF79BFF431C0DD001232D1BBA681D43104B55601A68301C141B1C60FFF78BFF01204E
:405B8000EAE7301C0021FFF787FFBB68C21A0F2ADEDD08490968401A0549086001210A435A60D5E7A40A0020EF0F0000FF0F0000AC200020B00E0020F0B5474680B400294E
:405BC00049D00C1C051CFFF763FF211C08394F6801233C1C9C430A195068984602339843031C5B488668964252D0464653603E420BD10826B4460F688444C91BE4198F680E
:405C000067455ED0CE68FE60B7600127D61876683E4208D1E4184F4E9368B34200D173E0D268DA6093604C4B27434F600C519C4214D8E408FF3BA210FF3B93404268E40034
:405C40001343436000198368C8608B608160D960281CFFF71FFF04BC9046F0BD630A042B43D8A30938331A1C5E00B6008619B3680327B3423FD05A68BA43A24202D99B68DE
:405C80009E42F8D1DA68CA608B609160D960DFE71C1943463B4206D10B68C91A8A68E418CB68D3609A6001222C4B22431B684A6081609C42CCD32A4B281C1968FFF72CFF59
:405CC000C6E74646D0184068304209D14646E418D36892682643D3609A604E600C51B7E7464626434E600C51B2E7142B14D85B331A1C5E00B9E7012492109440221C446888
:405D0000224342601A1CBEE72743D9609960CB608B604F600C519BE7542B04D8230B6E331A1C5E00A1E7AA225200934204D8E30B77331A1C5E0098E70A4A934204D8A30CCD
:405D40007C331A1C5E0090E7FC267E228DE7C046A40A0020AC0A0020FF010000AC0E0020A820002054050000F8B544465F4656464D469B462F4BF0B41C68A4235B00051C9D
:405D8000E0580E1C904600284BD043681F2B0DDC5C1C002D21D102339B0044601E5000203CBC90469946A246AB46F8BD224B002B3CD0C8204000FFF70DFB002836D0A422F8
:405DC00000235200A15843600160A05040328350043283500124002DDDD09A0091468144424688214F467A50C42252009046804442468739994012688A460A439446424642
:405E000061461160842249465F4652008F50022DC1D1021C55468D32FF3211680D431560B9E7201C4D30FF30E050AEE701204042B6E7C0467CD90100E12F0000134A1088A9
:405E4000810703D08107890F401A001D11791030484381B25088820703D08207920F801A001D800040180A494030098980B2CA0701D0503080B2890706D504495422091F8A
:405E800009785143081880B270470000EA020020080F002010B502F09DFA10F0B9F810BD10B502F09FFA10F0BBF810BD10B502F0CAF810BD10B502F0DCF810BD10B502F090
:405EC000F5F810BD0121002807D0FA21C1700321017002214170002181700846704710B500F094FA10BD10B502F086F910BD000010B50749044609780220002907D120467F
:405F000002F0BCF9002802D1204610F0CBFE10BD8A04002010B502F0E3F910BD10B50CF0E3FA02F0A6F802F097F9084C2078002801D000F075FA00F08DFAFF2001F0A8FA98
:405F4000FF2001F0B5FA0020207010BDE402002010B50CF0C9FA02F08CF802F07DF900F05FFA074908460C380CF0A0FA002806D10CF0C2FA002802D1024A0121117010BD4E
:405F8000080F0020E402002070B504460120002C12D02368002B0FD0616800290CD0074D06222889208118462968FFF7EDFC6968606809780170002070BD0000080F0020F8
:405FC000FFB585B0002768460E9D07734F481C460078002802D0082009B0F0BD10990F9801900095029105A807C800F001F90028F2D16946264603AB84460873002C19D048
:40600000002115E08A00B75A082F09D990198078002805D0083FB7521878401C187005E0002914D00027B75290198770491CC9B2A942E7D360460028CED10F98002809D0D8
:40604000109901F0A1FB002804D00120C4E701208446EFE702F00DF82D480021416081600599016021888180022D07D3A1798171A17AC171A1890181218A418100211EE00F
:40608000481C19E082008B00A75AE65ABE46BE4211D26F463E80B4461E190296B678BE7001967646E6521719029EBB78B3706646A652019EBE70401CA842E3D3491CA94248
:4060C000DED3134822460C3000906846037B0799069800F015F90028B8D168460B4C007B60700B480C3002F05FF80028AED1084907480C310CF0DAF90028A7D10CF0FCF93B
:406100000028A3D10121217066E70000E4020020FC0E0020F8B5054633480E460078002802D002242046F8BD002E5BD000242F49002D16D02A89D0070DD02868002808D01A
:4061400003881B3BE12B04D24088FB2801D81B2801D2012409E0900707D56868002804D1F7E70020088108604860002CDAD11F482F8907811C481B21801D0180418004217B
:40618000017119490020891C0870F80705D016480622801D2968FFF7F7FB1449B80703D56A681148127882700F480D46801D0860001F486002F088F80B48801D02F076F88B
:4061C000288915F03FF8288915F0D0F903461033FFF734FE1F21C018890140180249308088809FE701249DE7E4020020080F0020FFB58446384F1C460020BB883F7805464A
:4062000002460646002F11D100290ED0029999420BD36146002908D0002C06D00A99002906D02E4B0B99994202D2012004B0F0BD002144E0AB001F19BF78002F3BD0E35AEE
:40624000002B38D07B43591889B22B0000F04AF8050410161C253100A7782388BC46FF27233BEB37BB4222D26346032B1FD322E0A388002B1FD0302B19D31CE02389002BF6
:4062800019D0282B13D316E0A289002A13D01346134F233BBB420AD20DE0268A002A0AD033460F4F233BBB4201D2964203D901200EE0002001E000280AD16D1CEDB2099B63
:4062C0009D42B7D31C2463435B1802998B42ACD89642AAD8AAE70000E402002079020000BAFF000030B47446641E2578641CAB4200D21D46635D5B00E31830BC184700000B
:40630000FFB583B0002469460C801F4606468C80002806D00598002803D004983043800701D0012466E0002FFBD03449049809888842F6D3FEF732FEFEF720FE00F06AFC2D
:40634000002855D100F0D4FD002851D12C49084601F04EFA05042D0C4AD12A480499066081800021C18007810C98007AC00704D0684601F0F7FE040007D10C98007A80073D
:4063800003D501A801F002FF0446BF1DFEB2002C20D13146059800F089F804001AD115F0F3F8040016D16A461088928808368518144AF1B29088D288AEB29319984207D3B8
:4063C000401B801A80B201F005FD050007D000E0FF25012400F0B6FA002D04D008E0F8B200F048F9F6E700F0D9FA07490120087000F022FC204607B0F0BD0000E8020020AF
:40640000A5410000140F0020F002002010B503480078012801D101F07FFB10BDF002002010B500F003FE002803D100F009FC002801D0FF2010BD0548007A801DC0B200F002
:4064400031F9034A0020107010BD0000140F0020F002002010B500F005FE01F0FBF90449002008608880C88008810249087010BD140F0020F002002070B5084B0446DA888F
:406480009E8800205518B54206D81D68AA182260DA885118D98070BD032070BD140F00200148008970470000140F0020F0B587B007460D4600208900009006916846FFF7EB
:4064C000DBFF844600285DD1304800990160002117E02E4B88001A680629115406D22C4C0419667882185670628805E0C419203CA67A8218567022891B68C018491C4280A1
:40650000C9B2A942E5D300242DE0601CC2B2059025E01E4FA30039689600581840887118039604904E88B04217D938466F46FE80B6464F786E4677710297049F4F80016811
:40654000039F5E18767879184E700168764659184E800068029F18184770521CD2B2AA42D7D30598C4B2AC42CFD36046002809D168460699FFF780FF8446002802D10549CA
:4065800000980860604607B0F0BD0000F4020020B8D90100F80200207047000010B5002809D005494A68002A05D0011F08788000105801F0BDFB10BDF402002010B5044670
:4065C000FFF76EFFC0B2801DA0420CD307484068002808D0A100405801F01CFB002801D00470001D10BD002010BD0000F4020020F8B516460D460446FFF752FFC0B2801DDA
:40660000A04203D20020C0430090F8BDB2B2E9B2684601F025FB0099481C03D0024AA000526811500098F8BDF4020020F8B50746FFF736FF801DC6B20A49002005460C68D7
:406640000DE06178002907D06188B94202D32078FFF7B4FF002804D1241D6D1CEDB2B542EFD3F8BDF402002010B5002801D0FFF795FF10BD70B506460948002504680BE01D
:406680006178002905D062882078121D0023FFF7AFFF241D6D1CEDB2B542F1D370BD0000F4020020F8B5084F064600243D6808E0287879688000085801F0E6FB2D1D641C26
:4066C000E4B2B442F4D3F8BDF4020020FFB581B00A9C16002BD000F0EFF80546042826D0214F002C0BD02046FFF7A0FF2901C919486000281BD022460499FFF745F91A49C7
:4067000028010E5046187481019805707D20029CC000444300F0BEF8074604280AD000F06FFAA0420ED800F06BFA201A06E0FF2005B0F0BD204600F0C9FA0020F0603572AF
:406740000020F5E700F05CFA009000F0D5FA00980121001B009000F009F903493A0151180098C860E6E70000200F0020F8B5060116483418217A042903D0E068002802D02A
:4067800017E00020F8BD00F03BFA054600F0B4FA00F0A0F804280CD001010C480F18F8680021451900F0E2F80020F860284600F08DFA6068054D002801D0FFF755FF04206B
:4067C00020720020A8516081E060DAE7200F0020FEB500266A46304601232549050169180D7A042D02D0C96800291BD000211154401CC0B20428F0D300246846005D00283C
:4068000030D01B48210108184189476805680291002101604160042241810272C160002E02D015E01354E3E700F054F804280ED001010F4808180190C6680021304600F06F
:4068400095F801980021C160304600F03FFA0126002D07D038460299A847002F02D03846FFF702FF641CE4B2042CC6D3FEBD0000200F00200EB5002005216A4600901181A4
:40688000508103486946006816F04FFB0EBD0000FC020020074A0020010189180B7A042B02D0C968002903D0401CC0B20428F3D370470000200F0020054900200201521804
:4068C000127A042A03D0401CC0B20428F6D37047200F002030B50A4B04200A4C00210A011219157A042D06D0D268002A03D09A4201D808461346491CC9B20429EFD330BD52
:40690000FFFF0000200F002070470000F8B500250B4F2E462801C419217A04290AD0042121723E506068002802D0FFF79DFE66606681E6606D1CEDB2042DEBD3F8BD0000B3
:40694000200F002030B50020074C05460423020111190B72A5504D60401C4D81C0B2CD600428F4D330BD0000200F002030B5094C00231A011219157A042D04D0D56800291D
:4069800006D02D18D5605B1CDBB2042BF1D330BD2D1AF7E7200F0020002070471CB5002469460C70142001902346054A054816F0C1FA04480068401C00D1FF2420461CBD6A
:4069C00025460000FC0200203EB5124A0146FF2000230124126800290DD0012914D0042908D104206946009308814B81104616F09CFA80B23EBD684600930481438169466A
:406A0000104616F08DFAF4E768460093048143816946EBE7FC02002070B545890468416800890300FFF75EFC08280509091E22282628002009F05AFF1EE0022908D0C8B2A1
:406A40002A46214613F078FB2046FFF70DFE13E002202A46214613F06FFB2946204600F00DF809E0002015F0E1F905E02046FFF7AFFE01E0FEF7B6FA002070BD014B002228
:406A8000DB6818470003002070B5448905680089022803D0032809D0FF2070BD2246094C0023A46829460120A04708E0FFF702FA241DA2B20023294602200BF0C0FB002080
:406AC00070BD000000030020704770470248002141600180418070470003002070B50C46002186B016460391012802D0022859D116E003A901200BF0EAFB01281BD1039D4B
:406B0000324621462846FEF73FFF0095287801900220694608814E816846FFF7B5FF41E0214D002B686809D0049004A902200BF0CEFB01281DD0022006B070BD002812D0DF
:406B4000298840182146FEF71FFF28880024801980B228806988091D884206D12C801348FFF792FF03E00320E6E788421AD96C6018E004986860E278A378110219430B4A14
:406B8000698000231060E3565360032313815181A1788170E178C1706178417021780170042028800020C7E700030020600F00203EB515460C46022803D004280CD00020A8
:406BC0003EBD0091019002206946088107484A81006816F0AAF907E013F0AEFA044B0022DB6829462046984701203EBDFC02002000030020014AD160906070470003002056
:406C0000034801688068081A0A214843000970476C0F002010B5FEF7B5F9482204490548FEF7B2FE03490120C870002010BD0000D4D901007013002010B5FEF79BF910BD76
:406C40000020704770B5134C2368002B08D0207B1149C20705D04008400020738868A08070BD88680B4AA18880B29268814203D90A4D691A091802E0814202D2411A5118CF
:406C8000A160A080A0689842EAD316F06BF900F013F870BD6C0F0020C0102E40FFFF000010B508461946FFF7A5FF10BD704710B5FFF77EFF10BD00000348002101604160A8
:406CC0008160C160704700006C0F0020024610B5FF20002A0CD0FFF7EFFF064C0321207B0843207310010A21FEF74EFA2060002010BD00006C0F002000B504480A218068A6
:406D000048430209FFF7D8FF104600BD6C0F00200248007B8007C00F704700006C0F002010B54B490868002802DA4A4B01221A70022290430860484800694549C00B4031A4
:406D4000096A0246C907C90F0A4259D0012000F09FFB3F480E216C30FEF768F83E4820218430FEF763F83C4814219C30FEF75EF83948FF21C131A430FEF758F83648FF2104
:406D80002F31B030FEF752F833483449BC30FEF74DF831483249AC30FEF748F830492E48491CB430FEF742F82B482E49B830FEF73DF829482C49CC30FEF738F826482B49E5
:406DC0000830FEF733F824482949A830FEF72EF8214828498830FEF729F81F4826498C30FEF724F81C481921C9029030FEF71EF8FEF71EF8FEF7DAF8C0B2022812D01FE09C
:406E000000290BD0002101420AD0114801216030FEF70CF80120FEF7A9F897E70121F2E7FF2010BD15491648FEF700F814481549001DFDF7FBFF124800210830FDF7F6FFE6
:406E400054200449C043891C0870002010BD000000F02E401003002000002E40320300002F3F00003102000010520000EC160000FA12000031D000003AE3000099560000F2
:406E800080012E40F80F000070B50646581C80B245086D00002408E0304600F0C1F81055000A1119A41C4870A4B2AC42F4D3D80705D0D0182038D15CC47FD454C17770BDD3
:406EC00030B50A4C002100195B1E07E0541864782502545C2C430480891C89B29942F5DB994201D1515C018030BD000000102E4010B5FF2000F0CCFA0F49FF2048700E48BB
:406F00001021801D41800121417001700A490020C91C4870FFF704FF04000AD100F02EF907210648FDF780FF044807211830FDF77BFF204610BD000010030020CC112E40BB
:406F400070B5002405465B1E0AE0284600F068F8010A161971702D1D1055A41CADB2A4B29C42F2DB9C4203D1284600F059F8105570BD000070B500210A4D5B1E0AE0541813
:406F800064782602545C344346193480001D891C80B289B29942F2DB994202D1515C4019018070BD00102E40F0B50599091FCFB200217E1E0BE0541864782502545C2C43BA
:406FC000164D45192C80001D891C80B289B2B142F1DBFC0712D01C78515C24020F4A0C4381180C809C785D78001D210280B2294384182180001D80B2D9780CE059781A782A
:4070000009021143054A84182180001DD9789B78090280B2194380180180F0BD00102E40014940180088704700102E4010B50B490020487000F0A2F8002000F04FFA0020B4
:4070400000F03CFA07210648FDF7EEFE044807211830FDF7E9FE002010BD000013030020CC112E4010B50C48007801280FD101F0BBF800F0DDF8002804D10848016A490883
:4070800049000162054802213030FDF7CFFE02490020C91E087010BD1303002040F02E4010B50B46062812D006DC01280CD0032801D1FFF7BBFF10BD0A28FCD00B28FAD1A5
:4070C00005480078107010BDFFF712FF10BD1146184600F01FFA10BD16030020F8B5244DAC6A0127A007234E002816DA307806280ED1286A384328621F480069F9030843F7
:4071000081B21D481030FDF791FE042000F0C0F9174802212830FDF787FEE00718D001F0C9F901280FD1002001F0D2FA062000F0AFF91049FF20C91E48707078002802D1B4
:40714000686B384368630A4801212830FDF76CFEE0050BD53078042802D1052000F098F90348FF2101312830FDF75EFEF8BD000040F02E401303002000002E4010B5032195
:407180002348FDF753FE0120FDF7ECFE20483038406A204C80076178800F890001431C480C38FDF743FE6078002808D0401E022181401820FEF7D8F8C000083800E0B820D2
:4071C00081B21548FDF732FE1348032109021438FDF72CFE10481149B830FDF727FE612189010F48FDF722FE0D480321001FFDF71DFE0C490C48FDF719FE0B480B49603823
:40720000FDF714FE084801218838FDF70FFE10BD70F02E4016030020D8102E4090890000041E2E40FF0F000058122E4020900000044800684007400F022801D00020704790
