:400000000080002011000000191700001917000080B500AF024A034B1B68136001F086FBBC760040FA46004010B5054C237833B9044B13B10448AFF300800123237010BD35
:400040008081FF1F00000000A8230000084B10B51BB108480849AFF300800848036803B910BD074B002BFBD0BDE81040184700BF00000000A82300008481FF1F0881FF1FBB
:400080000000000080B582B000AF012002F01CF900BF01F08BFF0346012BFAD0002001F0A7FF002001F0C2FF002001F0DBFF002002F0DCF8002002F0F7F801F0F1FF00202D
:4000C00001F06EFD002001F0A5FD62B6002002F0FBF800F02FF80346FB71012002F0E4F802F070F8002001F0BDFFFB79012B03D1012001F09BFF12E0012001F079FF002036
:4001000002F0B4F801F05AF90346BB71BB7903F02003002B03D000F007FC03467B71002001F03EFD012002F0CFF8002001F056FDABE700BF80B500AF564B00221A70554B4C
:400140001B780133DAB2534B1A7000F07DFD0346002B01D100239BE00020002101F078FD4D4801F0ABFD4B4B1B780133DAB2494B1A7000F003FE0346002B01D1002387E019
:400180000020002101F064FD444801F097FD414B1B780133DAB23F4B1A7000F06FFE0346002B01D1002373E00020002101F050FD3B4801F083FD374B1B780133DAB2354BC7
:4001C0001A7000F0EDFE0346002B01D100235FE00020002101F03CFD324801F06FFD2D4B1B780133DAB22B4B1A7000F0F1FE0346002B01D100234BE00020002101F028FD1B
:40020000294801F05BFD234B1B780133DAB2214B1A7000F06DFF0346002B01D1002337E00020002101F014FD204801F047FD194B1B780133DAB2174B1A7000F0F1FF0346C5
:40024000002B01D1002323E00020002101F000FD174801F033FD0F4B1B780133DAB20D4B1A700C4B1B780133DAB20A4B1A7001F067F80346002B01D1002309E000200021B1
:4002800001F0E6FC0B4801F019FD01F0A3F80123184680BDA981FF1FAC230000C0230000D4230000E8230000FC23000010240000242400003824000080B400AF084B084A4B
:4002C0001278D2B2D2B222F00E02D2B242F00C02D2B2D2B21A70BD465DF8047B704700BF0E50004080B400AF084B084A1278D2B2D2B222F00E02D2B242F00202D2B2D2B20B
:400300001A70BD465DF8047B704700BF0E50004080B400AF084B084A1278D2B2D2B222F00E02D2B242F00C02D2B2D2B21A70BD465DF8047B704700BF0D50004080B400AFE9
:40034000084B084A1278D2B2D2B222F00E02D2B242F00202D2B2D2B21A70BD465DF8047B704700BF0D50004080B400AF084B084A1278D2B2D2B222F00E02D2B242F00C02EE
:40038000D2B2D2B21A70BD465DF8047B704700BF0F50004080B400AF084B084A1278D2B2D2B222F00E02D2B242F00202D2B2D2B21A70BD465DF8047B704700BF0F5000404B
:4003C00080B400AF054A054B1B78DBB243F04003DBB21370BD465DF8047B70471051004080B400AF054A054B1B78DBB223F04003DBB21370BD465DF8047B7047105100406F
:4004000080B400AF054A054B1B78DBB243F02003DBB21370BD465DF8047B70471051004080B400AF054A054B1B78DBB223F02003DBB21370BD465DF8047B7047105100406E
:4004400080B400AF054A054B1B78DBB263F07F03DBB21370BD465DF8047B70471051004080B400AF054A054B1B78DBB203F07F03DBB21370BD465DF8047B70471051004070
:4004800080B400AF064B1B78DBB25B09DBB203F00103DBB21846BD465DF8047B704700BF1151004080B584B000AF0346FB710023FB730023FB7317E0FB7903F00103002BAA
:4004C00006D0FFF78DFFFFF79BFFFFF779FF05E0FFF786FFFFF7A4FFFFF772FFFB795B08FB71FB7B0133FB73FB7B072BE4D91037BD4680BD80B582B000AF0023FB71002337
:400500007B710023BB710023FB7125E0164A164B1B78DBB223F04003DBB21370FFF7B0FF03467B71104A104B1B78DBB243F04003DBB21370BB795B08BB717B79002B04D0BA
:40054000BB7963F07F03BB7103E0BB7903F07F03BB71FB790133FB71FB79072BD6D9BB7918460837BD4680BD1051004080B500AFFFF7E4FEFFF734FFFFF722FF80BD00BF7B
:4005800080B500AFFFF7C4FEFFF72AFFFFF718FF80BD00BF80B582B000AF0023FB7100237B710023BB710023BB7113E0FFF718FFFFF766FF03467B71FFF702FF7A79BB7977
:4005C00002FA03F3DAB2FB791343DBB2FB71BB790133BB71BB79022BE8D9FB7918460837BD4680BD80B582B000AF0346FB71FFF7F7FEFB79002B02D0FFF702FF01E0FFF7BE
:400600000FFFFFF7DDFE0837BD4680BD80B582B000AFFFF7E5FEFFF733FF0346FB71FFF7CFFEFB7918460837BD4680BD80B582B000AFFFF7F5FE0023FB7106E0FFF7D0FE44
:40064000FFF7BEFEFB790133FB71FB79022BF5D90837BD4680BD00BF80B485B000AF0346FB710023FB730023BB730DE0FB7903F00103002B02D0FB7B0133FB73FB795B0814
:40068000FB71BB7B0133BB73BB7B072BEED9FB7B18461437BD465DF8047B704780B582B000AF0023FB710023BB710DE0BB790C4AD35C1846FFF7D0FF03461A46FB79134429
:4006C000FB71BB790133BB71BB79032BEED9FB7903F00103DBB218460837BD4680BD00BFAC81FF1F90B583B000AF0023FB71224B1B781846FFF7D6FEFFF738FFFFF74AFFA8
:4007000003461A461D4B1A700023BB7109E0BC79FFF7F0FE03461A46194B1A55BB790133BB71BB79032BF2D9FFF770FF03467B71FFF726FFFFF77AFFFB790133FB710F4BFE
:400740001B78022B02D1FB79042BD0D90B4B1B78012B0DD1FFF7A2FF03461A467B79934206D0064B1B7843F00803DAB2034B1A700C37BD4690BD00BFB181FF1FB081FF1F51
:40078000AC81FF1F80B582B000AF0023FB71FFF785FF03467B71184B1B781846FFF782FEFFF7E4FEFFF7F6FE03461A46134B1A70FFF7E6FE0023BB7108E0BB79104AD35CAF
:4007C0001846FFF76FFEBB790133BB71BB79032BF3D97B791846FFF705FFFFF727FFFB790133FB71054B1B78022B02D1FB79042BD1D90837BD4680BDB181FF1FB081FF1FAC
:40080000AC81FF1F80B483B000AF1F4A1E4B1B78DBB243F02003DBB213700023FB7112E0194A194B1B78DBB223F04003DBB21370154A154B1B78DBB243F04003DBB21370CC
:40084000FB790133FB71FB79322BE9D90E4A0E4B1B78DBB223F04003DBB213700A4A0A4B1B78DBB223F02003DBB21370064A064B1B78DBB243F04003DBB213700C37BD46FE
:400880005DF8047B704700BF1051004080B582B000AF00237B602048204900F0FFFD1F4B1B6803F010431D4A13607B6801337B601A4B1B68002B04D07B6842F6B0029342F4
:4008C000E9D97B6842F6B00293420CD9144B1B7843F02003DAB2124B1A7012480F4900F0DDFD002314E00F480C4900F0D7FD0B4B1B6803F07043B3F1204F08D0084B1B78A1
:4009000043F02003DAB2064B1A70002300E0012318460837BD4680BD04001040A081FF1FB081FF1F0800104080B400AF034B1B68DBB21846BD465DF8047B7047A081FF1F50
:4009400080B582B000AF00237B6000233B604DF2B6337B601A48796800F0CEFD194B1B78012B01D0002327E017484FF0004100F0C3FD144B1B78012B01D000231CE0FFF7F3
:4009800085FF03461A46114B1A70104B1B78012B01D0002310E03B460B48194600F07EFD084B1B78012B01D0002305E03B681B0BDAB2074B1A70012318460837BD4680BD6B
:4009C00008001040B081FF1F04001040A481FF1FA581FF1F80B582B000AFFB1D184600F035FE224B03221A70214B1B78012B0ED0022B17D0002B23D1FB79012B03D11B4B94
:400A000001221A7020E0194B03221A701CE0FB79002B03D1154B03221A7015E0134B00221A7011E0FB79012B02D0FB79022B03D10E4B02221A7007E00C4B03221A7003E0CA
:400A40000A4B03221A7000BF084B1B78032B08D1084B1B7863F07F03DAB2064B1A70002300E0012318460837BD4680BDB281FF1FA581FF1FB081FF1F80B586B000AF034659
:400A80003960FB711346BB8000233B610023FB600023FB82FB791B0603F55743B6333B61BB88013BFB603648396900F025FD354B1B78012B01D000235DE03348F96800F0CC
:400AC0001BFD304B1B78012B01D0002353E00023FB822CE0FB8A3A6813441B781946FB8A01333A6813441B781B02CA18FB8A023339680B441B781B041A44FB8A0333396807
:400B00000B441B781B0613443B61FB8A03F1005303F584731846396900F0EEFC194B1B78012B01D0002326E0FB8A0433FB82FB8AFF2BCFD91548124900F0DEFC114B1B780C
:400B4000012B01D0002316E01148124900F0D4FC0C4B1B78012B01D000230CE0FFF796FE03461A460C4B1A700B4B1B78012B01D0002300E0012318461837BD4680BD00BF28
:400B800000010020B081FF1F04010020080010400400104004000080A481FF1F80B584B000AF03463960FB800023FB600023BB60FB88DBB21A04FB8803F47F431B0413441C
:400BC00003F55E43B633FB601A48F96800F094FC194B1B78012B01D0002327E01748184900F08AFC144B1B78012B01D000231DE0FFF74CFE03461A46124B1A70114B1B78B3
:400C0000012B01D0002311E007F108030948194600F044FC084B1B78012B01D0002305E0BB6823F070423B681A60012318461037BD4680BD08001040B081FF1F04001040CC
:400C40000B000080A481FF1F80B584B000AF0023BB600023FB8100237B60FFF785FBFFF7EFFBFFF729FBFFF7BBFBFFF751FBFFF7D7FBFFF7F5FB00F063FCFFF7E1FBFFF790
:400C8000C1FD07F10803A520194600F0B7FBFB890133FB81354B1B78012B02D0FB89132BEDD9FB89142B08D1304B1B7843F01003DAB22E4B1A70002353E0BB682C4A93429D
:400CC00008D02A4B1B7843F04003DAB2274B1A70002346E0A9204FF0A84100F0B9FB234B1B78012B01D000233BE0B120002100F0AFFB1E4B1B78012B01D0002331E0A32080
:400D0000022100F0A5FB194B1B78012B01D0002327E018484FF0004100F0EEFB134B1B78012B01D000231CE03B1D1248194600F0B5FB0E4B1B78012B01D0002311E07B688B
:400D4000002B01DB00230CE0FFF7A0FD03461A46094B1A70084B1B78012B01D0002300E0012318461037BD4680BD00BFB081FF1F7714B10B14000340A481FF1F80B586B0FA
:400D800000AF0023BB6000233B6100237B6000233B6007F10803184600F0E4FB4DF2B6333B613248396900F0A7FB314B1B78012B01D0002355E02F484FF0004100F09CFB47
:400DC0002B4B1B78012B01D000234AE0FFF75EFD03461A46284B1A70274B1B78012B01D000233EE03B1D2148194600F057FB204B1B78012B01D0002333E03B461D4819468E
:400E000000F04CFB1A4B1B78012B01D0002328E03B681A067B6803F47F031A447B681B029BB21A447B681B0ADBB21344FB600023FB7512E0BA68FB68534023F47F03002B8B
:400E400008D00B4B1B7843F04003DAB2084B1A70002306E0FB7D0133FB75FB7D032BE9D9012318461837BD4680BD00BF08001040B081FF1F04001040A481FF1F80B582B0D0
:400E800000AF00237B60FFF75BFDFFF7A3FD03461A463A4B1A70394B1B78012B01D0002368E0374B1B78002B03D0354B1B78012B2DD14DF6B6537B603248796800F01CFB91
:400EC000314B1B78012B01D0002353E02F482D4900F012FB2C4B1B78012B01D0002349E02B482C4900F008FB274B1B78012B01D000233FE0FFF7CAFC03461A461F4B1A70DB
:400F00001E4B1B78012B01D0002333E031E01C4B1B78022B2DD1204B7B601C48796800F0EBFA194B1B78012B01D0002322E018481A4900F0E1FA144B1B78012B01D0002333
:400F400018E0FFF7A3FC03461A460C4B1A700B4B1B78012B01D000230CE0FFF775FE03461A46064B1A70054B1B78012B01D0002300E0012318460837BD4680BDA481FF1F51
:400F8000B281FF1F00010020B081FF1F08001040040010400A000080B6E001000D00008080B500AF4FF400400749FFF7F7FD03461A46064B1A70054B1B78012B01D00023EE
:400FC00000E00123184680BD9C81FF1FA481FF1F80B5C4B000AF002387F80D310023A7F80A310023A7F80E310023C7F8043100F089FB0346A7F80A310023A7F80E315EE0B1
:40100000B7F80E213B1D1046194600F0CDFAB7F80E315B0A9BB287F80D3197F80D213B1D104619464FF48072FFF726FD03461A46294B1A70284B1B78012B01D0002345E0A7
:40104000B7F80E31DBB21A04B7F80E3103F47F431B04134403F55943B633C7F804311F48D7F8041100F048FA1D4B1B78012B01D000232BE01B48194900F03EFA184B1B78C3
:40108000012B01D0002321E01748184900F034FA134B1B78012B01D0002317E0FFF7F6FB03461A460C4B1A700B4B1B78012B01D000230BE0B7F80E310133A7F80E31B7F815
:4010C0000E21B7F80A319A429AD30123184607F58877BD4680BD00BFA481FF1F00010020B081FF1F08001040040010400600008080B5ADF5047D00AF0023C7F800320023EF
:40110000A7F80A320023C7F8043200F0FBFA0346A7F80A320023A7F80E3272E0B7F80E321B02C7F80432B7F80E2207F580731046194600F039FA0023A7F80C3237E0B7F8F2
:401140000C22D7F804321A4407F500731046194600F0A4F9314B1B78012B01D0002357E0B7F80C32D7F80022D1B23A46D154B7F80C320133D7F80022120AD1B23A46D1546B
:40118000B7F80C320233D7F80022120CD1B23A46D154B7F80C320333D7F80022120ED1B23A46D154B7F80C320433A7F80C32B7F80C32FF2BC3D90023A7F80C3218E0B7F81F
:4011C0000C323A46D25CB7F80C3207F58071CB5C9A4208D0114B1B7843F04003DAB20F4B1A70002314E0B7F80C320133A7F80C32B7F80C32FF2BE2D9B7F80E320133A7F8D0
:401200000E32B7F80E22B7F80A329A4286D30123184607F50477BD4680BD00BFB081FF1F80B594B000AF002387F84F30002387F84E30002387F84D300023A7F84A30002341
:401240007B6400F05FFA0346A7F84A30B7F84A305B0A9BB287F84E30B7F84A2097F84E30DB0092FBF3F387F84D30FB1C184600F0EDF9002387F84F304DE097F84D103A1DC0
:4012800097F84F30084611461A4600F0EFF997F84D309BB297F84F103A1D084611461A46FFF7EAFB03461A46204B1A701F4B1B78012B01D0002335E0FB781A0497F84F3056
:4012C0001B06134403F56043B6337B641848796C00F012F9174B1B78012B01D0002321E01548164900F008F9124B1B78012B01D0002317E0FFF7CAFA03461A460B4B1A70C6
:401300000A4B1B78012B01D000230BE097F84F30013387F84F3097F84F2097F84E309A42ABD3012318465037BD4680BDA481FF1F08001040B081FF1F040010400D00008001
:4013400080B584B000AF0023BB600023FB810023FB8007F108034FF400401946FFF71EFC03461A46124B1A70114B1B78012B01D0002318E0BB689AB20E4B1B689BB2D31AC9
:40138000FB81BB1D184600F097F9FB88FA899A4208D0094B1B7843F04003DAB2064B1A70002300E0012318461037BD4680BD00BFA481FF1F9C81FF1FB081FF1F80B400AF02
:4013C000034B1B781846BD465DF8047B704700BFB081FF1F80B500AFFFF702F8FFF720F8FEF7ACFFFEF77EFFFFF73AF800F0A8F8FFF726F8FEF7CEFF80BD00BF80B582B02D
:4014000000AF03463960FB710E4AFB791370FFF769F90D4B1B78012B00D00FE00B4BDB781A060A4B9B781B041A43084B5B781B021343064A12781A433B681A600837BD4656
:4014400080BD00BFB181FF1FB081FF1FAC81FF1F80B582B000AF03463960FB710D4AFB7913703B681B0EDAB20B4BDA703B681B0CDAB2094B9A703B681B0ADAB2064B5A70B9
:401480003B68DAB2044B1A70FFF77CF90837BD4680BD00BFB181FF1FAC81FF1F80B582B000AF786039608B207968FFF7D1FF114B1B78012B02D00F4B1B7817E09F203968D6
:4014C000FFF79CFF0B4B1B78012B02D0094B1B780CE09F203968FFF791FF064B1B78012B02D0044B1B7801E0024B1B7818460837BD4680BDB081FF1F80B582B000AF78601C
:4015000039608B207968FFF7A3FF0C4B1B78012B02D00A4B1B780CE0BB203968FFF798FF064B1B78012B02D0044B1B7801E0034B1B7818460837BD4680BD00BFB081FF1FB8
:4015400080B483B000AF0023FB8002E0FB880133FB80FB88B3F5167FF8D30C37BD465DF8047B704780B485B000AF78600023FB730FE07B681A68FB7B0A49CB5C1946FB7BAD
:40158000DB0001FA03F31A437B681A60FB7B0133FB73FB7B032BECD91437BD465DF8047B704700BF4C24000080B485B000AF03463960FB80FB88B3F5337F14D80023FB813F
:4015C0000DE0FB893A681344F988FA891D4809020A44024412781A70FB890133FB81FB89FF2BEED928E0FB88B3F57E7F16D30023FB810FE0FB893A681344FA88A2F57E7190
:40160000FA89114809020A44024412781A70FB890133FB81FB89FF2BECD90DE00023FB8107E0FB893A68134400221A70FB890133FB81FB89FF2BF4D91437BD465DF8047B07
:40164000704700BFD8240000D8F1020080B483B000AF7860044B1A787B681A700C37BD465DF8047B704700BFD424000080B485B000AF03463960FB711346BB710023FB81DF
:401680000EE0FB893A681344F989BA79F87900FB02F20A4407498A5C1A70FB890133FB81FB799BB2FA899A42EBD31437BD465DF8047B70475424000080B485B000AF786049
:4016C0000023FB7314E07B681B8899B2FB7B0C4AD35C1A46FB7BDB0002FA03F39BB20A4613439BB29AB27B681A80FB7B0133FB73FB7B012BE7D91437BD465DF8047B70479A
:401700005024000080B400AF4FF480631846BD465DF8047B704700BF80B500AF00F004FE03461B680C2B00D1FEE7FEE780B586B000AF224B7B61224B3B61204B7B6135E045
:401740003B691B68FB603B695B68BB603B699B683B6000237B600CE0FB681A68BB681A60BB680433BB60FB680433FB607B6804337B607A683B689A42EED13B69DB683B60B6
:4017800000237B6008E0BB6800221A60BB680433BB607B6804337B607A683B689A42F2D13B6910333B617B69013B7B617B69002BC6D100F0BFFDFEF765FCFEE701000000E9
:4017C0002CFA020080B582B000AF174B174A1A60174A174B1B6843F40073136000237B600FE07B68032B04D8124A7B6852F8233000E0114B11497A6841F822307B6801333B
:401800007B607B682F2BECD90D4B1B78DAB20D4B1A700D4B094A1A6000F018F90B4B00221A600837BD4680BD0CED00E00004FA0514ED00E000000000191700000080FF1F50
:40184000BC7600400481FF1F08ED00E00081FF1F80B582B000AF78603960786800213A6800F099FD0837BD4680BD00BF80B584B000AFF860B9607A60F868B9687A6800F03B
:401880007FFD1037BD4680BD80B483B000AF0346FB71FEE780B487B000AF7860396000233B6100237B6127E07B699B007A6813441B68BB60BB68FB73BB6823F0FF03BB60EB
:4018C00014E03B695B003A6813441B781A46BB68134419463B695B003A6813445B780B703B6901333B61FB7B013BFB73FB7B002BE7D17B6901337B617B690C2BD4D91C37EE
:40190000BD465DF8047B704780B582B000AF304B03221A802F4B1B221A702F4B02221A704FF0402308221A702C4B03221A702C4B2C4A1278D2B21A702B4B40F23F221A80BC
:401940002A4B41F251221A800023FB7019237B6014E0FB785B00DAB2254B1B78DBB203F00103DBB21343DBB203F00303FB704FF4F07000F0C9FC7B68013B7B607B68002B04
:4019800002D0FB78032BE4D17B68002B02D10320FFF77AFF174B4FF480721A80154B07221A70154B00221A70144B48221A70114B00221A70124B02221A70124A114B1B788B
:4019C000DBB243F00103DBB213700837BD4680BD80400040824000400043004000420040A14600400801004922420040204200402542004004400040064000400840004095
:401A000001400040A243004080B483B000AF0B4B1B78FB710A4AFB7903F00703DBB21370084AFB791B09DBB21370074B44221A700C37BD465DF8047B704700BFCF010049DB
:401A40006E5800406F5800407658004080B582B000AF72B63C4B61221A70FFF755FF3A4B01221A700023FB7113E0FA7913465B0013445B00354A13443B603B681A683B6869
:401A80009B889BB210461946FFF7E2FEFB790133FB71FB79062BE8D94FF090402C49FFF7F9FE2C4B20221A702B4A2B4B1B78DBB243F00203DBB21370284A284B1B78DBB2A5
:401AC00043F00203DBB21370254A254B1B78DBB243F04003DBB21370224A224B1B78DBB243F01003DBB213701F4820490A22FFF7BDFE1F481F490A22FFF7B8FE1E481F49A8
:401B00000A22FFF7B3FE1E481E490A22FFF7AEFE1D481E490A22FFF7A9FE1D481D490822FFF7A4FE1C4A1C4B1B78DBB243F00803DBB21370FFF768FF184809490E22FFF7A5
:401B400095FE0837BD4680BD00480040D8F9020034000048126000400350014013500140A0430040C2430040005100407C000048C051004088000048F05100409400004857
:401B800010510040A000004820510040AC00004832510040B800004822430040B043004080B485B000AF0346FB710B4B1B78DBB223F04003FB730849FB799B01DBB203F074
:401BC0004003DAB2FB7B1343DBB20B701437BD465DF8047B704700BF1051004080B483B000AF0346FB710A4B094A1278D2B2D2B222F00E02D1B2FA7902F00E02D2B20A4319
:401C0000D2B2D2B21A700C37BD465DF8047B70470F50004080B485B000AF0346FB710B4B1B78DBB223F02003FB730849FB795B01DBB203F02003DAB2FB7B1343DBB20B7097
:401C40001437BD465DF8047B704700BF1051004080B582B000AF03460A46FB711346BB71FB79032B26D801A252F823F07D1C00008B1C0000991C0000A71C0000BB79803B44
:401C8000DBB2184600F050F815E0BB79403BDBB2184600F049F80EE0BB796C3BDBB2184600F042F807E0BB792C3BDBB2184600F03BF800E000BF0837BD4680BD80B584B04C
:401CC00000AF78600123FB737B681B78BB730BE0BB7B184600F00EF8FB7B7A6813441B78BB73FB7B0133FB73BB7B002BF0D11037BD4680BD80B584B000AF0346FB7100F0C4
:401D00002DF8FB791B09FB73FB7B184600F0E2F8FB7903F00F03FB73FB7B184600F0DAF81037BD4680BD00BF80B584B000AF0346FB7100F013F8FB791B09FB73FB7B184675
:401D400000F004F9FB7903F00F03FB73FB7B184600F0FCF81037BD4680BD00BF80B582B000AF4FF4CA737B60554A554B1B78DBB223F07F03DBB21370524B1B78DBB223F04C
:401D80000F03FB704F4AFB7843F00F03DBB213704D4B1B78DBB223F00F03FB704A4AFB7813704A4B1B78DBB223F00F03FB70474AFB781370424A424B1B78DBB223F0200338
:401DC000DBB213703E4A3E4B1B78DBB243F04003DBB21370002000F0F9F8394A384B1B78DBB243F01003DBB21370012000F0EEF8374B1B78FB70324A314B1B78DBB223F0FD
:401E00001003DBB21370002000F0E0F8FB7803F00803FB702A4A2A4B1B78DBB243F01003DBB21370012000F0D1F8254A244B1B78DBB223F01003DBB21370FB78002B02D1DD
:401E40000A2000F0C3F87B68013B7B60FB78002B02D07B68002BBDD1194A194B1B78DBB223F04003DBB21370154A154B1B78DBB223F07F03DBB21370124A124B1B78DBB2DD
:401E800023F00F03DBB213700F4B1B78DBB223F00F03FB700C4AFB7843F00F03DBB213700A4B1B78DBB223F00F03FB70074AFB7843F00F03DBB213700837BD4680BD00BF69
:401EC000F0510040F2510040F3510040F4510040F151004080B582B000AF0346FB711A4A194B1B78DBB243F02003DBB21370164A154B1B78DBB223F04003DBB213700020D4
:401F000000F064F8104A104B1B78DBB223F00F03DBB213700C490C4B1B78DAB2FB791343DBB243F01003DBB20B70012000F04EF8054A054B1B78DBB223F01003DBB213708F
:401F40000837BD4680BD00BFF051004080B582B000AF0346FB71144A134B1B78DBB223F06003DBB21370104A0F4B1B78DBB223F00F03DBB213700C490B4B1B78DAB2FB792E
:401F80001343DBB243F01003DBB20B70012000F01DF8054A044B1B78DBB223F01003DBB213700837BD4680BDF051004080B400AF054B1B78DBB203F004039B08DBB21846FB
:401FC000BD465DF8047B70472151004080B582B000AF0346FB80FB88044A127802FB03F3184600F091F90837BD4680BD1481FF1F80B485B000AF0346FB710B4B1B78DBB22C
:4020000023F00403FB730849FB799B00DBB203F00403DAB2FB7B1343DBB20B701437BD465DF8047B704700BF3051004080B485B000AF0346FB710A4B1B78DBB223F001031F
:40204000FB730749FB7903F00103DAB2FB7B1343DBB20B701437BD465DF8047B704700BF3051004080B485B000AF0346FB710B4B1B78DBB223F00203FB730849FB795B0095
:40208000DBB203F00203DAB2FB7B1343DBB20B701437BD465DF8047B704700BF2051004080B500AF054B1B78002B04D100F008F8024B01221A7000F061F880BDA881FF1F74
:4020C00080B582B000AF284A274B1B78DBB243F00203DBB21370254B1B78DBB223F07003FB71224AFB7943F01003DBB21370204A1F4B1B78DBB223F03003DBB213701C4A16
:402100001B4B1B78DBB243F03003DBB21370184A174B1B78DBB223F00F03DBB21370144A134B1B78DBB243F00F03DBB21370FF2000F06CF87F2000F079F8002000F086F858
:402140000C4A0C4B1B78DBB243F00103DBB21370094A094B1B78DBB243F00103DBB213700837BD4680BD00BF004F0040024F00400B4F0040A3430040014F004080B400AFAC
:402180000D4A0D4B1B78DBB243F00103DBB213700A4A0A4B1B78DBB243F00103DBB21370074A074B1B78DBB243F00103DBB21370BD465DF8047B7047A3430040B343004005
:4021C000004F004080B400AF0D4A0D4B1B78DBB223F00103DBB213700A4A0A4B1B78DBB223F00103DBB21370074A074B1B78DBB223F00103DBB21370BD465DF8047B70470F
:40220000004F0040A3430040B343004080B483B000AF0346FB71044BFA7992B21A800C37BD465DF8047B7047044F004080B483B000AF0346FB71044BFA7992B21A800C3736
:40224000BD465DF8047B7047064F004080B483B000AF0346FB71044AFB7913700C37BD465DF8047B704700BF034F004080B485B000AF0346FB710B4B1B78DBB223F00803A8
:40228000FB730849FB79DB00DBB203F00803DAB2FB7B1343DBB20B701437BD465DF8047B704700BF3051004080B483B000AF0346FB71044AFB7913700C37BD465DF8047BA2
:4022C000704700BF7565004080B485B000AF0346FB710B4B1B78DBB223F00803FB730849FB79DB00DBB203F00803DAB2FB7B1343DBB20B701437BD465DF8047B704700BF5C
:4023000000510040000000000230800803D000BF01380046FCD17047EFF3108072B6704780F31088704700BF014B1868704700BF7C81FF1F0E4B70B51E460E4C0025E41A2F
:40234000A410A54204D056F8253098470135F8E72DF05AFB084B094C1E46E41AA4100025A54204D056F8253098470135F8E770BD14FA020014FA020014FA02001CFA02003B
:4023800010B5431E0A44914204D011F8014B03F8014FF8E710BD03460244934202D003F8011BFAE7704700000000000044657620416371756972652020204F4B00000000CE
:4023C0005665726966792053696C202020204F4B00000000457261736520416C6C20202020204F4B0000000043686B53756D50727620202020204F4B0000000050726F674E
:4024000072616D20466C617368204F4B0000000056657269667920466C61736820204F4B000000005072672050726F746563742020204F4B0000000056657269667920433B
:40244000686B53756D204F4B00000000135111A319200000FFFFFFFFFFFFFFFFFFFFFFFFFFFFFFFFFFFFFFFFFFFFFFFFFFFFFFFFFFFFFFFFFFFFFFFFFFFFFFFFFFFFFFFF75
:40248000FFFFFFFFFFFFFFFFFFFFFFFFFFFFFF1F0000000000000000000000000000000000000000000000000000000000000000000000000000000000000000000000000C
:4024C0000000000000000000000000000000000000000000020000000080002011000000CD010000CD01000008B500F03DFA00F0E1F8000038B572B680250024204BED00AA
:402500001C602A1C211C1F4800F021FD2A1C211C1D4800F01CFD02213C201C4B1C4A1C601C4B1C6013780B431B4913700B788343283803430B70162113781C300B43137082
:402540001222164B1A6000F081FB154A154B16491A60164B063A1A608022154B12031A60082000F049FB082000F04EFB114B124A1C6003231360114A1360114B1C6038BD77
:402580006CF02E4000300F4000400F400000024000700F400800044001700F40300010400600008004010B403909000008010B4000010B400C020B40300030403000314064
:4025C000000E3F40000000000000000000000000000000000000000010B5064C2378002B07D1054B002B02D0044800E000BF0123237010BD6001002000000000900A0000C2
:4026000008B5084B002B03D00748084900E000BF07480368002B00D108BD064B002BFBD09847F9E700000000900A000064010020D0000020000000000047000000B501219F
:40264000C1B00B2000F0A8F8C1B2002913D001231148994300F083F8802200215200684600F075FC0D48694600F04CFA80220C4B1A6000F0D5FA112000F0B4FAC30701D4ED
:40268000002805D10021022000F086F8FFF7D4FF00F0D4F9FEE7C046DCFE0300FE030000C000002008B500F01DFC03680C2B00D1FEE7FEE770B51049104B01394A1C15D0DB
:4026C00000221E685C689D68A018AA4203D0B058A0500432F8E7021CDC68151AA54202D0002520C2F9E710330139E7E700F000FCFFF7A4FFFEE7C04601000000E80A000006
:402700000121104A10B51368141C8B43136000239A000D49032B01D80C4989580C4801338150302BF4D1FFF7E5FE0022094B1A60094B1A68002A00D11A600122236813438B
:40274000236010BD00001040CD0100000000000000000020C8000020C00000200047F0B5FF23051C9D432B1CC3B06E1C0191040AFF361A789446614602AA571BF954013329
:40278000B342F6D16B461B79C0B21354111CA0B200F0B8F943B0F0BD013800B50B282FD80902494200F094FB06080A0C0E10141216191B20154B13E0154B16E0154B0AE07D
:4027C000154B12E0154B0BE0154B09E0154B02E0154B00E0154BC91813E0154B05E0154BC9180878C0B210E0134BC9180A7848788B7800021B041843CB7810431B0603E03B
:4028000000210B7848780002184300BDC0FF0300C1FF0300C5FF0300C9FF0300D0FF0300D1FF0300D6FF0300D2FF0300D4FF0300D8FF0300DCFF0300E0FF0300F0B501217B
:40284000C7B00B20FFF7A8FF0021C3B203200393FFF7A2FF031C01339AB23D4B02909B1A5B08D3189BB2042001210493FFF794FF030A9BB2C0B20093002802D001339BB2EA
:4028800000930026341C009BB7B29F422CD20325049BFB189BB21B020193029B581C019B38180133FF330593019B80B21978019C8C46624606A90C1BE254059A013393422F
:4028C000F4D100F01FF9041E0CD0013DEDB2002DE3D1012303991F489943FFF740FF281C00F09CF90136CEE7002C2BD11A4B06AAE3181B78A354802301345B009C42F5D1C9
:402900000026FF3B3DAA1370144A06A916703AAA1370D1220E485218137000F0F3F8311C051C221C06A800F012FB0D4806A900F0E9F80543B54205D180220A4B1A6000F020
:402940006FF902E0002000F069F947B0F0BDC046FF030000DCFE030000FE0300D4000020FE030000C000002038B5184B184D1A681023134000D12B602B68802B25D10021CE
:402980000520FFF709FF0121041C0520FFF704FF0023E4B2C0B29C4204D01C1C984205D0033403E0441EA0410224241A0220211C2B60FFF7F1FE002807D0012C05D8211CFA
:4029C0000220FFF7E9FEFFF7C9FE38BD00030B40C000002070B5061C0320311CFFF7DCFE311C041C0420FFF7D7FE051C012E01D9062021E00134311C24020320FFF7CCFE39
:402A000061190024251C431C1B028B4209D21A78501EC0B2FD2800D801251219D4B20133F3E70120311CFFF7B7FE6442E4B28442DED1002DDCD0002070BD0000F8B50B2077
:402A40000121FFF7A9FEC30701D5FFF7F7FE0020FFF7C0FF051C0120FFF7BCFF0223254C071C002105202370FFF796FE0626012808D1002D02D125702E1C03E0002F01D137
:402A80003E1C20702378022B0ED105200121FFF783FE012808D1002F02D120703E1C03E0002D01D12E1C25702378022B08D1002D01D1257006E0002F02D10123237001E063
:402AC000002E12D12478E4B2012C08D801210A486140FFF744FE0948211CFFF740FE8022074B1A6000F09CF8F8BD002000F096F8F5E7C046D4000020D0FF0300D0FE0300B9
:402B0000C00000200023F0B5C7B0029303932C4B98424FD800294DD08022051C520006A800F00CFA274B9D4201D8274B00E0274B0493FF23264C2749274A04AE73602660CF
:402B40000A60C04622680191120F0F2A02D12268134005E022680023120F0A2A00D023680293029F002F27D100F0ABF90397029B002B18D1194A2D040492049A18491543C0
:402B80000495019D2660124A2960C0462168090F0F2902D11368DBB204E01168090F0A2900D013680293039B002B00D1039300F08CF901E004230293029847B0F0BDC046AB
:402BC000FF030000FF010000B6D70000B6D70001080010400400104004000080B6D80000050000801923021C02491A40086818400A60704700030B40024B8000C318186817
:402C000019607047400000201F2318401E3B8340181C014B1860704700E100E001BE7047034A044913689BB20B4313607047C0460CED00E00400FA0508B5034B1B7B584370
:402C400000F036F908BDC046E0000020F0B5051C87B000F036F9EB1E049003932D2B5BD8304B1B789D4204D82F4B1C782F4BE4B21EE02F4B1B789D4204D82E4B1C782E4B5D
:402C8000E4B215E02D4B1B789D4204D82C4B1C782C4BE4B20CE02C4B1B789D4204D82B4B1C782B4BE4B203E02A4B1C782A4BE4B21B78039ADBB20193284B294F9A5C059323
:402CC00002922F2A04D92A2D02D919263E6008E03F233E681E40029BB34205D2204B029A1A60052000F0E4F81B4B1E4AED182B780520DBB213601C4B019A1C601B4B1A60D9
:402D0000FFF79AFF029BB34206D9059B039A05209B5C3B6000F0CCF8049800F0D6F807B0F0BDC04640F3FF0F41F3FF0F42F3FF0F43F3FF0F44F3FF0F45F3FF0F46F3FF0F4B
:402D400047F3FF0F48F3FF0F49F3FF0F4AF3FF0F4BF3FF0F4CF3FF0F4DF3FF0F940A00002CFF0B4028FF0B401CFF0B4020FF0B4008B500F0A6F8C021034A090213680B43A3
:402D8000136000F0A2F808BD00010B4010B5802400F097F80749084B0A68E4011A4022430A600A6813408022120213430B6000F08CF810BD00010B40FF3FFFFF70B5051CAF
:402DC00000F07FF80E4B041C1A68C0231B02134011D10C480C490540281C0E680B4A3240104308600A68012B01D1FFF7C1FF201C00F06BF870BDFFF7C9FF0123E9E7C04678
:402E000000010B400404040010020B40FBFBFBFF042238B5224C2368134213D021494B6813420CD0204B5D6A48681540A8434860596A914359629B69002B00D0984704203D
:402E4000FFF7BCFF80232268DB001A4215D015494A681A420DD0144A556A48682B4098434860516A114B0B405362D369002B00D098478020C000FFF7A1FF80232268DB0227
:402E80001A420CD0074A52681A4204D0064B1B6A002B00D098478020C002FFF78FFF38BD10020B40F40000207C010020FFFBFFFF0230800803D00138FDD1C046C046C04668
:402EC0007047EFF3108072B6704780F31088704702B4714649084900095C49008E4402BC7047C046014B18687047C0465C0100200E4B70B500251E1C0D4CE41AA410A54231
:402F000004D0AB00F35898470135F8E700F046F8084B00251E1C084CE41AA410A54204D0AB00F35898470135F8E770BDD00A0000D00A0000D00A0000D80A0000002310B5C3
:402F4000934203D0CC5CC4540133F9E710BD031C8218934202D019700133FAE770470000000C0000DB00000000000000030405060708090A0B0C0E0F1011121314151617E8
:402F800018191B1C1D1E1F2021222325262728292A2B2E2F3031323334354300F8B5C046F8BC08BC9E4670472901000029020000F8B5C046F8BC08BC9E46704701010000FF
:402FC000F80A0000D000002090000000480000000000000002000000880A00008C0A0000010000000000E02EC05D00001800000000366E01F00000000404040000000000F8
:4030000000000000000000000000000000000000000000000000000000000000C20A00000000000000000000000000000000000000000000000000000000000000000000C4
:4030400000000000000000000000000000000000000000000000000000000000FC000020000000000000000000000000000000000000000000000000000000000000000034
:403080000000000000000000000000000000000000000000000000000000000000000000000000000000000000000000000000000000000000000000000000000000000010
:4030C00000000000000000000000000000000000000000000000000000800020110C0000811800008118000008B5024B83F3088800F052FE00800020F8B572B68026002452
:403100002E4D0227F6002C60211C321C2C4802F05BF8211C321C2B4802F056F83C202A4B2A4A1C602A4B2B491C6013782A4E3B4313700B788343283803430B701621137891
:403140000B4313701222254B1A6001F089FB244801F0D6FC012001F08FFB302001F0AAFA204A214BFA201A608023204ADB0533601368C0001F4317601D4B1E4A1A600822C9
:403180001D4B1C602B6893432B6001F025FB1B4801F086FA80221A4B12061A608022194B12031A608023DB0533600323164A1360164A1360164B1C60F8BDC0466CF02E40E0
:4031C00000300F4000400F400000024000700F400800044001700F400C020B4030001040001BB7000600008004010B4078002E407C002E402D3E000064F02E40DC05000055
:4032000008010B4000010B403000304030003140000E3F4010B5064C2378002B07D1054B002B02D0044800E000BF0123237010BDE806002000000000A8CF010008B5084B19
:40324000002B03D00748084900E000BF07480368002B00D108BD064B002BFBD09847F9E700000000A8CF0100EC060020D0000020000000001FB5282836D00DD826282FD0BA
:403280001ED8012849D1002000F090FE002301A8837102F095F840E0412829D008D82D283BD11E4B00211878012212F0DDF834E042282FD04F2830D1002014F0BFFE2CE03F
:4032C0004B88062B29D9062301A90B804B8000238B806433CB80114B18780FF0B1FF1CE00F4B1B78042B18D1002000F05FFE14E00C4C0222201C01F05EFF0B4B01A90B8100
:403300000023607801938B8023780002184314F079FE02E00022034B1A701FBDFA190020F8190020EC190020052A000007B500F089F862B600F030F8012000F0C3F90028BE
:4033400008D1134B1B78002B04D1013000F078FD01F084F90F4800F0BDFD002802D0032803D1FEE7684602F02FF800F08BF902F04FF8052000F0D8F9052001F07BF900F0CC
:4033800017F800F08FF80028F1D000F091F8EEE714FE03009D0D000008B504480378002B02D1012100F0E6F808BDC0460AFF030038B5194B194C1D782378AB4202D001237F
:4033C0002570638063880F2B06D1012000F07AF9002801D0002363806388022D10D0002B01D00133638063881D2B14D9FA20400001F040F9012000F023FD01F02FF90AE0F1
:40340000002B05D0064A1278012A01D00133638063883B2BEAD838BDF8190020D40000205408002008B5064B04201A6801321A6001221A7101F002FB01F098F808BDC046AD
:403440000407002010B5002401F04AFA134B14481C6001F077F8201C012101F065FA8021201C090201F0C6FA201C012101F07CFA082001F0A5FA0120142101F0BBFA01208C
:40348000022101F051FA0120011C01F06DFA0220FF3001F07FFA01F015FA10BD040700204D0F0000014B1879C0B270470407002008B501F015FA012001F0F8FA01F002FA29
:4034C0000022014B1A7108BD0407002010B5044C2378002B03D103F04FF90123237010BD0C070020002310B5044A01329C5CC25C6240CA540133102BF6D110BD0C070020CD
:40350000F0B50023071C89B00024124D6A1C9C540133102BF8D1381904A9FFF7E3FF2E1CFFF7D4FF0C481136011C361903AB1031019304AA1023009604F005FA681C311C88
:40354000102201F038FE802310345B009C42E2D109B0F0BD0C070020ACCF0100002310B5002A05D0013A4418A45C1B19DBB2F7E7181C10BDF0B5FF23051C9D432B1CC3B06A
:403580006E1C0191040AFF361A789446614602AA571BF9540133B342F6D16B461B79C0B21354111CA0B200F0E9FF43B0F0BD0000013800B50B282FD80902494201F016FC68
:4035C00006080A0C0E10141216191B20154B13E0154B16E0154B0AE0154B12E0154B0BE0154B09E0154B02E0154B00E0154BC91813E0154B05E0154BC9180878C0B210E002
:40360000134BC9180A7848788B7800021B041843CB7810431B0603E000210B7848780002184300BDC0FF0300C1FF0300C5FF0300C9FF0300D0FF0300D1FF0300D6FF0300DE
:40364000D2FF0300D4FF0300D8FF0300DCFF0300E0FF030010B500210520FFF7A9FF0121041C0520FFF7A4FFE4B2C3B2002C03D0181E05D0032003E0581E83410220C01A0C
:4036800010BD000010B50D4C44342378002B13D1FFF71CFFFFF7DEFF094B587059781A1C022907D05978032904D05A781A700123237001E00223137010BDC0460C08002080
:4036C000D8000020F8B5061C0320311CFFF770FF041C311C0420FFF76BFF01342402271800240320311CFFF763FF251C01300002B84209D203785A1ED2B2FD2A00D80125D2
:403700001C19E4B20130F3E70120311CFFF750FF6442E4B20623844203D16A4255416D422B40181CF8BD0000F0B5BC4C0121A54402900220FFF73CFF059000F07DFE62B607
:403740000A230393029AFF23002A00D0131C96210EAE07AC301C4900221C00F0B5FE029B051C002B03D0039B013BDBB20393FFF799FE002801D0FFF79BFE039B002B02D09A
:40378000002DDFD101E0002D7BD12488062C00D857E233780420012B43D1F578B2782D021543EB1DA34200D94DE296225200934200D948E273195C7919799B79172B30D195
:4037C00000232A1892B2002A09D0A4A8944F8018C0190078013A1B189BB292B2F3E75B4222029BB20A4308209A421AD157E08D4B45331B78012B00D023E28B4B2B40032B58
:4038000000D01EE2B7797679032D06D02F2104ABEA1E59A8C91801F0CEFC0920012C00D8B8E000240E2204ABD21801230EAD2B70230AEB700023211D14806870AC7089B216
:40384000002909D0A4A8764E40188019007801391B189BB289B2F3E7A4A9744809195B4208189BB2037072481B0A08180370714B0734CB181721281C1970A1B2962300F009
:40388000F3FD029B002B00D15CE7664B45331B78012B00D156E7A5239B009D44F0BD72783479101C313814282DD95E4B05201C6C002CB7D045331B780520012BB1D104AB51
:4038C0005D820AAD1A740FAE00210C22281C099601F07AFCAE6008A8291CA0472623AC88FF339C4202D9AB68B34207D0AB68002B01D1002C04D12868C0B293E70E2090E7EB
:403900000E201C1C8EE701F07BFA32004F0074009D001D012701410158019D0070017F011500D0FFD0FFD0FFD0FFD0FFD0FFD0FFD0FF72FF3B4B45331B78012B00D080E159
:40394000012D00D07DE1012C00D978E1201CFFF7B9FE051E00D072E12402374B6142C9180FA8382201F027FC5624281C5AE72D4B45331C78012C00D063E1002D00D060E10A
:403980002E4B5878C0B2FFF79DFE43424341281C337147E73F023E436402294B341924029E4200D851E18DE01E4B45331B78012B00D046E1012D00D043E1012C00D940E156
:4039C00003200021FFF7F4FD83B2580A844202D1DB05DB0D03E00023A0425B415B0233711B0A7371FF23B371FE3BF3710020042418E70C4B45331B78012B00D021E1012D5E
:403A000000D01EE1201CFFF75DFE211C30710520FFF7CEFD02247071002003E76CFDFFFFA7FDFFFF0C080020FFFEFFFFACFDFFFFADFDFFFFAEFDFFFFC0FF0300D80000206B
:403A4000FF010000BA4F342A10D13B1C45331B78012B00D0F5E0032D00D0F2E03B1CCC32083359A80021DA8701F0AEFB3B1C45331E78012E00D0E4E0022D00D8E1E02F210C
:403A800008370497FF8F59ABD81904ABEA1EC91801F091FB8023033FED19ADB203205B009D424AD12E222D2104AB9B1804AA1B78521812781B021343049AD3879D4A934276
:403AC00000D8D5E00A20ACE6059B002B00D0E6E000230024984A01329C540133102BF8D159AB1F190AAE381C311CFFF7FBFCFFF7EDFC924808AB011C3A1C103101930096CC
:403B0000102303F020FF8E4B301C1919FFF7EAFC894B391C581C102201F04DFB802310345B009C42DCD1281C854900F027FD031C5A1E93410A205B42184000247C4B083362
:403B4000DC876FE67A4B1A1C45321278012A78D100220833DA8794E6754B45331B78012B6FD1012D6DD1201CFFF7ACFD002866D1012C08D86540E9B27248FFF7FBFC72485A
:403B8000211CFFF7F7FC714B5C7013E0684C231C45331B78012B54D10834E08F2C334619FF339E424FDC59AB18180FA92A1C01F002FBE6870020041C34E6002D41D10AAA95
:403BC000111C5E4B203311CB11C1594B0121181C1C1C08304834453321701970C5870FAB03CA03C30824281C1CE6514B45331B78012B26D1032D24D1B57973792D021D43D3
:403C00004C4B9D426AD95DE70B200121FFF7D0FC4022C30707D44D4B5878C0B2FFF752FD002802D180224A4B1A600024404B48331C7000F003FC00F011FD0420F2E50C20DC
:403C4000EFE50420EDE50320EBE559A8FFF758FC231C611CFF31384A18781132121BD25C824203D101338B42F5D1A3E70220D8E564021B19354C9DB22378311C002B00D08B
:403C80000021FFF795FC80B2013080B2854200D31AE70024264B0A200833DC87C2E56378012B00D914E76178C9B2012910D80320FFF77EFC041C01210320FFF779FC01344F
:403CC000A4B280B2A54200D202E7854200D9FFE60024174B0D200833DC87A3E5600228180002FFF70DFC80221348002111305200FFF734FC071C012C15D12B1CFF3BFF3BD1
:403D0000012B10D8134B0520ED186B1E9D41EDB2291CFFF74DFC291C3F1A0620FFF748FCFFB23F1AFFB27F4237710020012479E50C080020FF0100000C070020ACCF0100B5
:403D40001D070020D0FF0300D0FE0300D8000020C000002001FEFFFF08B501F0DDF903680C2B00D1FEE7FEE7031C10B594240849084A0868A401C3189A1AA24201DC0B60B7
:403D800005E001F0C9F90C2303600120404210BDDC000020081A002070B51049104B01394A1C15D000221E685C689D68A018AA4203D0B058A0500432F8E7021CDC68151A47
:403DC000A54202D0002520C2F9E710330139E7E701F0A8F9FFF7AAFAFEE7C04601000000B8D101000121104A10B51368141C8B43136000239A000D49032B01D80C498958B9
:403E00000C4801338150302BF4D1FFF775F90022094B1A60094B1A68002A00D11A60012223681343236010BD0000104081180000000C000000000020C8000020C000002039
:403E400030B5051C0120C1B0854229D82B02154A5B429B181B78834222D0002368406946114A9A1812785A548022013352009342F5D134AB18700D4800F080FB0023041CD0
:403E800069460B4A9A181278CA548022013352009342F5D134AB07481D7000F06FFB204341B030BDD0FF030000FF0300FF03000000FE0300FE0300000023034A1370034A73
:403EC0001370034A13707047FD190020F9190020FC19002030B591B0051C23490BA8142201F069F9214C2378002B03D1FFF7E4FF012323700120002D34D01D4B1D60636893
:403F0000002B07D11B4801F033F9031C60600320002B27D000211B2508A805AA06AB0181117016311D805D806944173D426008931D7101F087FB002814D10523019000930D
:403F4000029061680C480D4A0BAB01F0D1FA002808D101220A4B0B481A7010321121FF3215F06EFA11B030BDD4CF010058080020F019002054120000CD1B000044100000C4
:403F8000F8190020E8CF010008B501F05FFA0022044B1A70044B5868904201D001F0F2F808BDC046F819002058080020021C10B50120022A2FD8184B1B78042B29D1174C54
:403FC0002178194225D1164B002A08D1191C1D3050310880596C82300880A0300BE0012A0AD1191C962050310880C820596CC0000880FA20000148800A494033181C0A70E8
:4040000012F0B6FB002806D1042223781343237001E00420FF3010BDF8190020FD190020E0000020FC1900207047437800781B021843704738B5838900250D2B1BD1041C0C
:40404000291C0430221C333315F0ACFA051E0DD16068FFF7EAFF094B1B68820702D58220400001E00620FF30211C98470121044A13788B431370281C38BDC046F0190020B1
:40408000FD190020002382799A4208D1821D0378002B03D101309042F9D100E00123181C70470000F0B50127974B85B01A78041C3A430D1C1A701E1C282800D17DE013D8B9
:4040C000062800D184E006D8B84224D0052800D00BE10A7879E0262800D1ABE000D9A7E0212800D18AE000E1432800D1CCE008D8412865D0422800D0F7E00022834B5A702D
:4041000064E04F2800D1E6E0502800D1EAE04C2800D0EAE0C3E0072702AB1F71002302AA03A8537103F008FE02AB03A81F715C7103F002FE764F3B68181C0093FFF7A2FF59
:404140000190002808D0009801F06AF938680021FFF76AFF386822E01F213F206D4B6E4F1A786E4B02401B78920119406C4B09031B780A43034013436A4A381C11787F2272
:404180000A40520413431A0A3B701B0C7A70BB7001F046F9381C0199FFF746FF381C211CFFF742FF032011F069FF3F2302AA1371002303A8537111F07FFF04225A4B05E0FE
:4041C0000222524800F0F7FF0022584B1A708CE00B78002B00D088E04B78002B0BD11022534B5449DA800132FF329A80524A6B60126852181A603378012229E01B789B069B
:4042000073D44E490B78102B01D10B3BCB703F4B187812F06BFA03A90880002803D0484B36201B68984701223378134333705CE00222C3E73C4B1978022956D032783A4234
:4042400053D004223078104204D00321197033789343EBE708203778074203D01A7033788343E3E7032940D104232F4A1370354B1B78002B39D10120FFF798FE002834D1ED
:404280000323294A137030E02C234988FF33994201D996214900288813F080FE25E0081CFFF7C8FE33783B4202D0281C00F04CF83378DB0719D4002809D0122303A98B70EC
:4042C000AB89C87028680B8013F05EFE0DE0286813F000FF09E01B783B4206D0081C00F06DF802E0081C00F081F8112332781A4208D001223378201C93433370104B291C6D
:404300001B68984705B0F0BDFD190020FA190020340100207DF2FF0F380100207BF2FF0F7CF2FF0F78F2FF0FF8190020F919002060080020441000005C080020C802002009
:40434000F0190020FC19002010B58389021C112B0FD1164B0621FC335B6BDB0205D500210430402315F01EF9011C114A0120137818E00021102B17D13033043015F012F9C5
:40438000011C0120094B0B4CFC331B6CA0705A68094B1A60D37892781B021343044A07332380137883431370081C10BDE8CF0100FD19002068080020001A002008B54368E6
:4043C0001B89102B0CD1007A012804D113F036FE0022044B1A800121034A13788B43137008BDC04668080020FD19002043681A89102A1AD1427A012A12D108211A680B4B2D
:40440000FF311A60D37892781B02134307339BB2074A8B4201D8138000E01180012393700121044A13788B4313707047001A002068080020FD1900207047000008B5084B97
:40444000187811F0FBF8002802D0FFF79DFD08BD044B1B78022BF8D100F0DAFFF8E7C046FA190020F8190020F0B5154C85B0FC34636D071C58680D1C161CFFF7D6FD031C1E
:404480000420DB071AD5236C391C5C682A1C201C00F091FE10230B4A01A950780B811378000218438D80019413F0B6FD002801D1358003E0002301203380404205B0F0BD2B
:4044C000E8CF0100FA190020F7B50A24071C161C5C430191002C1BD000F09AFF0F4DAB78012B10D100242A88019BAC709A4207D20B4B381C196800F05EFE2B88338008E03D
:404500003480062405E0012000F0B4F8013CE1E7103400F07DFF201CFEBDC04668080020001A002010B5041C00F0F3FAC021044AA40113688B432343136000F0EEFA10BD22
:4045400008E400E010B58024054B64001C60054B18660320FFF7E6FF034B1C6010BDC04680E100E00000002000E100E08022024B52001A607047C04680E200E00023F0B5C9
:40458000C7B0029303932C4B98424FD800294DD08022051C520006A800F00DFE274B9D4201D8274B00E0274B0493FF23264C2749274A04AE736026600A60C046226801914C
:4045C000120F0F2A02D12268134005E022680023120F0A2A00D023680293029F002F27D100F097FA0397029B002B18D1194A2D040492049A184915430495019D2660124AAC
:404600002960C0462168090F0F2902D11368DBB204E01168090F0A2900D013680293039B002B00D1039300F078FA01E004230293029847B0F0BDC046FF030000FF0100003A
:40464000B6D70000B6D70001080010400400104004000080B6D8000005000080034A044913689BB20B4313607047C0460CED00E00400FA0510B5041C8022074B120294425D
:4046800005D9586800F03CFA044BE418F4E79868604300F035FA10BDD00200200080FFFF08B5034B1B7B584300F02AFA08BDC046D0020020F0B5051C87B000F02AFAEB1EEA
:4046C000049003932D2B5BD8304B1B789D4204D82F4B1C782F4BE4B21EE02F4B1B789D4204D82E4B1C782E4BE4B215E02D4B1B789D4204D82C4B1C782C4BE4B20CE02C4B06
:404700001B789D4204D82B4B1C782B4BE4B203E02A4B1C782A4BE4B21B78039ADBB20193284B294F9A5C059302922F2A04D92A2D02D919263E6008E03F233E681E40029B90
:40474000B34205D2204B029A1A60052000F0D8F91B4B1E4AED182B780520DBB213601C4B019A1C601B4B1A60FFF79AFF029BB34206D9059B039A05209B5C3B6000F0C0F970
:40478000049800F0CAF907B0F0BDC04640F3FF0F41F3FF0F42F3FF0F43F3FF0F44F3FF0F45F3FF0F46F3FF0F47F3FF0F48F3FF0F49F3FF0F4AF3FF0F4BF3FF0F4CF3FF0FA5
:4047C0004DF3FF0F64D101002CFF0B4028FF0B401CFF0B4020FF0B4001210F4A10B51368041C0B43802113600C4A0D4B09021A600C4A13680B431360002801D100200AE077
:404800000120FFF74DFF084B1B68DB07F6D4013C002CF5D1102010BD60F02E400220000078002E4010002E400C002E4001200A4A1368834313600223116899431160074945
:404840002E330A689A43203B1A430A6007220B68934303430B60704700F02E4000FF2E4008B5FFF7E3FF8021024A090613680B43136008BD00F02E400122104B70B51C68AA
:404880001440002815D0904215D1022507261968A94319600A490A68B2432A430A600A682E35AA43103D2A430A601A681043186001E0FFF7BBFF201C70BDC04600F02E4083
:4048C00000FF2E4008B500F024F9C021034A090213680B43136000F020F908BD00010B4010B5802400F015F90749084B0A68E4011A4022430A600A68134080221202134397
:404900000B6000F00AF910BD00010B40FF3FFFFF044BC0001B680130C340181C012318407047C04610020B4038B5041C0D1CFFF7EFFF00280AD10321081CE400A0402940A2
:40494000A140034A136883431943116038BDC0460C020B40034BC0001B68C340181C0323184070470C020B4038B5041C0D1CFFF7CFFF00280AD1E40002340121A540A14052
:404980002C1C034A13688B431C43146038BDC0460C020B40094B1A6802431A60C20702D51A689207FCD5C20502D51A689205FCD5C20302D51A689203FCD5704710020B40B1
:4049C000094A10B51168136812685C0A4B082343520C1343DB0705D4044A054B11680B401843106010BDC04610020B400C020B40F7F7FFFF70B50E4D061C2B680C1C9B0FFA
:404A0000C920002B00D06C38FFF74AFE0949300181408440084A432013688B43234313602B689B0F00D02438FFF73AFE70BDC0460C020B40FFFF000008020B4070B5051C15
:404A400000F067F80E4B041C1A68C0231B02134011D10C480C490540281C0E680B4A3240104308600A68012B01D1FFF72BFF201C00F053F870BDFFF733FF0123E9E7C04637
:404A800000010B400404040010020B40FBFBFBFF044B054A196810400843186019681142FCD1704710020B400808080010B5041E0FD1FFF74FFF032801D101301AE0201CE3
:404AC000FFF748FF022817D10630FFF7E1FF042010E0012810D1FFF73DFF032808D0201CFFF738FF022807D180200001FFF7D0FF8020C000FFF7A2FF10BD00000000000073
:404B00000230800803D00138FDD1C046C046C0467047EFF3108072B6704780F310887047F0B5204C8D18031CC5B00120A54236D80020161C051C0F0A039304AC3B02029103
:404B4000E41AB54204D3012829D90120404226E00028F8D15A1CFF3201920090029999420BD8B54209D203991A78495DE1548A4201D001220092013501E01978E154019ADC
:404B800001339342EAD1009B002B03D0381C04A9FFF7F4FC013C0137FF3C019BD1E745B0F0BDC046FFFF030001607047016070472B4B2C4A19782C4B09021B7819432B4B70
:404BC0001B7812781B021343294A934204D1072909D1284B033906E0D4221201934202D1042900D1234B244A1360244B244A1960244B1B7812781B021343234A134200D183
:404C0000224B234A23491360234A0B7812781B021343224A934204D0214A934201D0052B00D1204B204A1360204B214A1B681268AA2A14D11F2B12D90B780E2B0FD11D4B9A
:404C40001D4A1B7812781B0213431C4A13601C4B1C4A1B7812781B0213431B4A1360704759F1FF0F5EF1FF0F58F1FF0F5FF1FF0F580B0000580D00006C002E4074002E408A
:404C80005AF1FF0F5BF1FF0FFFDFFFFF0220000078002E405DF1FF0F5CF1FF0F0F0F000005050000050F000080002E40EC0F00F0E00F00F06DF2FF0F6CF2FF0F84002E40E7
:404CC0006FF2FF0F6EF2FF0F94002E4008B5FFF7E7FC08BD08B5FFF7CDFC08BD08B500F063F808BD08B500F067F808BD08B500F063F8034800F02EF8032000F031F808BD31
:404D00000D29000008B5024800F03AF808BDC0460D29000000487047010200002B2070472B2070472B2070472B2070472B2070472B2070472B2070472B2070472B207047FF
:404D40002B20704770472B20704770470120704701207047014B18677047C0460000002010B5041CFFF7D5FEC021044AA40113688B4323431360FFF7D0FE10BD0CE400E064
:404D800010B58024054B64011C60054B18670320FFF7E6FF034B1C6010BDC04680E100E00000002000E100E08022024B52011A607047C04600E100E08022024B52011A60D7
:404DC0007047C04680E100E008B5FFF7A2FE0421034A13688B43136030BFFFF79EFE08BD10ED00E008B51AF037FB08BD02B4714649084900095C49008E4402BC7047C04651
:404E000003B47146490840004900095E49008E4403BC7047002243088B4274D303098B425FD3030A8B4244D3030B8B4228D3030C8B420DD3FF22090212BA030C8B4202D37A
:404E40001212090265D0030B8B4219D300E0090AC30B8B4201D3CB03C01A5241830B8B4201D38B03C01A5241430B8B4201D34B03C01A5241030B8B4201D30B03C01A52416C
:404E8000C30A8B4201D3CB02C01A5241830A8B4201D38B02C01A5241430A8B4201D34B02C01A5241030A8B4201D30B02C01A5241CDD2C3098B4201D3CB01C01A5241830981
:404EC0008B4201D38B01C01A524143098B4201D34B01C01A524103098B4201D30B01C01A5241C3088B4201D3CB00C01A524183088B4201D38B00C01A524143088B4201D398
:404F00004B00C01A5241411A00D20146524110467047FFE701B5002000F0FCF802BDC0460029F7D003B5FFF775FF0EBC4243891A1847C04603460B437FD4002243088B42B3
:404F400074D303098B425FD3030A8B4244D3030B8B4228D3030C8B420DD3FF22090212BA030C8B4202D31212090265D0030B8B4219D300E0090AC30B8B4201D3CB03C01A7E
:404F80005241830B8B4201D38B03C01A5241430B8B4201D34B03C01A5241030B8B4201D30B03C01A5241C30A8B4201D3CB02C01A5241830A8B4201D38B02C01A5241430A43
:404FC0008B4201D34B02C01A5241030A8B4201D30B02C01A5241CDD2C3098B4201D3CB01C01A524183098B4201D38B01C01A524143098B4201D34B01C01A524103098B4244
:4050000001D30B01C01A5241C3088B4201D3CB00C01A524183088B4201D38B00C01A524143088B4201D34B00C01A5241411A00D201465241104670475DE0CA0F00D0494232
:40504000031000D34042534000229C4603098B422DD3030A8B4212D3FC22890112BA030A8B420CD3890192118B4208D3890192118B4204D389013AD0921100E08909C30951
:405080008B4201D3CB01C01A524183098B4201D38B01C01A524143098B4201D34B01C01A524103098B4201D30B01C01A5241C3088B4201D3CB00C01A524183088B4201D354
:4050C0008B00C01A5241D9D243088B4201D34B00C01A5241411A00D20146634652415B10104601D34042002B00D54942704763465B1000D3404201B5002000F00BF802BD6F
:405100000029F8D003B5FFF715FF0EBC4243891A1847C0467047C046014B18687047C046E40600200E4B70B500251E1C0D4CE41AA410A54204D0AB00F35898470135F8E788
:405140001AF094FA084B00251E1C084CE41AA410A54204D0AB00F35898470135F8E770BDA0D10100A0D10100A0D10100A8D1010008B5034B011C186800F074F808BDC0466E
:40518000E406002008B5034B011C186800F024F808BDC046E406002030B50024944208D0035D651C0C5DA34201D0181B02E02C1CF4E7002030BD002310B5934203D0CC5CA8
:4051C000C4540133F9E710BD031C8218934202D019700133FAE7704730B500293ED004390B68002B00DAC9181D4A1368141C002B02D14B60116031E099420DD208680A18C6
:405200009A4203D11368C3180B6053684B60216024E08A4203D8131C5A68002AF9D11D685C198C420BD10968691858181960904214D110685268091819605A600EE08C420E
:4052400002D90C23036009E008680C18944203D114685268001908604A60596030BDC046E8190020032370B5CC1C9C430834051C0C2C01D20C2405E0002C03DA0C23002085
:405280002B6042E08C42F9D3204A1368101C191C002913D00A68121B0DD40B2A02D90A608B181FE08B4202D15A6802601BE04A685A600B1C17E00B1C4968E9E7144E3368CB
:4052C000002B03D1281C00F025F83060281C211C00F020F8031C421CD0D00322C61C964386420AD11C60181C07210B301A1D8843821A0AD05142995007E0311A281C00F038
:4053000009F8431CBAD0331CECE770BDE8190020E419002038B50023064C051C081C2360FEF722FD431C03D12368002B00D02B6038BDC046041A0020134A1088810703D0EB
:405340008107890F401A001D11791030484381B25088820703D08207920F801A001D800040180A494030098980B2CA0701D0503080B2890706D504495422091F09785143DB
:40538000081880B270470000EA0200207808002010B502F03FF910BD10B502F01FFB10F07BF910BD10B502F021FB10F07DF910BD10B502F035F910BD10B502F047F910BDDE
:4053C00010B502F05FF910BD0121002807D0FF213631C1800321018041800021818008467047000010B50848FF2400680534401C08D106480068002804D102F0A7F9FE28E2
:4054000000D00024204610BD80040020E805002010B500F093FA10BD10B502F0EDF910BD10B50749044609780220002907D1204602F028FA002802D1204611F00BF810BD6C
:405440009604002010B502F04FFA10BD10B50CF06DFC02F0FBF802F0FFF9084C2078002801D000F075FA00F089FAFF2001F0A8FAFF2001F0B5FA0020207010BDE402002001
:4054800010B50CF053FC02F0E1F802F0E5F900F05FFA074908460C380CF02AFC002806D10CF04CFC002802D1024A0121117010BD78080020E402002070B504460120002C98
:4054C00012D02368002B0FD0616800290CD0074D06222889208118462968FFF76CFE6968606809780170002070BD000078080020FFB585B0002768460E9D07734F481C46F6
:405500000078002802D0082009B0F0BD10990F9801900095029105A807C800F001F90028F2D16946264603AB84460873002C19D0002115E08A00B75A082F09D99019807883
:40554000002805D0083FB7521878401C187005E0002914D00027B75290198770491CC9B2A942E7D360460028CED10F98002809D0109901F0EFFB002804D00120C4E70120A1
:405580008446EFE702F062F82D480021416081600599016021888180022D07D3A1798171A17AC171A1890181218A418100211EE0481C19E082008B00A75AE65ABE46BE42F5
:4055C00011D26F463E80B4461E190296B678BE7001967646E6521719029EBB78B3706646A652019EBE70401CA842E3D3491CA942DED3134822460C3000906846037B0799B6
:40560000069800F015F90028B8D168460B4C007B60700B480C3002F0C7F80028AED1084907480C310CF064FB0028A7D10CF086FB0028A3D10121217066E70000E4020020EF
:405640006C080020F8B5054633480E460078002802D002242046F8BD002E5BD000242F49002D16D02A89D0070DD02868002808D003881B3BE12B04D24088FB2801D81B2853
:4056800001D2012409E0900707D56868002804D1F7E70020088108604860002CDAD11F482F8907811C481B21801D018041800421017119490020891C0870F80705D01648CD
:4056C0000622801D2968FFF776FD1449B80703D56A681148127882700F480D46801D0860001F486002F0F4F80B48801D02F0E2F8288915F0D9FA288915F06AFC034610330F
:40570000FFF71AFE1F21C018890140180249308088809FE701249DE7E402002078080020FFB58446384F1C460020BB883F78054602460646002F11D100290ED0029999429B
:405740000BD36146002908D0002C06D00A99002906D02E4B0B99994202D2012004B0F0BD002144E0AB001F19BF78002F3BD0E35A002B38D07B43591889B22B0000F04AF8E1
:40578000050410161C253100A7782388BC46FF27233BEB37BB4222D26346032B1FD322E0A388002B1FD0302B19D31CE02389002B19D0282B13D316E0A289002A13D0134612
:4057C000134F233BBB420AD20DE0268A002A0AD033460F4F233BBB4201D2964203D901200EE0002001E000280AD16D1CEDB2099B9D42B7D31C2463435B1802998B42ACD829
:405800009642AAD8AAE70000E402002079020000BAFF000030B47446641E2578641CAB4200D21D46635D5B00E31830BC18470000FFB583B0002469460C801F4606468C8080
:40584000002806D00598002803D004983043800701D0012466E0002FFBD03449049809888842F6D3FFF74EFAFFF73CFA00F06AFC002855D100F0D4FD002851D12C490846AD
:4058800001F09CFA05042D0C4AD12A480499066081800021C18007810C98007AC00704D0684601F04BFF040007D10C98007A800703D501A801F06AFF0446BF1DFEB2002CA4
:4058C00020D13146059800F085F804001AD115F08DFB040016D16A461088928808368518144AF1B29088D288AEB29319984207D3401B801A80B201F053FD050007D000E03B
:40590000FF25012400F0B6FA002D04D008E0F8B200F044F9F6E700F0D9FA07490120087000F022FC204607B0F0BD0000E8020020E935000084080020F002002010B5034867
:405940000078012801D101F0CDFB10BDF002002010B500F003FE002803D100F009FC002801D0FF2010BD0448007A801DC0B200F02DF9002010BD00008408002010B500F057
:4059800009FE01F04DFA0449002008608880C88008810249087010BD84080020F002002070B5084B0446DA889E8800205518B54206D81D68AA182260DA885118D98070BDE6
:4059C000032070BD84080020014800897047000084080020F0B587B007460D4600208900009006916846FFF7DBFF844600285DD1304800990160002117E02E4B88001A687F
:405A00000629115406D22C4C0419667882185670628805E0C419203CA67A8218567022891B68C018491C4280C9B2A942E5D300242DE0601CC2B2059025E01E4FA3003968E8
:405A40009600581840887118039604904E88B04217D938466F46FE80B6464F786E4677710297049F4F800168039F5E18767879184E700168764659184E800068029F181874
:405A80004770521CD2B2AA42D7D30598C4B2AC42CFD36046002809D168460699FFF780FF8446002802D1054900980860604607B0F0BD0000F4020020C8D10100F8020020B3
:405AC0007047000010B5002809D005494A68002A05D0011F08788000105801F00FFC10BDF402002010B50446FFF76EFFC0B2801DA0420CD307484068002808D0A100405851
:405B000001F06EFB002801D00470001D10BD002010BD0000F4020020F8B516460D460446FFF752FFC0B2801DA04203D20020C0430090F8BDB2B2E9B2684601F077FB0099ED
:405B4000481C03D0024AA000526811500098F8BDF4020020F8B50746FFF736FF801DC6B20A49002005460C680DE06178002907D06188B94202D32078FFF7B4FF002804D15B
:405B8000241D6D1CEDB2B542EFD3F8BDF402002010B5002801D0FFF795FF10BD70B506460948002504680BE06178002905D062882078121D0023FFF7AFFF241D6D1CEDB2ED
:405BC000B542F1D370BD0000F4020020F8B5084F064600243D6808E0287879688000085801F038FC2D1D641CE4B2B442F4D3F8BDF4020020FFB581B00A9F16000C4620D052
:405C000000F0F2F8054604281BD0002F0CD03846FFF7A0FF20492A0151184860002810D03A460499FFF7C7FA1B4928010E504618778101980570200406D47D20C000444358
:405C400004E0FF2005B0F0BD6404640C00F0BAF80746042807D000F06BFAA0420BD800F067FA201A03E0204600F0C8FA0020F06035720020E6E700F05BFA009000F0D4FABE
:405C800000980121001B009000F008F902493A0151180098C860E6E790080020F8B5060116483418217A042903D0E068002802D017E00020F8BD00F03BFA054600F0B4FA45
:405CC00000F0A0F804280CD001010C480F18F8680021451900F0E2F80020F860284600F08DFA6068054D002801D0FFF751FF042020720020A8516081E060DAE790080020CF
:405D0000FEB500266A46304601232549050169180D7A042D02D0C96800291BD000211154401CC0B20428F0D300246846005D002830D01B48210108184189476805680291C4
:405D4000002101604160042241810272C160002E02D015E01354E3E700F054F804280ED001010F4808180190C6680021304600F095F801980021C160304600F03FFA01262A
:405D8000002D07D038460299A847002F02D03846FFF7FEFE641CE4B2042CC6D3FEBD0000900800200EB5002005216A4600901181508103486946006816F055FE0EBD0000E2
:405DC000FC020020074A0020010189180B7A042B02D0C968002903D0401CC0B20428F3D370470000900800200549002002015218127A042A03D0401CC0B20428F6D37047AD
:405E00009008002030B50A4B04200A4C00210A011219157A042D06D0D268002A03D09A4201D808461346491CC9B20429EFD330BDFFFF00009008002070470000F8B500257B
:405E40000B4F2E462801C419217A04290AD0042121723E506068002802D0FFF799FE66606681E6606D1CEDB2042DEBD3F8BD00009008002030B50020074C054604230201D3
:405E800011190B72A5504D60401C4D81C0B2CD600428F4D330BD00009008002030B5094C00231A011219157A042D04D0D568002906D02D18D5605B1CDBB2042BF1D330BD67
:405EC0002D1AF7E790080020002070471CB5002469460C70142001902346054A054816F0C7FD04480068401C00D1FF2420461CBD713A0000FC0200203EB5124A0146FF2079
:405F000000230124126800290DD0012914D0042908D104206946009308814B81104616F0A2FD80B23EBD68460093048143816946104616F093FDF4E7684600930481438118
:405F40006946EBE7FC02002070B545890468416800890300FFF75EFC08280509091E2228262800200AF0A0F81EE0022908D0C8B22A46214613F0A4FD2046FFF709FE13E0A3
:405F800002202A46214613F09BFD2946204600F00DF809E0002015F07BFC05E02046FFF7AFFE01E0FEF7D1FE002070BD014B0022DB6818470003002070B544890568008903
:405FC000022803D0032809D0FF2070BD2246094C0023A46829460120A04708E0FFF7ECF9241DA2B20023294602200BF034FD002070BD000000030020704770470248002170
:4060000041600180418070470003002070B50C46002186B016460391012802D0022859D116E003A901200BF06BFD01281BD1039D324621462846FFF7BEF8009528780190FC
:406040000220694608814E816846FFF7B5FF41E0214D002B686809D0049004A902200BF04FFD01281DD0022006B070BD002812D0298840182146FFF79EF828880024801904
:4060800080B228806988091D884206D12C801348FFF792FF03E00320E6E788421AD96C6018E004986860E278A378110219430B4A698000231060E3565360032313815181DB
:4060C000A1788170E178C1706178417021780170042028800020C7E700030020D00800203EB515460C46022803D004280CD000203EBD0091019002206946088107484A816D
:40610000006816F0B0FC07E013F0DAFC044B0022DB6829462046984701203EBDFC02002000030020014AD1609060704700030020034801688068081A0A2148430009704746
:40614000DC08002010B5FEF7D1FD482204490548FFF731F803490120C870002010BD0000E4D10100E00C002010B5FEF7B7FD10BD0020704770B5134C2368002B08D0207B5D
:406180001149C20705D04008400020738868A08070BD88680B4AA18880B29268814203D90A4D691A091802E0814202D2411A5118A160A080A0689842EAD316F071FC00F0FB
:4061C00013F870BDDC080020C0102E40FFFF000010B508461946FFF7A5FF10BD704710B5FFF77EFF10BD000003480021016041608160C16070470000DC080020024610B55A
:40620000FF20002A0CD0FFF7EFFF064C0321207B0843207310010A21FEF782FE2060002010BD0000DC08002000B504480A21806848430209FFF7D8FF104600BDDC080020B6
:406240000248007B8007C00F70470000DC08002010B54B490868002802DA4A4B01221A70022290430860484800694549C00B4031096A0246C907C90F0A4259D0012000F02E
:406280009FFB3F480E216C30FEF790FC3E4820218430FEF78BFC3C4814219C30FEF786FC3948FF21C131A430FEF780FC3648FF212F31B030FEF77AFC33483449BC30FEF784
:4062C00075FC31483249AC30FEF770FC30492E48491CB430FEF76AFC2B482E49B830FEF765FC29482C49CC30FEF760FC26482B490830FEF75BFC24482949A830FEF756FCAB
:40630000214828498830FEF751FC1F4826498C30FEF74CFC1C481921C9029030FEF746FCFEF746FCFEF7F6FCC0B2022812D01FE000290BD0002101420AD011480121603072
:40634000FEF734FC0120FEF7C5FC97E70121F2E7FF2010BD15491648FEF728FC14481549001DFEF723FC124800210830FEF71EFC54200449C043891C0870002010BD00006C
:4063800000F02E401003002000002E40320300002F3F00003102000010520000EC160000FA12000031D000003AE300009956000080012E40F80F000070B50646581C80B27E
:4063C00045086D00002408E0304600F0C1F81055000A1119A41C4870A4B2AC42F4D3D80705D0D0182038D15CC47FD454C17770BD30B50A4C002100195B1E07E0541864788E
:406400002502545C2C430480891C89B29942F5DB994201D1515C018030BD000000102E4010B5FF2000F0CCFA0F49FF2048700E481021801D41800121417001700A4900205C
:40644000C91C4870FFF704FF04000AD100F02EF907210648FEF7A8FB044807211830FEF7A3FB204610BD000010030020CC112E4070B5002405465B1E0AE0284600F068F8CD
:40648000010A161971702D1D1055A41CADB2A4B29C42F2DB9C4203D1284600F059F8105570BD000070B500210A4D5B1E0AE0541864782602545C344346193480001D891C93
:4064C00080B289B29942F2DB994202D1515C4019018070BD00102E40F0B50599091FCFB200217E1E0BE0541864782502545C2C43164D45192C80001D891C80B289B2B142F6
:40650000F1DBFC0712D01C78515C24020F4A0C4381180C809C785D78001D210280B2294384182180001D80B2D9780CE059781A7809021143054A84182180001DD9789B7817
:40654000090280B2194380180180F0BD00102E40014940180088704700102E4010B50B490020487000F0A2F8002000F04FFA002000F03CFA07210648FEF716FB04480721D5
:406580001830FEF711FB002010BD000013030020CC112E4010B50C48007801280FD101F023F900F0DDF8002804D10848016A490849000162054802213030FEF7F7FA024902
:4065C0000020C91E087010BD1303002040F02E4010B50B46062812D006DC01280CD0032801D1FFF7BBFF10BD0A28FCD00B28FAD105480078107010BDFFF712FF10BD1146BB
:40660000184600F01FFA10BD16030020F8B5244DAC6A0127A007234E002816DA307806280ED1286A384328621F480069F903084381B21D481030FEF7B9FA042000F0C0F9B1
:40664000174802212830FEF7AFFAE00718D001F035FA01280FD1002001F03EFB062000F0AFF91049FF20C91E48707078002802D1686B384368630A4801212830FEF794FA40
:40668000E0050BD53078042802D1052000F098F90348FF2101312830FEF786FAF8BD000040F02E401303002000002E4010B503212348FEF77BFA0120FEF708FB20483038C0
:4066C000406A204C80076178800F890001431C480C38FEF76BFA6078002808D0401E022181401820FEF70CFDC000083800E0B82081B21548FEF75AFA13480321090214380F
:40670000FEF754FA10481149B830FEF74FFA612189010F48FEF74AFA0D480321001FFEF745FA0C490C48FEF741FA0B480B496038FEF73CFA084801218838FEF737FA10BD6E
:4067400070F02E4016030020D8102E4090890000041E2E40FF0F000058122E4020900000044800684007400F022801D0002070470120704700010B4038B5FEF7CBFA01F0A5
:40678000B7F803211948FEF711FA0120FEF79EFA16483038406A04218007800F084381B2009012480C38FEF701FA1148016802221143009189B2FEF7F9F9B8210D48FEF7A0
:4067C000F5F90C48032109021438FEF7EFF9094C5321D83C2046FEF7E9F907210648FEF7E5F954212046FEF7E1F938BD70F02E40001F2E40D8102E4098142E4000B5FFF787
:40680000AFFF002805D009480168C908C900016000BD0748016A490849000162054801690122D2039143016100BD000000010B4040F02E4000002E400849087806280BD1AF
:4068400048780749002803D1486B400840004863C86A01221043C862704700001303002040F02E400121002807D005494A8842804A7842700978017000210846704700003A
:406880001603002001480078704700001303002002484078022800D0012070471003002000B50300FEF7B6FF080D050D0B070507090D012000BD032000BD042000BD02206C
:4068C00000BDFF2000BD0000074A9168D26889B2064B92B2994204D105498A4201D1012100E000210170704780002E4033D000003FE30000014948707047000013030020C2
:40690000F8B504460120002C52D0217808294FD2617804294CD26088102166283DD800283BD065882348662D45801BD801270026BF020A2D33D90A212846FEF7F1FAC0B213
:40694000072800D907200A2141438D4204D9691ACEB21F2E00D31F264101314339431648FEF722F9134D60786870217829701349496A8A0781001148920F11432430FEF78B
:4069800015F9687800280CD0401E022181401820FEF7B6FBC000083804E06180C1E72946DCE7B82081B204482030FEF7FFF80020F8BD000016030020B8102E4040F02E40B1
:4069C00010B50446FEF78EF9072C01D9FF2C01D102480470FEF782F910BD00001303002001494870704700001003002010B5064A012805D01921C9021046FEF7D7F810BDE6
:406A00001D21C902F8E7000090002E4010B50A4A141D012808D009491046FEF7C7F808492046FEF7C3F810BD04491046891CFEF7BDF80349491DF3E788002E4031D0000020
:406A40003AE3000070B50C460546FEF763F9C0B202280E49287804D0FF2810D04C280CD810E0FF2809D10A4AD0680004800F032801D0087807E09069000A553803E00878BA
:406A8000207070BD4F382070087070BD1203002000002E40F0B50122002834D0002932D00424420600D00524792342065B06D21800D0641C034600221EE00C2516466E430C
:406AC000124D00277519AF72104F002ABB51696007D0661EB24209D10D4E86197606760E05E05E06760E8027BE1B00E080269B198919521C2E81D2B2A242DED303480549E8
:406B0000006B002288611046F0BD0000680B0020790200001C03002018B50020694608700A48006900280ED0132149014018047E684604704F21C900054800F0A7F8A04249
:406B400001D0012018BD002018BD00001C030020EC080020F1B582B000206A4610700299002903D101F06EF900283AD11E4F00240C2126464E43F519A97A01291DD11B4953
:406B8000B859896988420BD14F21C900786800F07DF869460870132279685201891808762A89B9596868FDF7BBFF00280CD028200299002905D0282803D0641CE4B2062C6C
:406BC000D6D3641CE1B20AE00021A972F0E70C224A43D219927A012A04D0491CC9B20629F5D3FEBD2820FEBD680B00201C030020074900200C2242435218927A012A05D02B
:406C0000401CC0B20628F5D30020704701207047680B0020F8B50E000446154609D0194F19497868A04202D94018A04201D38D4201D90120F8BD31462046FEF7ADFA002880
:406C40001ED02A4631462046FEF7B5FAE8B200210C224A43D21913895568EE18A6420BD90126641B1B1B9672834209DA1469C01A044AC0B220329676491CC9B20629E7D3DF
:406C80000020F8BD680B002079020000034610B50020024604E09C5C2018521CC0B292B28A42F8D310BD000070B500F063F8084C064A216907480D46FEF77DFA0549284677
:406CC000FFF7E8FEFFF728FF207070BD790200001C030020EC08002010B500F04BF810BD002070470020054A002902D0012902D002E0906000E0D060002070471C03002016
:406D000070B5084C154608460549E26889182A46FEF751FAE0684019E06028B270BD0000EC0800201C0300203EB50A226946FFF7E7FF044606480A2200686946FEF72CFA6D
:406D4000002802D00020C0433EBD20463EBD000020030020002802D0044A914201D2FF20704703494A61086100207047790200001C030020024800218160C160704700007E
:406D80001C03002070B5074C15460548A26880182A46FFF73FFFA0684019A06028B270BDEC0800201C03002010B503490A220968FFF7E8FF10BD00002003002010B50F4ABA
:406DC000002313600E4A13600E4B18600E4801600E49012008600E490860000290600E490C4808600D4914300860FF381538506000F0BEF800F0CCF9002010BD5003002015
:406E00003803002064030020680300205403002044030020B00C0020480300205C03002000207047014610B50020002910D0094B1A689C685118A14209D258681960801863
:406E40008A0704D08A07920F891A091D196010BD002010BD38030020F8B50024164E671E321F3D463168136806E01422624310328A58521C1BD0641C9C42F6D36A1C14D0B3
:406E80002C461422544322460C3288500C214843FFF7C8FF3168002808510AD031680020103408517068401C70602846F8BD2546E4E73846F8BD000048030020F3B500268D
:406EC000F64381B000281BDB1E490968884217D80299002914D01B4F142204463F1D54432546396810354859401C09D0FDF7FAFE38682F1F4159C359994203DBFDF7EEFEA4
:406F00003046FEBD214608310091465801590C20704308180C220299FEF74DF90948761C001D0068C159B14200D100260549009A091D865008684159491C4151FDF7CEFEE3
:406F40000020FEBD44030020002803DB07490968884202D90020C043704704491422091D09685043103008587047000044030020F0B500200D4A451E0346171F50600FE081
:406F800014260146714314680E1DA3510C461668083433511668083435511468401C635039688842ECD30020F0BD000048030020F3B50026F64381B0002841DB23490968EB
:406FC00088423DD8029900293AD0204F142204463F1D54432546396810354859401C2FD0FDF780FE3868415900292BD0211D009146580C21005971430F46C1190C22029847
:40700000FEF7D9F811480021001D0068761C00590C34C0190160416081600C48001D00680159B14200D100260849009A091D865008684159491E4151FDF750FE0020FEBD80
:407040003046FEBDFDF74AFEFAE7000044030020FEB504460D4600201E49089E0860471E009001900290002C11D0486885420ED2002A0CD0002E0AD0642E08D808460C30F0
:4070800001681C2068430C18207A002801D03846FEBD0120226020721846FFF7DDFE6060401C13D06681A6810A4827610C3067610179A94200D205710021684601810A46F3
:4070C0002846029B00F040F82846FEBD00202072DDE700005003002038B50124009400F039F838BDFEB50027164EFF433D4600240EE01C20316860430818017A002906D068
:407100004068FFF721FF002801D0254603E0641C3079A042EDDA681C12D01C2130684D434419FDF7DFFD69466068FFF741FF0546FDF7D4FD002DD9D1216868468847D5E72A
:40714000FEBD00005C03002038B50024009400F001F838BD1FB500220C49541E0A60002811DB496888420ED808491C220C31096850430818406801A9FFF7A0FE401C02D0B2
:40718000002004B010BD2046FBE7000050030020F0B50021114A4D1E174611710C3F0B46BD6016E008461C2460431668041D355114680646235014680836A3551468361D47
:4071C000A353044616680A34335318301468491C255078688142E5D30020F0BD5C03002038B500210091002811DB0F49097888420DDA0D4D04010C3529680859002807D0FA
:40720000201D0818694600F06FF9002801D0002038BDFDF767FD28680F34015D491E0155FDF75CFD009838BD6C030020F7B582B0002502986E1E06602E48D21C024017469B
